{
	"EHR/contracts/EHR.sol": {
		"EHR": {
			"abi": [
				{
					"inputs": [
						{
							"internalType": "string",
							"name": "_name",
							"type": "string"
						},
						{
							"internalType": "uint256",
							"name": "_age",
							"type": "uint256"
						},
						{
							"internalType": "string",
							"name": "_gender",
							"type": "string"
						},
						{
							"internalType": "string",
							"name": "_bloodType",
							"type": "string"
						}
					],
					"name": "addPatient",
					"outputs": [],
					"stateMutability": "nonpayable",
					"type": "function"
				},
				{
					"inputs": [
						{
							"internalType": "string",
							"name": "_patientName",
							"type": "string"
						},
						{
							"internalType": "string",
							"name": "_doctorName",
							"type": "string"
						},
						{
							"internalType": "string",
							"name": "_reportType",
							"type": "string"
						},
						{
							"internalType": "string",
							"name": "_description",
							"type": "string"
						},
						{
							"internalType": "string",
							"name": "_date",
							"type": "string"
						}
					],
					"name": "addReport",
					"outputs": [],
					"stateMutability": "nonpayable",
					"type": "function"
				},
				{
					"inputs": [
						{
							"internalType": "uint256",
							"name": "_patientId",
							"type": "uint256"
						}
					],
					"name": "getPatientReportIds",
					"outputs": [
						{
							"internalType": "uint256[]",
							"name": "",
							"type": "uint256[]"
						}
					],
					"stateMutability": "view",
					"type": "function"
				},
				{
					"inputs": [
						{
							"internalType": "uint256",
							"name": "_reportId",
							"type": "uint256"
						}
					],
					"name": "getReportById",
					"outputs": [
						{
							"internalType": "string",
							"name": "",
							"type": "string"
						},
						{
							"internalType": "string",
							"name": "",
							"type": "string"
						},
						{
							"internalType": "string",
							"name": "",
							"type": "string"
						},
						{
							"internalType": "string",
							"name": "",
							"type": "string"
						},
						{
							"internalType": "string",
							"name": "",
							"type": "string"
						}
					],
					"stateMutability": "view",
					"type": "function"
				},
				{
					"inputs": [],
					"name": "patientCount",
					"outputs": [
						{
							"internalType": "uint256",
							"name": "",
							"type": "uint256"
						}
					],
					"stateMutability": "view",
					"type": "function"
				},
				{
					"inputs": [
						{
							"internalType": "uint256",
							"name": "",
							"type": "uint256"
						}
					],
					"name": "patients",
					"outputs": [
						{
							"internalType": "uint256",
							"name": "id",
							"type": "uint256"
						},
						{
							"internalType": "string",
							"name": "name",
							"type": "string"
						},
						{
							"internalType": "uint256",
							"name": "age",
							"type": "uint256"
						},
						{
							"internalType": "string",
							"name": "gender",
							"type": "string"
						},
						{
							"internalType": "string",
							"name": "bloodType",
							"type": "string"
						}
					],
					"stateMutability": "view",
					"type": "function"
				},
				{
					"inputs": [],
					"name": "reportCount",
					"outputs": [
						{
							"internalType": "uint256",
							"name": "",
							"type": "uint256"
						}
					],
					"stateMutability": "view",
					"type": "function"
				},
				{
					"inputs": [
						{
							"internalType": "uint256",
							"name": "",
							"type": "uint256"
						}
					],
					"name": "reports",
					"outputs": [
						{
							"internalType": "uint256",
							"name": "id",
							"type": "uint256"
						},
						{
							"internalType": "string",
							"name": "patientName",
							"type": "string"
						},
						{
							"internalType": "string",
							"name": "doctorName",
							"type": "string"
						},
						{
							"internalType": "string",
							"name": "reportType",
							"type": "string"
						},
						{
							"internalType": "string",
							"name": "description",
							"type": "string"
						},
						{
							"internalType": "string",
							"name": "date",
							"type": "string"
						}
					],
					"stateMutability": "view",
					"type": "function"
				}
			],
			"devdoc": {
				"kind": "dev",
				"methods": {},
				"version": 1
			},
			"evm": {
				"assembly": "    /* \"EHR/contracts/EHR.sol\":69:1634  contract EHR {... */\n  mstore(0x40, 0x80)\n  callvalue\n  dup1\n  iszero\n  tag_1\n  jumpi\n  0x00\n  dup1\n  revert\ntag_1:\n  pop\n  dataSize(sub_0)\n  dup1\n  dataOffset(sub_0)\n  0x00\n  codecopy\n  0x00\n  return\nstop\n\nsub_0: assembly {\n        /* \"EHR/contracts/EHR.sol\":69:1634  contract EHR {... */\n      mstore(0x40, 0x80)\n      callvalue\n      dup1\n      iszero\n      tag_1\n      jumpi\n      0x00\n      dup1\n      revert\n    tag_1:\n      pop\n      jumpi(tag_2, lt(calldatasize, 0x04))\n      shr(0xe0, calldataload(0x00))\n      dup1\n      0x69081bee\n      gt\n      tag_11\n      jumpi\n      dup1\n      0x69081bee\n      eq\n      tag_7\n      jumpi\n      dup1\n      0x93119a83\n      eq\n      tag_8\n      jumpi\n      dup1\n      0xa0303c41\n      eq\n      tag_9\n      jumpi\n      dup1\n      0xc942adf7\n      eq\n      tag_10\n      jumpi\n      jump(tag_2)\n    tag_11:\n      dup1\n      0x185c6f84\n      eq\n      tag_3\n      jumpi\n      dup1\n      0x1ca9da80\n      eq\n      tag_4\n      jumpi\n      dup1\n      0x33f0d5ea\n      eq\n      tag_5\n      jumpi\n      dup1\n      0x45a05bfb\n      eq\n      tag_6\n      jumpi\n    tag_2:\n      0x00\n      dup1\n      revert\n        /* \"EHR/contracts/EHR.sol\":557:580  uint public reportCount */\n    tag_3:\n      tag_12\n      tag_13\n      jump\t// in\n    tag_12:\n      mload(0x40)\n      tag_14\n      swap2\n      swap1\n      tag_15\n      jump\t// in\n    tag_14:\n      mload(0x40)\n      dup1\n      swap2\n      sub\n      swap1\n      return\n        /* \"EHR/contracts/EHR.sol\":1215:1351  function getPatientReportIds(uint _patientId) public view returns (uint[] memory) {... */\n    tag_4:\n      tag_16\n      0x04\n      dup1\n      calldatasize\n      sub\n      dup2\n      add\n      swap1\n      tag_17\n      swap2\n      swap1\n      tag_18\n      jump\t// in\n    tag_17:\n      tag_19\n      jump\t// in\n    tag_16:\n      mload(0x40)\n      tag_20\n      swap2\n      swap1\n      tag_21\n      jump\t// in\n    tag_20:\n      mload(0x40)\n      dup1\n      swap2\n      sub\n      swap1\n      return\n        /* \"EHR/contracts/EHR.sol\":591:835  function addPatient(string memory _name, uint _age, string memory _gender, string memory _bloodType) public {... */\n    tag_5:\n      tag_22\n      0x04\n      dup1\n      calldatasize\n      sub\n      dup2\n      add\n      swap1\n      tag_23\n      swap2\n      swap1\n      tag_24\n      jump\t// in\n    tag_23:\n      tag_25\n      jump\t// in\n    tag_22:\n      stop\n        /* \"EHR/contracts/EHR.sol\":1361:1632  function getReportById(uint _reportId) public view returns (string memory, string memory, string memory, string memory, string memory) {... */\n    tag_6:\n      tag_26\n      0x04\n      dup1\n      calldatasize\n      sub\n      dup2\n      add\n      swap1\n      tag_27\n      swap2\n      swap1\n      tag_18\n      jump\t// in\n    tag_27:\n      tag_28\n      jump\t// in\n    tag_26:\n      mload(0x40)\n      tag_29\n      swap6\n      swap5\n      swap4\n      swap3\n      swap2\n      swap1\n      tag_30\n      jump\t// in\n    tag_29:\n      mload(0x40)\n      dup1\n      swap2\n      sub\n      swap1\n      return\n        /* \"EHR/contracts/EHR.sol\":845:1205  function addReport(string memory _patientName, string memory _doctorName, string memory _reportType, string memory _description, string memory _date) public {... */\n    tag_7:\n      tag_31\n      0x04\n      dup1\n      calldatasize\n      sub\n      dup2\n      add\n      swap1\n      tag_32\n      swap2\n      swap1\n      tag_33\n      jump\t// in\n    tag_32:\n      tag_34\n      jump\t// in\n    tag_31:\n      stop\n        /* \"EHR/contracts/EHR.sol\":430:471  mapping (uint => Patient) public patients */\n    tag_8:\n      tag_35\n      0x04\n      dup1\n      calldatasize\n      sub\n      dup2\n      add\n      swap1\n      tag_36\n      swap2\n      swap1\n      tag_18\n      jump\t// in\n    tag_36:\n      tag_37\n      jump\t// in\n    tag_35:\n      mload(0x40)\n      tag_38\n      swap6\n      swap5\n      swap4\n      swap3\n      swap2\n      swap1\n      tag_39\n      jump\t// in\n    tag_38:\n      mload(0x40)\n      dup1\n      swap2\n      sub\n      swap1\n      return\n        /* \"EHR/contracts/EHR.sol\":527:551  uint public patientCount */\n    tag_9:\n      tag_40\n      tag_41\n      jump\t// in\n    tag_40:\n      mload(0x40)\n      tag_42\n      swap2\n      swap1\n      tag_15\n      jump\t// in\n    tag_42:\n      mload(0x40)\n      dup1\n      swap2\n      sub\n      swap1\n      return\n        /* \"EHR/contracts/EHR.sol\":477:516  mapping (uint => Report) public reports */\n    tag_10:\n      tag_43\n      0x04\n      dup1\n      calldatasize\n      sub\n      dup2\n      add\n      swap1\n      tag_44\n      swap2\n      swap1\n      tag_18\n      jump\t// in\n    tag_44:\n      tag_45\n      jump\t// in\n    tag_43:\n      mload(0x40)\n      tag_46\n      swap7\n      swap6\n      swap5\n      swap4\n      swap3\n      swap2\n      swap1\n      tag_47\n      jump\t// in\n    tag_46:\n      mload(0x40)\n      dup1\n      swap2\n      sub\n      swap1\n      return\n        /* \"EHR/contracts/EHR.sol\":557:580  uint public reportCount */\n    tag_13:\n      sload(0x03)\n      dup2\n      jump\t// out\n        /* \"EHR/contracts/EHR.sol\":1215:1351  function getPatientReportIds(uint _patientId) public view returns (uint[] memory) {... */\n    tag_19:\n        /* \"EHR/contracts/EHR.sol\":1282:1295  uint[] memory */\n      0x60\n        /* \"EHR/contracts/EHR.sol\":1314:1322  patients */\n      0x00\n        /* \"EHR/contracts/EHR.sol\":1314:1334  patients[_patientId] */\n      dup1\n        /* \"EHR/contracts/EHR.sol\":1323:1333  _patientId */\n      dup4\n        /* \"EHR/contracts/EHR.sol\":1314:1334  patients[_patientId] */\n      dup2\n      mstore\n      0x20\n      add\n      swap1\n      dup2\n      mstore\n      0x20\n      add\n      0x00\n      keccak256\n        /* \"EHR/contracts/EHR.sol\":1314:1344  patients[_patientId].reportIds */\n      0x05\n      add\n        /* \"EHR/contracts/EHR.sol\":1307:1344  return patients[_patientId].reportIds */\n      dup1\n      sload\n      dup1\n      0x20\n      mul\n      0x20\n      add\n      mload(0x40)\n      swap1\n      dup2\n      add\n      0x40\n      mstore\n      dup1\n      swap3\n      swap2\n      swap1\n      dup2\n      dup2\n      mstore\n      0x20\n      add\n      dup3\n      dup1\n      sload\n      dup1\n      iszero\n      tag_49\n      jumpi\n      0x20\n      mul\n      dup3\n      add\n      swap2\n      swap1\n      0x00\n      mstore\n      keccak256(0x00, 0x20)\n      swap1\n    tag_50:\n      dup2\n      sload\n      dup2\n      mstore\n      0x20\n      add\n      swap1\n      0x01\n      add\n      swap1\n      dup1\n      dup4\n      gt\n      tag_50\n      jumpi\n    tag_49:\n      pop\n      pop\n      pop\n      pop\n      pop\n      swap1\n      pop\n        /* \"EHR/contracts/EHR.sol\":1215:1351  function getPatientReportIds(uint _patientId) public view returns (uint[] memory) {... */\n      swap2\n      swap1\n      pop\n      jump\t// out\n        /* \"EHR/contracts/EHR.sol\":591:835  function addPatient(string memory _name, uint _age, string memory _gender, string memory _bloodType) public {... */\n    tag_25:\n        /* \"EHR/contracts/EHR.sol\":709:721  patientCount */\n      0x02\n      0x00\n        /* \"EHR/contracts/EHR.sol\":709:723  patientCount++ */\n      dup2\n      sload\n      dup1\n      swap3\n      swap2\n      swap1\n      tag_52\n      swap1\n      tag_53\n      jump\t// in\n    tag_52:\n      swap2\n      swap1\n      pop\n      sstore\n      pop\n        /* \"EHR/contracts/EHR.sol\":758:828  Patient(patientCount, _name, _age, _gender, _bloodType, new uint[](0)) */\n      mload(0x40)\n      dup1\n      0xc0\n      add\n      0x40\n      mstore\n      dup1\n        /* \"EHR/contracts/EHR.sol\":766:778  patientCount */\n      sload(0x02)\n        /* \"EHR/contracts/EHR.sol\":758:828  Patient(patientCount, _name, _age, _gender, _bloodType, new uint[](0)) */\n      dup2\n      mstore\n      0x20\n      add\n        /* \"EHR/contracts/EHR.sol\":780:785  _name */\n      dup6\n        /* \"EHR/contracts/EHR.sol\":758:828  Patient(patientCount, _name, _age, _gender, _bloodType, new uint[](0)) */\n      dup2\n      mstore\n      0x20\n      add\n        /* \"EHR/contracts/EHR.sol\":787:791  _age */\n      dup5\n        /* \"EHR/contracts/EHR.sol\":758:828  Patient(patientCount, _name, _age, _gender, _bloodType, new uint[](0)) */\n      dup2\n      mstore\n      0x20\n      add\n        /* \"EHR/contracts/EHR.sol\":793:800  _gender */\n      dup4\n        /* \"EHR/contracts/EHR.sol\":758:828  Patient(patientCount, _name, _age, _gender, _bloodType, new uint[](0)) */\n      dup2\n      mstore\n      0x20\n      add\n        /* \"EHR/contracts/EHR.sol\":802:812  _bloodType */\n      dup3\n        /* \"EHR/contracts/EHR.sol\":758:828  Patient(patientCount, _name, _age, _gender, _bloodType, new uint[](0)) */\n      dup2\n      mstore\n      0x20\n      add\n        /* \"EHR/contracts/EHR.sol\":825:826  0 */\n      0x00\n        /* \"EHR/contracts/EHR.sol\":814:827  new uint[](0) */\n      0xffffffffffffffff\n      dup2\n      gt\n      iszero\n      tag_54\n      jumpi\n      tag_55\n      tag_56\n      jump\t// in\n    tag_55:\n    tag_54:\n      mload(0x40)\n      swap1\n      dup1\n      dup3\n      mstore\n      dup1\n      0x20\n      mul\n      0x20\n      add\n      dup3\n      add\n      0x40\n      mstore\n      dup1\n      iszero\n      tag_57\n      jumpi\n      dup2\n      0x20\n      add\n      0x20\n      dup3\n      mul\n      dup1\n      calldatasize\n      dup4\n      calldatacopy\n      dup1\n      dup3\n      add\n      swap2\n      pop\n      pop\n      swap1\n      pop\n    tag_57:\n      pop\n        /* \"EHR/contracts/EHR.sol\":758:828  Patient(patientCount, _name, _age, _gender, _bloodType, new uint[](0)) */\n      dup2\n      mstore\n      pop\n        /* \"EHR/contracts/EHR.sol\":733:741  patients */\n      0x00\n        /* \"EHR/contracts/EHR.sol\":733:755  patients[patientCount] */\n      dup1\n        /* \"EHR/contracts/EHR.sol\":742:754  patientCount */\n      sload(0x02)\n        /* \"EHR/contracts/EHR.sol\":733:755  patients[patientCount] */\n      dup2\n      mstore\n      0x20\n      add\n      swap1\n      dup2\n      mstore\n      0x20\n      add\n      0x00\n      keccak256\n        /* \"EHR/contracts/EHR.sol\":733:828  patients[patientCount] = Patient(patientCount, _name, _age, _gender, _bloodType, new uint[](0)) */\n      0x00\n      dup3\n      add\n      mload\n      dup2\n      0x00\n      add\n      sstore\n      0x20\n      dup3\n      add\n      mload\n      dup2\n      0x01\n      add\n      swap1\n      dup2\n      tag_58\n      swap2\n      swap1\n      tag_59\n      jump\t// in\n    tag_58:\n      pop\n      0x40\n      dup3\n      add\n      mload\n      dup2\n      0x02\n      add\n      sstore\n      0x60\n      dup3\n      add\n      mload\n      dup2\n      0x03\n      add\n      swap1\n      dup2\n      tag_60\n      swap2\n      swap1\n      tag_59\n      jump\t// in\n    tag_60:\n      pop\n      0x80\n      dup3\n      add\n      mload\n      dup2\n      0x04\n      add\n      swap1\n      dup2\n      tag_61\n      swap2\n      swap1\n      tag_59\n      jump\t// in\n    tag_61:\n      pop\n      0xa0\n      dup3\n      add\n      mload\n      dup2\n      0x05\n      add\n      swap1\n      dup1\n      mload\n      swap1\n      0x20\n      add\n      swap1\n      tag_62\n      swap3\n      swap2\n      swap1\n      tag_63\n      jump\t// in\n    tag_62:\n      pop\n      swap1\n      pop\n      pop\n        /* \"EHR/contracts/EHR.sol\":591:835  function addPatient(string memory _name, uint _age, string memory _gender, string memory _bloodType) public {... */\n      pop\n      pop\n      pop\n      pop\n      jump\t// out\n        /* \"EHR/contracts/EHR.sol\":1361:1632  function getReportById(uint _reportId) public view returns (string memory, string memory, string memory, string memory, string memory) {... */\n    tag_28:\n        /* \"EHR/contracts/EHR.sol\":1421:1434  string memory */\n      0x60\n        /* \"EHR/contracts/EHR.sol\":1436:1449  string memory */\n      dup1\n        /* \"EHR/contracts/EHR.sol\":1451:1464  string memory */\n      0x60\n        /* \"EHR/contracts/EHR.sol\":1466:1479  string memory */\n      dup1\n        /* \"EHR/contracts/EHR.sol\":1481:1494  string memory */\n      0x60\n        /* \"EHR/contracts/EHR.sol\":1506:1521  Report memory r */\n      0x00\n        /* \"EHR/contracts/EHR.sol\":1524:1531  reports */\n      0x01\n        /* \"EHR/contracts/EHR.sol\":1524:1542  reports[_reportId] */\n      0x00\n        /* \"EHR/contracts/EHR.sol\":1532:1541  _reportId */\n      dup9\n        /* \"EHR/contracts/EHR.sol\":1524:1542  reports[_reportId] */\n      dup2\n      mstore\n      0x20\n      add\n      swap1\n      dup2\n      mstore\n      0x20\n      add\n      0x00\n      keccak256\n        /* \"EHR/contracts/EHR.sol\":1506:1542  Report memory r = reports[_reportId] */\n      mload(0x40)\n      dup1\n      0xc0\n      add\n      0x40\n      mstore\n      swap1\n      dup2\n      0x00\n      dup3\n      add\n      sload\n      dup2\n      mstore\n      0x20\n      add\n      0x01\n      dup3\n      add\n      dup1\n      sload\n      tag_65\n      swap1\n      tag_66\n      jump\t// in\n    tag_65:\n      dup1\n      0x1f\n      add\n      0x20\n      dup1\n      swap2\n      div\n      mul\n      0x20\n      add\n      mload(0x40)\n      swap1\n      dup2\n      add\n      0x40\n      mstore\n      dup1\n      swap3\n      swap2\n      swap1\n      dup2\n      dup2\n      mstore\n      0x20\n      add\n      dup3\n      dup1\n      sload\n      tag_67\n      swap1\n      tag_66\n      jump\t// in\n    tag_67:\n      dup1\n      iszero\n      tag_68\n      jumpi\n      dup1\n      0x1f\n      lt\n      tag_69\n      jumpi\n      0x0100\n      dup1\n      dup4\n      sload\n      div\n      mul\n      dup4\n      mstore\n      swap2\n      0x20\n      add\n      swap2\n      jump(tag_68)\n    tag_69:\n      dup3\n      add\n      swap2\n      swap1\n      0x00\n      mstore\n      keccak256(0x00, 0x20)\n      swap1\n    tag_70:\n      dup2\n      sload\n      dup2\n      mstore\n      swap1\n      0x01\n      add\n      swap1\n      0x20\n      add\n      dup1\n      dup4\n      gt\n      tag_70\n      jumpi\n      dup3\n      swap1\n      sub\n      0x1f\n      and\n      dup3\n      add\n      swap2\n    tag_68:\n      pop\n      pop\n      pop\n      pop\n      pop\n      dup2\n      mstore\n      0x20\n      add\n      0x02\n      dup3\n      add\n      dup1\n      sload\n      tag_71\n      swap1\n      tag_66\n      jump\t// in\n    tag_71:\n      dup1\n      0x1f\n      add\n      0x20\n      dup1\n      swap2\n      div\n      mul\n      0x20\n      add\n      mload(0x40)\n      swap1\n      dup2\n      add\n      0x40\n      mstore\n      dup1\n      swap3\n      swap2\n      swap1\n      dup2\n      dup2\n      mstore\n      0x20\n      add\n      dup3\n      dup1\n      sload\n      tag_72\n      swap1\n      tag_66\n      jump\t// in\n    tag_72:\n      dup1\n      iszero\n      tag_73\n      jumpi\n      dup1\n      0x1f\n      lt\n      tag_74\n      jumpi\n      0x0100\n      dup1\n      dup4\n      sload\n      div\n      mul\n      dup4\n      mstore\n      swap2\n      0x20\n      add\n      swap2\n      jump(tag_73)\n    tag_74:\n      dup3\n      add\n      swap2\n      swap1\n      0x00\n      mstore\n      keccak256(0x00, 0x20)\n      swap1\n    tag_75:\n      dup2\n      sload\n      dup2\n      mstore\n      swap1\n      0x01\n      add\n      swap1\n      0x20\n      add\n      dup1\n      dup4\n      gt\n      tag_75\n      jumpi\n      dup3\n      swap1\n      sub\n      0x1f\n      and\n      dup3\n      add\n      swap2\n    tag_73:\n      pop\n      pop\n      pop\n      pop\n      pop\n      dup2\n      mstore\n      0x20\n      add\n      0x03\n      dup3\n      add\n      dup1\n      sload\n      tag_76\n      swap1\n      tag_66\n      jump\t// in\n    tag_76:\n      dup1\n      0x1f\n      add\n      0x20\n      dup1\n      swap2\n      div\n      mul\n      0x20\n      add\n      mload(0x40)\n      swap1\n      dup2\n      add\n      0x40\n      mstore\n      dup1\n      swap3\n      swap2\n      swap1\n      dup2\n      dup2\n      mstore\n      0x20\n      add\n      dup3\n      dup1\n      sload\n      tag_77\n      swap1\n      tag_66\n      jump\t// in\n    tag_77:\n      dup1\n      iszero\n      tag_78\n      jumpi\n      dup1\n      0x1f\n      lt\n      tag_79\n      jumpi\n      0x0100\n      dup1\n      dup4\n      sload\n      div\n      mul\n      dup4\n      mstore\n      swap2\n      0x20\n      add\n      swap2\n      jump(tag_78)\n    tag_79:\n      dup3\n      add\n      swap2\n      swap1\n      0x00\n      mstore\n      keccak256(0x00, 0x20)\n      swap1\n    tag_80:\n      dup2\n      sload\n      dup2\n      mstore\n      swap1\n      0x01\n      add\n      swap1\n      0x20\n      add\n      dup1\n      dup4\n      gt\n      tag_80\n      jumpi\n      dup3\n      swap1\n      sub\n      0x1f\n      and\n      dup3\n      add\n      swap2\n    tag_78:\n      pop\n      pop\n      pop\n      pop\n      pop\n      dup2\n      mstore\n      0x20\n      add\n      0x04\n      dup3\n      add\n      dup1\n      sload\n      tag_81\n      swap1\n      tag_66\n      jump\t// in\n    tag_81:\n      dup1\n      0x1f\n      add\n      0x20\n      dup1\n      swap2\n      div\n      mul\n      0x20\n      add\n      mload(0x40)\n      swap1\n      dup2\n      add\n      0x40\n      mstore\n      dup1\n      swap3\n      swap2\n      swap1\n      dup2\n      dup2\n      mstore\n      0x20\n      add\n      dup3\n      dup1\n      sload\n      tag_82\n      swap1\n      tag_66\n      jump\t// in\n    tag_82:\n      dup1\n      iszero\n      tag_83\n      jumpi\n      dup1\n      0x1f\n      lt\n      tag_84\n      jumpi\n      0x0100\n      dup1\n      dup4\n      sload\n      div\n      mul\n      dup4\n      mstore\n      swap2\n      0x20\n      add\n      swap2\n      jump(tag_83)\n    tag_84:\n      dup3\n      add\n      swap2\n      swap1\n      0x00\n      mstore\n      keccak256(0x00, 0x20)\n      swap1\n    tag_85:\n      dup2\n      sload\n      dup2\n      mstore\n      swap1\n      0x01\n      add\n      swap1\n      0x20\n      add\n      dup1\n      dup4\n      gt\n      tag_85\n      jumpi\n      dup3\n      swap1\n      sub\n      0x1f\n      and\n      dup3\n      add\n      swap2\n    tag_83:\n      pop\n      pop\n      pop\n      pop\n      pop\n      dup2\n      mstore\n      0x20\n      add\n      0x05\n      dup3\n      add\n      dup1\n      sload\n      tag_86\n      swap1\n      tag_66\n      jump\t// in\n    tag_86:\n      dup1\n      0x1f\n      add\n      0x20\n      dup1\n      swap2\n      div\n      mul\n      0x20\n      add\n      mload(0x40)\n      swap1\n      dup2\n      add\n      0x40\n      mstore\n      dup1\n      swap3\n      swap2\n      swap1\n      dup2\n      dup2\n      mstore\n      0x20\n      add\n      dup3\n      dup1\n      sload\n      tag_87\n      swap1\n      tag_66\n      jump\t// in\n    tag_87:\n      dup1\n      iszero\n      tag_88\n      jumpi\n      dup1\n      0x1f\n      lt\n      tag_89\n      jumpi\n      0x0100\n      dup1\n      dup4\n      sload\n      div\n      mul\n      dup4\n      mstore\n      swap2\n      0x20\n      add\n      swap2\n      jump(tag_88)\n    tag_89:\n      dup3\n      add\n      swap2\n      swap1\n      0x00\n      mstore\n      keccak256(0x00, 0x20)\n      swap1\n    tag_90:\n      dup2\n      sload\n      dup2\n      mstore\n      swap1\n      0x01\n      add\n      swap1\n      0x20\n      add\n      dup1\n      dup4\n      gt\n      tag_90\n      jumpi\n      dup3\n      swap1\n      sub\n      0x1f\n      and\n      dup3\n      add\n      swap2\n    tag_88:\n      pop\n      pop\n      pop\n      pop\n      pop\n      dup2\n      mstore\n      pop\n      pop\n      swap1\n      pop\n        /* \"EHR/contracts/EHR.sol\":1560:1561  r */\n      dup1\n        /* \"EHR/contracts/EHR.sol\":1560:1573  r.patientName */\n      0x20\n      add\n      mload\n        /* \"EHR/contracts/EHR.sol\":1575:1576  r */\n      dup2\n        /* \"EHR/contracts/EHR.sol\":1575:1587  r.doctorName */\n      0x40\n      add\n      mload\n        /* \"EHR/contracts/EHR.sol\":1589:1590  r */\n      dup3\n        /* \"EHR/contracts/EHR.sol\":1589:1601  r.reportType */\n      0x60\n      add\n      mload\n        /* \"EHR/contracts/EHR.sol\":1603:1604  r */\n      dup4\n        /* \"EHR/contracts/EHR.sol\":1603:1616  r.description */\n      0x80\n      add\n      mload\n        /* \"EHR/contracts/EHR.sol\":1618:1619  r */\n      dup5\n        /* \"EHR/contracts/EHR.sol\":1618:1624  r.date */\n      0xa0\n      add\n      mload\n        /* \"EHR/contracts/EHR.sol\":1552:1625  return (r.patientName, r.doctorName, r.reportType, r.description, r.date) */\n      swap6\n      pop\n      swap6\n      pop\n      swap6\n      pop\n      swap6\n      pop\n      swap6\n      pop\n      pop\n        /* \"EHR/contracts/EHR.sol\":1361:1632  function getReportById(uint _reportId) public view returns (string memory, string memory, string memory, string memory, string memory) {... */\n      swap2\n      swap4\n      swap6\n      swap1\n      swap3\n      swap5\n      pop\n      jump\t// out\n        /* \"EHR/contracts/EHR.sol\":845:1205  function addReport(string memory _patientName, string memory _doctorName, string memory _reportType, string memory _description, string memory _date) public {... */\n    tag_34:\n        /* \"EHR/contracts/EHR.sol\":1012:1023  reportCount */\n      0x03\n      0x00\n        /* \"EHR/contracts/EHR.sol\":1012:1025  reportCount++ */\n      dup2\n      sload\n      dup1\n      swap3\n      swap2\n      swap1\n      tag_92\n      swap1\n      tag_53\n      jump\t// in\n    tag_92:\n      swap2\n      swap1\n      pop\n      sstore\n      pop\n        /* \"EHR/contracts/EHR.sol\":1058:1138  Report(reportCount, _patientName, _doctorName, _reportType, _description, _date) */\n      mload(0x40)\n      dup1\n      0xc0\n      add\n      0x40\n      mstore\n      dup1\n        /* \"EHR/contracts/EHR.sol\":1065:1076  reportCount */\n      sload(0x03)\n        /* \"EHR/contracts/EHR.sol\":1058:1138  Report(reportCount, _patientName, _doctorName, _reportType, _description, _date) */\n      dup2\n      mstore\n      0x20\n      add\n        /* \"EHR/contracts/EHR.sol\":1078:1090  _patientName */\n      dup7\n        /* \"EHR/contracts/EHR.sol\":1058:1138  Report(reportCount, _patientName, _doctorName, _reportType, _description, _date) */\n      dup2\n      mstore\n      0x20\n      add\n        /* \"EHR/contracts/EHR.sol\":1092:1103  _doctorName */\n      dup6\n        /* \"EHR/contracts/EHR.sol\":1058:1138  Report(reportCount, _patientName, _doctorName, _reportType, _description, _date) */\n      dup2\n      mstore\n      0x20\n      add\n        /* \"EHR/contracts/EHR.sol\":1105:1116  _reportType */\n      dup5\n        /* \"EHR/contracts/EHR.sol\":1058:1138  Report(reportCount, _patientName, _doctorName, _reportType, _description, _date) */\n      dup2\n      mstore\n      0x20\n      add\n        /* \"EHR/contracts/EHR.sol\":1118:1130  _description */\n      dup4\n        /* \"EHR/contracts/EHR.sol\":1058:1138  Report(reportCount, _patientName, _doctorName, _reportType, _description, _date) */\n      dup2\n      mstore\n      0x20\n      add\n        /* \"EHR/contracts/EHR.sol\":1132:1137  _date */\n      dup3\n        /* \"EHR/contracts/EHR.sol\":1058:1138  Report(reportCount, _patientName, _doctorName, _reportType, _description, _date) */\n      dup2\n      mstore\n      pop\n        /* \"EHR/contracts/EHR.sol\":1035:1042  reports */\n      0x01\n        /* \"EHR/contracts/EHR.sol\":1035:1055  reports[reportCount] */\n      0x00\n        /* \"EHR/contracts/EHR.sol\":1043:1054  reportCount */\n      sload(0x03)\n        /* \"EHR/contracts/EHR.sol\":1035:1055  reports[reportCount] */\n      dup2\n      mstore\n      0x20\n      add\n      swap1\n      dup2\n      mstore\n      0x20\n      add\n      0x00\n      keccak256\n        /* \"EHR/contracts/EHR.sol\":1035:1138  reports[reportCount] = Report(reportCount, _patientName, _doctorName, _reportType, _description, _date) */\n      0x00\n      dup3\n      add\n      mload\n      dup2\n      0x00\n      add\n      sstore\n      0x20\n      dup3\n      add\n      mload\n      dup2\n      0x01\n      add\n      swap1\n      dup2\n      tag_93\n      swap2\n      swap1\n      tag_59\n      jump\t// in\n    tag_93:\n      pop\n      0x40\n      dup3\n      add\n      mload\n      dup2\n      0x02\n      add\n      swap1\n      dup2\n      tag_94\n      swap2\n      swap1\n      tag_59\n      jump\t// in\n    tag_94:\n      pop\n      0x60\n      dup3\n      add\n      mload\n      dup2\n      0x03\n      add\n      swap1\n      dup2\n      tag_95\n      swap2\n      swap1\n      tag_59\n      jump\t// in\n    tag_95:\n      pop\n      0x80\n      dup3\n      add\n      mload\n      dup2\n      0x04\n      add\n      swap1\n      dup2\n      tag_96\n      swap2\n      swap1\n      tag_59\n      jump\t// in\n    tag_96:\n      pop\n      0xa0\n      dup3\n      add\n      mload\n      dup2\n      0x05\n      add\n      swap1\n      dup2\n      tag_97\n      swap2\n      swap1\n      tag_59\n      jump\t// in\n    tag_97:\n      pop\n      swap1\n      pop\n      pop\n        /* \"EHR/contracts/EHR.sol\":1148:1156  patients */\n      0x00\n        /* \"EHR/contracts/EHR.sol\":1148:1170  patients[patientCount] */\n      dup1\n        /* \"EHR/contracts/EHR.sol\":1157:1169  patientCount */\n      sload(0x02)\n        /* \"EHR/contracts/EHR.sol\":1148:1170  patients[patientCount] */\n      dup2\n      mstore\n      0x20\n      add\n      swap1\n      dup2\n      mstore\n      0x20\n      add\n      0x00\n      keccak256\n        /* \"EHR/contracts/EHR.sol\":1148:1180  patients[patientCount].reportIds */\n      0x05\n      add\n        /* \"EHR/contracts/EHR.sol\":1186:1197  reportCount */\n      sload(0x03)\n        /* \"EHR/contracts/EHR.sol\":1148:1198  patients[patientCount].reportIds.push(reportCount) */\n      swap1\n      dup1\n      0x01\n      dup2\n      sload\n      add\n      dup1\n      dup3\n      sstore\n      dup1\n      swap2\n      pop\n      pop\n      0x01\n      swap1\n      sub\n      swap1\n      0x00\n      mstore\n      keccak256(0x00, 0x20)\n      add\n      0x00\n      swap1\n      swap2\n      swap1\n      swap2\n      swap1\n      swap2\n      pop\n      sstore\n        /* \"EHR/contracts/EHR.sol\":845:1205  function addReport(string memory _patientName, string memory _doctorName, string memory _reportType, string memory _description, string memory _date) public {... */\n      pop\n      pop\n      pop\n      pop\n      pop\n      jump\t// out\n        /* \"EHR/contracts/EHR.sol\":430:471  mapping (uint => Patient) public patients */\n    tag_37:\n      mstore(0x20, 0x00)\n      dup1\n      0x00\n      mstore\n      keccak256(0x00, 0x40)\n      0x00\n      swap2\n      pop\n      swap1\n      pop\n      dup1\n      0x00\n      add\n      sload\n      swap1\n      dup1\n      0x01\n      add\n      dup1\n      sload\n      tag_99\n      swap1\n      tag_66\n      jump\t// in\n    tag_99:\n      dup1\n      0x1f\n      add\n      0x20\n      dup1\n      swap2\n      div\n      mul\n      0x20\n      add\n      mload(0x40)\n      swap1\n      dup2\n      add\n      0x40\n      mstore\n      dup1\n      swap3\n      swap2\n      swap1\n      dup2\n      dup2\n      mstore\n      0x20\n      add\n      dup3\n      dup1\n      sload\n      tag_100\n      swap1\n      tag_66\n      jump\t// in\n    tag_100:\n      dup1\n      iszero\n      tag_101\n      jumpi\n      dup1\n      0x1f\n      lt\n      tag_102\n      jumpi\n      0x0100\n      dup1\n      dup4\n      sload\n      div\n      mul\n      dup4\n      mstore\n      swap2\n      0x20\n      add\n      swap2\n      jump(tag_101)\n    tag_102:\n      dup3\n      add\n      swap2\n      swap1\n      0x00\n      mstore\n      keccak256(0x00, 0x20)\n      swap1\n    tag_103:\n      dup2\n      sload\n      dup2\n      mstore\n      swap1\n      0x01\n      add\n      swap1\n      0x20\n      add\n      dup1\n      dup4\n      gt\n      tag_103\n      jumpi\n      dup3\n      swap1\n      sub\n      0x1f\n      and\n      dup3\n      add\n      swap2\n    tag_101:\n      pop\n      pop\n      pop\n      pop\n      pop\n      swap1\n      dup1\n      0x02\n      add\n      sload\n      swap1\n      dup1\n      0x03\n      add\n      dup1\n      sload\n      tag_104\n      swap1\n      tag_66\n      jump\t// in\n    tag_104:\n      dup1\n      0x1f\n      add\n      0x20\n      dup1\n      swap2\n      div\n      mul\n      0x20\n      add\n      mload(0x40)\n      swap1\n      dup2\n      add\n      0x40\n      mstore\n      dup1\n      swap3\n      swap2\n      swap1\n      dup2\n      dup2\n      mstore\n      0x20\n      add\n      dup3\n      dup1\n      sload\n      tag_105\n      swap1\n      tag_66\n      jump\t// in\n    tag_105:\n      dup1\n      iszero\n      tag_106\n      jumpi\n      dup1\n      0x1f\n      lt\n      tag_107\n      jumpi\n      0x0100\n      dup1\n      dup4\n      sload\n      div\n      mul\n      dup4\n      mstore\n      swap2\n      0x20\n      add\n      swap2\n      jump(tag_106)\n    tag_107:\n      dup3\n      add\n      swap2\n      swap1\n      0x00\n      mstore\n      keccak256(0x00, 0x20)\n      swap1\n    tag_108:\n      dup2\n      sload\n      dup2\n      mstore\n      swap1\n      0x01\n      add\n      swap1\n      0x20\n      add\n      dup1\n      dup4\n      gt\n      tag_108\n      jumpi\n      dup3\n      swap1\n      sub\n      0x1f\n      and\n      dup3\n      add\n      swap2\n    tag_106:\n      pop\n      pop\n      pop\n      pop\n      pop\n      swap1\n      dup1\n      0x04\n      add\n      dup1\n      sload\n      tag_109\n      swap1\n      tag_66\n      jump\t// in\n    tag_109:\n      dup1\n      0x1f\n      add\n      0x20\n      dup1\n      swap2\n      div\n      mul\n      0x20\n      add\n      mload(0x40)\n      swap1\n      dup2\n      add\n      0x40\n      mstore\n      dup1\n      swap3\n      swap2\n      swap1\n      dup2\n      dup2\n      mstore\n      0x20\n      add\n      dup3\n      dup1\n      sload\n      tag_110\n      swap1\n      tag_66\n      jump\t// in\n    tag_110:\n      dup1\n      iszero\n      tag_111\n      jumpi\n      dup1\n      0x1f\n      lt\n      tag_112\n      jumpi\n      0x0100\n      dup1\n      dup4\n      sload\n      div\n      mul\n      dup4\n      mstore\n      swap2\n      0x20\n      add\n      swap2\n      jump(tag_111)\n    tag_112:\n      dup3\n      add\n      swap2\n      swap1\n      0x00\n      mstore\n      keccak256(0x00, 0x20)\n      swap1\n    tag_113:\n      dup2\n      sload\n      dup2\n      mstore\n      swap1\n      0x01\n      add\n      swap1\n      0x20\n      add\n      dup1\n      dup4\n      gt\n      tag_113\n      jumpi\n      dup3\n      swap1\n      sub\n      0x1f\n      and\n      dup3\n      add\n      swap2\n    tag_111:\n      pop\n      pop\n      pop\n      pop\n      pop\n      swap1\n      pop\n      dup6\n      jump\t// out\n        /* \"EHR/contracts/EHR.sol\":527:551  uint public patientCount */\n    tag_41:\n      sload(0x02)\n      dup2\n      jump\t// out\n        /* \"EHR/contracts/EHR.sol\":477:516  mapping (uint => Report) public reports */\n    tag_45:\n      mstore(0x20, 0x01)\n      dup1\n      0x00\n      mstore\n      keccak256(0x00, 0x40)\n      0x00\n      swap2\n      pop\n      swap1\n      pop\n      dup1\n      0x00\n      add\n      sload\n      swap1\n      dup1\n      0x01\n      add\n      dup1\n      sload\n      tag_114\n      swap1\n      tag_66\n      jump\t// in\n    tag_114:\n      dup1\n      0x1f\n      add\n      0x20\n      dup1\n      swap2\n      div\n      mul\n      0x20\n      add\n      mload(0x40)\n      swap1\n      dup2\n      add\n      0x40\n      mstore\n      dup1\n      swap3\n      swap2\n      swap1\n      dup2\n      dup2\n      mstore\n      0x20\n      add\n      dup3\n      dup1\n      sload\n      tag_115\n      swap1\n      tag_66\n      jump\t// in\n    tag_115:\n      dup1\n      iszero\n      tag_116\n      jumpi\n      dup1\n      0x1f\n      lt\n      tag_117\n      jumpi\n      0x0100\n      dup1\n      dup4\n      sload\n      div\n      mul\n      dup4\n      mstore\n      swap2\n      0x20\n      add\n      swap2\n      jump(tag_116)\n    tag_117:\n      dup3\n      add\n      swap2\n      swap1\n      0x00\n      mstore\n      keccak256(0x00, 0x20)\n      swap1\n    tag_118:\n      dup2\n      sload\n      dup2\n      mstore\n      swap1\n      0x01\n      add\n      swap1\n      0x20\n      add\n      dup1\n      dup4\n      gt\n      tag_118\n      jumpi\n      dup3\n      swap1\n      sub\n      0x1f\n      and\n      dup3\n      add\n      swap2\n    tag_116:\n      pop\n      pop\n      pop\n      pop\n      pop\n      swap1\n      dup1\n      0x02\n      add\n      dup1\n      sload\n      tag_119\n      swap1\n      tag_66\n      jump\t// in\n    tag_119:\n      dup1\n      0x1f\n      add\n      0x20\n      dup1\n      swap2\n      div\n      mul\n      0x20\n      add\n      mload(0x40)\n      swap1\n      dup2\n      add\n      0x40\n      mstore\n      dup1\n      swap3\n      swap2\n      swap1\n      dup2\n      dup2\n      mstore\n      0x20\n      add\n      dup3\n      dup1\n      sload\n      tag_120\n      swap1\n      tag_66\n      jump\t// in\n    tag_120:\n      dup1\n      iszero\n      tag_121\n      jumpi\n      dup1\n      0x1f\n      lt\n      tag_122\n      jumpi\n      0x0100\n      dup1\n      dup4\n      sload\n      div\n      mul\n      dup4\n      mstore\n      swap2\n      0x20\n      add\n      swap2\n      jump(tag_121)\n    tag_122:\n      dup3\n      add\n      swap2\n      swap1\n      0x00\n      mstore\n      keccak256(0x00, 0x20)\n      swap1\n    tag_123:\n      dup2\n      sload\n      dup2\n      mstore\n      swap1\n      0x01\n      add\n      swap1\n      0x20\n      add\n      dup1\n      dup4\n      gt\n      tag_123\n      jumpi\n      dup3\n      swap1\n      sub\n      0x1f\n      and\n      dup3\n      add\n      swap2\n    tag_121:\n      pop\n      pop\n      pop\n      pop\n      pop\n      swap1\n      dup1\n      0x03\n      add\n      dup1\n      sload\n      tag_124\n      swap1\n      tag_66\n      jump\t// in\n    tag_124:\n      dup1\n      0x1f\n      add\n      0x20\n      dup1\n      swap2\n      div\n      mul\n      0x20\n      add\n      mload(0x40)\n      swap1\n      dup2\n      add\n      0x40\n      mstore\n      dup1\n      swap3\n      swap2\n      swap1\n      dup2\n      dup2\n      mstore\n      0x20\n      add\n      dup3\n      dup1\n      sload\n      tag_125\n      swap1\n      tag_66\n      jump\t// in\n    tag_125:\n      dup1\n      iszero\n      tag_126\n      jumpi\n      dup1\n      0x1f\n      lt\n      tag_127\n      jumpi\n      0x0100\n      dup1\n      dup4\n      sload\n      div\n      mul\n      dup4\n      mstore\n      swap2\n      0x20\n      add\n      swap2\n      jump(tag_126)\n    tag_127:\n      dup3\n      add\n      swap2\n      swap1\n      0x00\n      mstore\n      keccak256(0x00, 0x20)\n      swap1\n    tag_128:\n      dup2\n      sload\n      dup2\n      mstore\n      swap1\n      0x01\n      add\n      swap1\n      0x20\n      add\n      dup1\n      dup4\n      gt\n      tag_128\n      jumpi\n      dup3\n      swap1\n      sub\n      0x1f\n      and\n      dup3\n      add\n      swap2\n    tag_126:\n      pop\n      pop\n      pop\n      pop\n      pop\n      swap1\n      dup1\n      0x04\n      add\n      dup1\n      sload\n      tag_129\n      swap1\n      tag_66\n      jump\t// in\n    tag_129:\n      dup1\n      0x1f\n      add\n      0x20\n      dup1\n      swap2\n      div\n      mul\n      0x20\n      add\n      mload(0x40)\n      swap1\n      dup2\n      add\n      0x40\n      mstore\n      dup1\n      swap3\n      swap2\n      swap1\n      dup2\n      dup2\n      mstore\n      0x20\n      add\n      dup3\n      dup1\n      sload\n      tag_130\n      swap1\n      tag_66\n      jump\t// in\n    tag_130:\n      dup1\n      iszero\n      tag_131\n      jumpi\n      dup1\n      0x1f\n      lt\n      tag_132\n      jumpi\n      0x0100\n      dup1\n      dup4\n      sload\n      div\n      mul\n      dup4\n      mstore\n      swap2\n      0x20\n      add\n      swap2\n      jump(tag_131)\n    tag_132:\n      dup3\n      add\n      swap2\n      swap1\n      0x00\n      mstore\n      keccak256(0x00, 0x20)\n      swap1\n    tag_133:\n      dup2\n      sload\n      dup2\n      mstore\n      swap1\n      0x01\n      add\n      swap1\n      0x20\n      add\n      dup1\n      dup4\n      gt\n      tag_133\n      jumpi\n      dup3\n      swap1\n      sub\n      0x1f\n      and\n      dup3\n      add\n      swap2\n    tag_131:\n      pop\n      pop\n      pop\n      pop\n      pop\n      swap1\n      dup1\n      0x05\n      add\n      dup1\n      sload\n      tag_134\n      swap1\n      tag_66\n      jump\t// in\n    tag_134:\n      dup1\n      0x1f\n      add\n      0x20\n      dup1\n      swap2\n      div\n      mul\n      0x20\n      add\n      mload(0x40)\n      swap1\n      dup2\n      add\n      0x40\n      mstore\n      dup1\n      swap3\n      swap2\n      swap1\n      dup2\n      dup2\n      mstore\n      0x20\n      add\n      dup3\n      dup1\n      sload\n      tag_135\n      swap1\n      tag_66\n      jump\t// in\n    tag_135:\n      dup1\n      iszero\n      tag_136\n      jumpi\n      dup1\n      0x1f\n      lt\n      tag_137\n      jumpi\n      0x0100\n      dup1\n      dup4\n      sload\n      div\n      mul\n      dup4\n      mstore\n      swap2\n      0x20\n      add\n      swap2\n      jump(tag_136)\n    tag_137:\n      dup3\n      add\n      swap2\n      swap1\n      0x00\n      mstore\n      keccak256(0x00, 0x20)\n      swap1\n    tag_138:\n      dup2\n      sload\n      dup2\n      mstore\n      swap1\n      0x01\n      add\n      swap1\n      0x20\n      add\n      dup1\n      dup4\n      gt\n      tag_138\n      jumpi\n      dup3\n      swap1\n      sub\n      0x1f\n      and\n      dup3\n      add\n      swap2\n    tag_136:\n      pop\n      pop\n      pop\n      pop\n      pop\n      swap1\n      pop\n      dup7\n      jump\t// out\n    tag_63:\n      dup3\n      dup1\n      sload\n      dup3\n      dup3\n      sstore\n      swap1\n      0x00\n      mstore\n      keccak256(0x00, 0x20)\n      swap1\n      dup2\n      add\n      swap3\n      dup3\n      iszero\n      tag_139\n      jumpi\n      swap2\n      0x20\n      mul\n      dup3\n      add\n    tag_140:\n      dup3\n      dup2\n      gt\n      iszero\n      tag_141\n      jumpi\n      dup3\n      mload\n      dup3\n      sstore\n      swap2\n      0x20\n      add\n      swap2\n      swap1\n      0x01\n      add\n      swap1\n      jump(tag_140)\n    tag_141:\n    tag_139:\n      pop\n      swap1\n      pop\n      tag_142\n      swap2\n      swap1\n      tag_143\n      jump\t// in\n    tag_142:\n      pop\n      swap1\n      jump\t// out\n    tag_143:\n    tag_144:\n      dup1\n      dup3\n      gt\n      iszero\n      tag_145\n      jumpi\n      0x00\n      dup2\n      0x00\n      swap1\n      sstore\n      pop\n      0x01\n      add\n      jump(tag_144)\n    tag_145:\n      pop\n      swap1\n      jump\t// out\n        /* \"#utility.yul\":7:84   */\n    tag_146:\n        /* \"#utility.yul\":44:51   */\n      0x00\n        /* \"#utility.yul\":73:78   */\n      dup2\n        /* \"#utility.yul\":62:78   */\n      swap1\n      pop\n        /* \"#utility.yul\":7:84   */\n      swap2\n      swap1\n      pop\n      jump\t// out\n        /* \"#utility.yul\":90:208   */\n    tag_147:\n        /* \"#utility.yul\":177:201   */\n      tag_193\n        /* \"#utility.yul\":195:200   */\n      dup2\n        /* \"#utility.yul\":177:201   */\n      tag_146\n      jump\t// in\n    tag_193:\n        /* \"#utility.yul\":172:175   */\n      dup3\n        /* \"#utility.yul\":165:202   */\n      mstore\n        /* \"#utility.yul\":90:208   */\n      pop\n      pop\n      jump\t// out\n        /* \"#utility.yul\":214:436   */\n    tag_15:\n        /* \"#utility.yul\":307:311   */\n      0x00\n        /* \"#utility.yul\":345:347   */\n      0x20\n        /* \"#utility.yul\":334:343   */\n      dup3\n        /* \"#utility.yul\":330:348   */\n      add\n        /* \"#utility.yul\":322:348   */\n      swap1\n      pop\n        /* \"#utility.yul\":358:429   */\n      tag_195\n        /* \"#utility.yul\":426:427   */\n      0x00\n        /* \"#utility.yul\":415:424   */\n      dup4\n        /* \"#utility.yul\":411:428   */\n      add\n        /* \"#utility.yul\":402:408   */\n      dup5\n        /* \"#utility.yul\":358:429   */\n      tag_147\n      jump\t// in\n    tag_195:\n        /* \"#utility.yul\":214:436   */\n      swap3\n      swap2\n      pop\n      pop\n      jump\t// out\n        /* \"#utility.yul\":442:517   */\n    tag_148:\n        /* \"#utility.yul\":475:481   */\n      0x00\n        /* \"#utility.yul\":508:510   */\n      0x40\n        /* \"#utility.yul\":502:511   */\n      mload\n        /* \"#utility.yul\":492:511   */\n      swap1\n      pop\n        /* \"#utility.yul\":442:517   */\n      swap1\n      jump\t// out\n        /* \"#utility.yul\":523:640   */\n    tag_149:\n        /* \"#utility.yul\":632:633   */\n      0x00\n        /* \"#utility.yul\":629:630   */\n      dup1\n        /* \"#utility.yul\":622:634   */\n      revert\n        /* \"#utility.yul\":646:763   */\n    tag_150:\n        /* \"#utility.yul\":755:756   */\n      0x00\n        /* \"#utility.yul\":752:753   */\n      dup1\n        /* \"#utility.yul\":745:757   */\n      revert\n        /* \"#utility.yul\":769:891   */\n    tag_151:\n        /* \"#utility.yul\":842:866   */\n      tag_200\n        /* \"#utility.yul\":860:865   */\n      dup2\n        /* \"#utility.yul\":842:866   */\n      tag_146\n      jump\t// in\n    tag_200:\n        /* \"#utility.yul\":835:840   */\n      dup2\n        /* \"#utility.yul\":832:867   */\n      eq\n        /* \"#utility.yul\":822:885   */\n      tag_201\n      jumpi\n        /* \"#utility.yul\":881:882   */\n      0x00\n        /* \"#utility.yul\":878:879   */\n      dup1\n        /* \"#utility.yul\":871:883   */\n      revert\n        /* \"#utility.yul\":822:885   */\n    tag_201:\n        /* \"#utility.yul\":769:891   */\n      pop\n      jump\t// out\n        /* \"#utility.yul\":897:1036   */\n    tag_152:\n        /* \"#utility.yul\":943:948   */\n      0x00\n        /* \"#utility.yul\":981:987   */\n      dup2\n        /* \"#utility.yul\":968:988   */\n      calldataload\n        /* \"#utility.yul\":959:988   */\n      swap1\n      pop\n        /* \"#utility.yul\":997:1030   */\n      tag_203\n        /* \"#utility.yul\":1024:1029   */\n      dup2\n        /* \"#utility.yul\":997:1030   */\n      tag_151\n      jump\t// in\n    tag_203:\n        /* \"#utility.yul\":897:1036   */\n      swap3\n      swap2\n      pop\n      pop\n      jump\t// out\n        /* \"#utility.yul\":1042:1371   */\n    tag_18:\n        /* \"#utility.yul\":1101:1107   */\n      0x00\n        /* \"#utility.yul\":1150:1152   */\n      0x20\n        /* \"#utility.yul\":1138:1147   */\n      dup3\n        /* \"#utility.yul\":1129:1136   */\n      dup5\n        /* \"#utility.yul\":1125:1148   */\n      sub\n        /* \"#utility.yul\":1121:1153   */\n      slt\n        /* \"#utility.yul\":1118:1237   */\n      iszero\n      tag_205\n      jumpi\n        /* \"#utility.yul\":1156:1235   */\n      tag_206\n      tag_149\n      jump\t// in\n    tag_206:\n        /* \"#utility.yul\":1118:1237   */\n    tag_205:\n        /* \"#utility.yul\":1276:1277   */\n      0x00\n        /* \"#utility.yul\":1301:1354   */\n      tag_207\n        /* \"#utility.yul\":1346:1353   */\n      dup5\n        /* \"#utility.yul\":1337:1343   */\n      dup3\n        /* \"#utility.yul\":1326:1335   */\n      dup6\n        /* \"#utility.yul\":1322:1344   */\n      add\n        /* \"#utility.yul\":1301:1354   */\n      tag_152\n      jump\t// in\n    tag_207:\n        /* \"#utility.yul\":1291:1354   */\n      swap2\n      pop\n        /* \"#utility.yul\":1247:1364   */\n      pop\n        /* \"#utility.yul\":1042:1371   */\n      swap3\n      swap2\n      pop\n      pop\n      jump\t// out\n        /* \"#utility.yul\":1377:1491   */\n    tag_153:\n        /* \"#utility.yul\":1444:1450   */\n      0x00\n        /* \"#utility.yul\":1478:1483   */\n      dup2\n        /* \"#utility.yul\":1472:1484   */\n      mload\n        /* \"#utility.yul\":1462:1484   */\n      swap1\n      pop\n        /* \"#utility.yul\":1377:1491   */\n      swap2\n      swap1\n      pop\n      jump\t// out\n        /* \"#utility.yul\":1497:1681   */\n    tag_154:\n        /* \"#utility.yul\":1596:1607   */\n      0x00\n        /* \"#utility.yul\":1630:1636   */\n      dup3\n        /* \"#utility.yul\":1625:1628   */\n      dup3\n        /* \"#utility.yul\":1618:1637   */\n      mstore\n        /* \"#utility.yul\":1670:1674   */\n      0x20\n        /* \"#utility.yul\":1665:1668   */\n      dup3\n        /* \"#utility.yul\":1661:1675   */\n      add\n        /* \"#utility.yul\":1646:1675   */\n      swap1\n      pop\n        /* \"#utility.yul\":1497:1681   */\n      swap3\n      swap2\n      pop\n      pop\n      jump\t// out\n        /* \"#utility.yul\":1687:1819   */\n    tag_155:\n        /* \"#utility.yul\":1754:1758   */\n      0x00\n        /* \"#utility.yul\":1777:1780   */\n      dup2\n        /* \"#utility.yul\":1769:1780   */\n      swap1\n      pop\n        /* \"#utility.yul\":1807:1811   */\n      0x20\n        /* \"#utility.yul\":1802:1805   */\n      dup3\n        /* \"#utility.yul\":1798:1812   */\n      add\n        /* \"#utility.yul\":1790:1812   */\n      swap1\n      pop\n        /* \"#utility.yul\":1687:1819   */\n      swap2\n      swap1\n      pop\n      jump\t// out\n        /* \"#utility.yul\":1825:1933   */\n    tag_156:\n        /* \"#utility.yul\":1902:1926   */\n      tag_212\n        /* \"#utility.yul\":1920:1925   */\n      dup2\n        /* \"#utility.yul\":1902:1926   */\n      tag_146\n      jump\t// in\n    tag_212:\n        /* \"#utility.yul\":1897:1900   */\n      dup3\n        /* \"#utility.yul\":1890:1927   */\n      mstore\n        /* \"#utility.yul\":1825:1933   */\n      pop\n      pop\n      jump\t// out\n        /* \"#utility.yul\":1939:2118   */\n    tag_157:\n        /* \"#utility.yul\":2008:2018   */\n      0x00\n        /* \"#utility.yul\":2029:2075   */\n      tag_214\n        /* \"#utility.yul\":2071:2074   */\n      dup4\n        /* \"#utility.yul\":2063:2069   */\n      dup4\n        /* \"#utility.yul\":2029:2075   */\n      tag_156\n      jump\t// in\n    tag_214:\n        /* \"#utility.yul\":2107:2111   */\n      0x20\n        /* \"#utility.yul\":2102:2105   */\n      dup4\n        /* \"#utility.yul\":2098:2112   */\n      add\n        /* \"#utility.yul\":2084:2112   */\n      swap1\n      pop\n        /* \"#utility.yul\":1939:2118   */\n      swap3\n      swap2\n      pop\n      pop\n      jump\t// out\n        /* \"#utility.yul\":2124:2237   */\n    tag_158:\n        /* \"#utility.yul\":2194:2198   */\n      0x00\n        /* \"#utility.yul\":2226:2230   */\n      0x20\n        /* \"#utility.yul\":2221:2224   */\n      dup3\n        /* \"#utility.yul\":2217:2231   */\n      add\n        /* \"#utility.yul\":2209:2231   */\n      swap1\n      pop\n        /* \"#utility.yul\":2124:2237   */\n      swap2\n      swap1\n      pop\n      jump\t// out\n        /* \"#utility.yul\":2273:3005   */\n    tag_159:\n        /* \"#utility.yul\":2392:2395   */\n      0x00\n        /* \"#utility.yul\":2421:2475   */\n      tag_217\n        /* \"#utility.yul\":2469:2474   */\n      dup3\n        /* \"#utility.yul\":2421:2475   */\n      tag_153\n      jump\t// in\n    tag_217:\n        /* \"#utility.yul\":2491:2577   */\n      tag_218\n        /* \"#utility.yul\":2570:2576   */\n      dup2\n        /* \"#utility.yul\":2565:2568   */\n      dup6\n        /* \"#utility.yul\":2491:2577   */\n      tag_154\n      jump\t// in\n    tag_218:\n        /* \"#utility.yul\":2484:2577   */\n      swap4\n      pop\n        /* \"#utility.yul\":2601:2657   */\n      tag_219\n        /* \"#utility.yul\":2651:2656   */\n      dup4\n        /* \"#utility.yul\":2601:2657   */\n      tag_155\n      jump\t// in\n    tag_219:\n        /* \"#utility.yul\":2680:2687   */\n      dup1\n        /* \"#utility.yul\":2711:2712   */\n      0x00\n        /* \"#utility.yul\":2696:2980   */\n    tag_220:\n        /* \"#utility.yul\":2721:2727   */\n      dup4\n        /* \"#utility.yul\":2718:2719   */\n      dup2\n        /* \"#utility.yul\":2715:2728   */\n      lt\n        /* \"#utility.yul\":2696:2980   */\n      iszero\n      tag_222\n      jumpi\n        /* \"#utility.yul\":2797:2803   */\n      dup2\n        /* \"#utility.yul\":2791:2804   */\n      mload\n        /* \"#utility.yul\":2824:2887   */\n      tag_223\n        /* \"#utility.yul\":2883:2886   */\n      dup9\n        /* \"#utility.yul\":2868:2881   */\n      dup3\n        /* \"#utility.yul\":2824:2887   */\n      tag_157\n      jump\t// in\n    tag_223:\n        /* \"#utility.yul\":2817:2887   */\n      swap8\n      pop\n        /* \"#utility.yul\":2910:2970   */\n      tag_224\n        /* \"#utility.yul\":2963:2969   */\n      dup4\n        /* \"#utility.yul\":2910:2970   */\n      tag_158\n      jump\t// in\n    tag_224:\n        /* \"#utility.yul\":2900:2970   */\n      swap3\n      pop\n        /* \"#utility.yul\":2756:2980   */\n      pop\n        /* \"#utility.yul\":2743:2744   */\n      0x01\n        /* \"#utility.yul\":2740:2741   */\n      dup2\n        /* \"#utility.yul\":2736:2745   */\n      add\n        /* \"#utility.yul\":2731:2745   */\n      swap1\n      pop\n        /* \"#utility.yul\":2696:2980   */\n      jump(tag_220)\n    tag_222:\n        /* \"#utility.yul\":2700:2714   */\n      pop\n        /* \"#utility.yul\":2996:2999   */\n      dup6\n        /* \"#utility.yul\":2989:2999   */\n      swap4\n      pop\n        /* \"#utility.yul\":2397:3005   */\n      pop\n      pop\n      pop\n        /* \"#utility.yul\":2273:3005   */\n      swap3\n      swap2\n      pop\n      pop\n      jump\t// out\n        /* \"#utility.yul\":3011:3384   */\n    tag_21:\n        /* \"#utility.yul\":3154:3158   */\n      0x00\n        /* \"#utility.yul\":3192:3194   */\n      0x20\n        /* \"#utility.yul\":3181:3190   */\n      dup3\n        /* \"#utility.yul\":3177:3195   */\n      add\n        /* \"#utility.yul\":3169:3195   */\n      swap1\n      pop\n        /* \"#utility.yul\":3241:3250   */\n      dup2\n        /* \"#utility.yul\":3235:3239   */\n      dup2\n        /* \"#utility.yul\":3231:3251   */\n      sub\n        /* \"#utility.yul\":3227:3228   */\n      0x00\n        /* \"#utility.yul\":3216:3225   */\n      dup4\n        /* \"#utility.yul\":3212:3229   */\n      add\n        /* \"#utility.yul\":3205:3252   */\n      mstore\n        /* \"#utility.yul\":3269:3377   */\n      tag_226\n        /* \"#utility.yul\":3372:3376   */\n      dup2\n        /* \"#utility.yul\":3363:3369   */\n      dup5\n        /* \"#utility.yul\":3269:3377   */\n      tag_159\n      jump\t// in\n    tag_226:\n        /* \"#utility.yul\":3261:3377   */\n      swap1\n      pop\n        /* \"#utility.yul\":3011:3384   */\n      swap3\n      swap2\n      pop\n      pop\n      jump\t// out\n        /* \"#utility.yul\":3390:3507   */\n    tag_160:\n        /* \"#utility.yul\":3499:3500   */\n      0x00\n        /* \"#utility.yul\":3496:3497   */\n      dup1\n        /* \"#utility.yul\":3489:3501   */\n      revert\n        /* \"#utility.yul\":3513:3630   */\n    tag_161:\n        /* \"#utility.yul\":3622:3623   */\n      0x00\n        /* \"#utility.yul\":3619:3620   */\n      dup1\n        /* \"#utility.yul\":3612:3624   */\n      revert\n        /* \"#utility.yul\":3636:3738   */\n    tag_162:\n        /* \"#utility.yul\":3677:3683   */\n      0x00\n        /* \"#utility.yul\":3728:3730   */\n      0x1f\n        /* \"#utility.yul\":3724:3731   */\n      not\n        /* \"#utility.yul\":3719:3721   */\n      0x1f\n        /* \"#utility.yul\":3712:3717   */\n      dup4\n        /* \"#utility.yul\":3708:3722   */\n      add\n        /* \"#utility.yul\":3704:3732   */\n      and\n        /* \"#utility.yul\":3694:3732   */\n      swap1\n      pop\n        /* \"#utility.yul\":3636:3738   */\n      swap2\n      swap1\n      pop\n      jump\t// out\n        /* \"#utility.yul\":3744:3924   */\n    tag_56:\n        /* \"#utility.yul\":3792:3869   */\n      0x4e487b7100000000000000000000000000000000000000000000000000000000\n        /* \"#utility.yul\":3789:3790   */\n      0x00\n        /* \"#utility.yul\":3782:3870   */\n      mstore\n        /* \"#utility.yul\":3889:3893   */\n      0x41\n        /* \"#utility.yul\":3886:3887   */\n      0x04\n        /* \"#utility.yul\":3879:3894   */\n      mstore\n        /* \"#utility.yul\":3913:3917   */\n      0x24\n        /* \"#utility.yul\":3910:3911   */\n      0x00\n        /* \"#utility.yul\":3903:3918   */\n      revert\n        /* \"#utility.yul\":3930:4211   */\n    tag_163:\n        /* \"#utility.yul\":4013:4040   */\n      tag_232\n        /* \"#utility.yul\":4035:4039   */\n      dup3\n        /* \"#utility.yul\":4013:4040   */\n      tag_162\n      jump\t// in\n    tag_232:\n        /* \"#utility.yul\":4005:4011   */\n      dup2\n        /* \"#utility.yul\":4001:4041   */\n      add\n        /* \"#utility.yul\":4143:4149   */\n      dup2\n        /* \"#utility.yul\":4131:4141   */\n      dup2\n        /* \"#utility.yul\":4128:4150   */\n      lt\n        /* \"#utility.yul\":4107:4125   */\n      0xffffffffffffffff\n        /* \"#utility.yul\":4095:4105   */\n      dup3\n        /* \"#utility.yul\":4092:4126   */\n      gt\n        /* \"#utility.yul\":4089:4151   */\n      or\n        /* \"#utility.yul\":4086:4174   */\n      iszero\n      tag_233\n      jumpi\n        /* \"#utility.yul\":4154:4172   */\n      tag_234\n      tag_56\n      jump\t// in\n    tag_234:\n        /* \"#utility.yul\":4086:4174   */\n    tag_233:\n        /* \"#utility.yul\":4194:4204   */\n      dup1\n        /* \"#utility.yul\":4190:4192   */\n      0x40\n        /* \"#utility.yul\":4183:4205   */\n      mstore\n        /* \"#utility.yul\":3973:4211   */\n      pop\n        /* \"#utility.yul\":3930:4211   */\n      pop\n      pop\n      jump\t// out\n        /* \"#utility.yul\":4217:4346   */\n    tag_164:\n        /* \"#utility.yul\":4251:4257   */\n      0x00\n        /* \"#utility.yul\":4278:4298   */\n      tag_236\n      tag_148\n      jump\t// in\n    tag_236:\n        /* \"#utility.yul\":4268:4298   */\n      swap1\n      pop\n        /* \"#utility.yul\":4307:4340   */\n      tag_237\n        /* \"#utility.yul\":4335:4339   */\n      dup3\n        /* \"#utility.yul\":4327:4333   */\n      dup3\n        /* \"#utility.yul\":4307:4340   */\n      tag_163\n      jump\t// in\n    tag_237:\n        /* \"#utility.yul\":4217:4346   */\n      swap2\n      swap1\n      pop\n      jump\t// out\n        /* \"#utility.yul\":4352:4660   */\n    tag_165:\n        /* \"#utility.yul\":4414:4418   */\n      0x00\n        /* \"#utility.yul\":4504:4522   */\n      0xffffffffffffffff\n        /* \"#utility.yul\":4496:4502   */\n      dup3\n        /* \"#utility.yul\":4493:4523   */\n      gt\n        /* \"#utility.yul\":4490:4546   */\n      iszero\n      tag_239\n      jumpi\n        /* \"#utility.yul\":4526:4544   */\n      tag_240\n      tag_56\n      jump\t// in\n    tag_240:\n        /* \"#utility.yul\":4490:4546   */\n    tag_239:\n        /* \"#utility.yul\":4564:4593   */\n      tag_241\n        /* \"#utility.yul\":4586:4592   */\n      dup3\n        /* \"#utility.yul\":4564:4593   */\n      tag_162\n      jump\t// in\n    tag_241:\n        /* \"#utility.yul\":4556:4593   */\n      swap1\n      pop\n        /* \"#utility.yul\":4648:4652   */\n      0x20\n        /* \"#utility.yul\":4642:4646   */\n      dup2\n        /* \"#utility.yul\":4638:4653   */\n      add\n        /* \"#utility.yul\":4630:4653   */\n      swap1\n      pop\n        /* \"#utility.yul\":4352:4660   */\n      swap2\n      swap1\n      pop\n      jump\t// out\n        /* \"#utility.yul\":4666:4812   */\n    tag_166:\n        /* \"#utility.yul\":4763:4769   */\n      dup3\n        /* \"#utility.yul\":4758:4761   */\n      dup2\n        /* \"#utility.yul\":4753:4756   */\n      dup4\n        /* \"#utility.yul\":4740:4770   */\n      calldatacopy\n        /* \"#utility.yul\":4804:4805   */\n      0x00\n        /* \"#utility.yul\":4795:4801   */\n      dup4\n        /* \"#utility.yul\":4790:4793   */\n      dup4\n        /* \"#utility.yul\":4786:4802   */\n      add\n        /* \"#utility.yul\":4779:4806   */\n      mstore\n        /* \"#utility.yul\":4666:4812   */\n      pop\n      pop\n      pop\n      jump\t// out\n        /* \"#utility.yul\":4818:5243   */\n    tag_167:\n        /* \"#utility.yul\":4896:4901   */\n      0x00\n        /* \"#utility.yul\":4921:4987   */\n      tag_244\n        /* \"#utility.yul\":4937:4986   */\n      tag_245\n        /* \"#utility.yul\":4979:4985   */\n      dup5\n        /* \"#utility.yul\":4937:4986   */\n      tag_165\n      jump\t// in\n    tag_245:\n        /* \"#utility.yul\":4921:4987   */\n      tag_164\n      jump\t// in\n    tag_244:\n        /* \"#utility.yul\":4912:4987   */\n      swap1\n      pop\n        /* \"#utility.yul\":5010:5016   */\n      dup3\n        /* \"#utility.yul\":5003:5008   */\n      dup2\n        /* \"#utility.yul\":4996:5017   */\n      mstore\n        /* \"#utility.yul\":5048:5052   */\n      0x20\n        /* \"#utility.yul\":5041:5046   */\n      dup2\n        /* \"#utility.yul\":5037:5053   */\n      add\n        /* \"#utility.yul\":5086:5089   */\n      dup5\n        /* \"#utility.yul\":5077:5083   */\n      dup5\n        /* \"#utility.yul\":5072:5075   */\n      dup5\n        /* \"#utility.yul\":5068:5084   */\n      add\n        /* \"#utility.yul\":5065:5090   */\n      gt\n        /* \"#utility.yul\":5062:5174   */\n      iszero\n      tag_246\n      jumpi\n        /* \"#utility.yul\":5093:5172   */\n      tag_247\n      tag_161\n      jump\t// in\n    tag_247:\n        /* \"#utility.yul\":5062:5174   */\n    tag_246:\n        /* \"#utility.yul\":5183:5237   */\n      tag_248\n        /* \"#utility.yul\":5230:5236   */\n      dup5\n        /* \"#utility.yul\":5225:5228   */\n      dup3\n        /* \"#utility.yul\":5220:5223   */\n      dup6\n        /* \"#utility.yul\":5183:5237   */\n      tag_166\n      jump\t// in\n    tag_248:\n        /* \"#utility.yul\":4902:5243   */\n      pop\n        /* \"#utility.yul\":4818:5243   */\n      swap4\n      swap3\n      pop\n      pop\n      pop\n      jump\t// out\n        /* \"#utility.yul\":5263:5603   */\n    tag_168:\n        /* \"#utility.yul\":5319:5324   */\n      0x00\n        /* \"#utility.yul\":5368:5371   */\n      dup3\n        /* \"#utility.yul\":5361:5365   */\n      0x1f\n        /* \"#utility.yul\":5353:5359   */\n      dup4\n        /* \"#utility.yul\":5349:5366   */\n      add\n        /* \"#utility.yul\":5345:5372   */\n      slt\n        /* \"#utility.yul\":5335:5457   */\n      tag_250\n      jumpi\n        /* \"#utility.yul\":5376:5455   */\n      tag_251\n      tag_160\n      jump\t// in\n    tag_251:\n        /* \"#utility.yul\":5335:5457   */\n    tag_250:\n        /* \"#utility.yul\":5493:5499   */\n      dup2\n        /* \"#utility.yul\":5480:5500   */\n      calldataload\n        /* \"#utility.yul\":5518:5597   */\n      tag_252\n        /* \"#utility.yul\":5593:5596   */\n      dup5\n        /* \"#utility.yul\":5585:5591   */\n      dup3\n        /* \"#utility.yul\":5578:5582   */\n      0x20\n        /* \"#utility.yul\":5570:5576   */\n      dup7\n        /* \"#utility.yul\":5566:5583   */\n      add\n        /* \"#utility.yul\":5518:5597   */\n      tag_167\n      jump\t// in\n    tag_252:\n        /* \"#utility.yul\":5509:5597   */\n      swap2\n      pop\n        /* \"#utility.yul\":5325:5603   */\n      pop\n        /* \"#utility.yul\":5263:5603   */\n      swap3\n      swap2\n      pop\n      pop\n      jump\t// out\n        /* \"#utility.yul\":5609:6914   */\n    tag_24:\n        /* \"#utility.yul\":5725:5731   */\n      0x00\n        /* \"#utility.yul\":5733:5739   */\n      dup1\n        /* \"#utility.yul\":5741:5747   */\n      0x00\n        /* \"#utility.yul\":5749:5755   */\n      dup1\n        /* \"#utility.yul\":5798:5801   */\n      0x80\n        /* \"#utility.yul\":5786:5795   */\n      dup6\n        /* \"#utility.yul\":5777:5784   */\n      dup8\n        /* \"#utility.yul\":5773:5796   */\n      sub\n        /* \"#utility.yul\":5769:5802   */\n      slt\n        /* \"#utility.yul\":5766:5886   */\n      iszero\n      tag_254\n      jumpi\n        /* \"#utility.yul\":5805:5884   */\n      tag_255\n      tag_149\n      jump\t// in\n    tag_255:\n        /* \"#utility.yul\":5766:5886   */\n    tag_254:\n        /* \"#utility.yul\":5953:5954   */\n      0x00\n        /* \"#utility.yul\":5942:5951   */\n      dup6\n        /* \"#utility.yul\":5938:5955   */\n      add\n        /* \"#utility.yul\":5925:5956   */\n      calldataload\n        /* \"#utility.yul\":5983:6001   */\n      0xffffffffffffffff\n        /* \"#utility.yul\":5975:5981   */\n      dup2\n        /* \"#utility.yul\":5972:6002   */\n      gt\n        /* \"#utility.yul\":5969:6086   */\n      iszero\n      tag_256\n      jumpi\n        /* \"#utility.yul\":6005:6084   */\n      tag_257\n      tag_150\n      jump\t// in\n    tag_257:\n        /* \"#utility.yul\":5969:6086   */\n    tag_256:\n        /* \"#utility.yul\":6110:6173   */\n      tag_258\n        /* \"#utility.yul\":6165:6172   */\n      dup8\n        /* \"#utility.yul\":6156:6162   */\n      dup3\n        /* \"#utility.yul\":6145:6154   */\n      dup9\n        /* \"#utility.yul\":6141:6163   */\n      add\n        /* \"#utility.yul\":6110:6173   */\n      tag_168\n      jump\t// in\n    tag_258:\n        /* \"#utility.yul\":6100:6173   */\n      swap5\n      pop\n        /* \"#utility.yul\":5896:6183   */\n      pop\n        /* \"#utility.yul\":6222:6224   */\n      0x20\n        /* \"#utility.yul\":6248:6301   */\n      tag_259\n        /* \"#utility.yul\":6293:6300   */\n      dup8\n        /* \"#utility.yul\":6284:6290   */\n      dup3\n        /* \"#utility.yul\":6273:6282   */\n      dup9\n        /* \"#utility.yul\":6269:6291   */\n      add\n        /* \"#utility.yul\":6248:6301   */\n      tag_152\n      jump\t// in\n    tag_259:\n        /* \"#utility.yul\":6238:6301   */\n      swap4\n      pop\n        /* \"#utility.yul\":6193:6311   */\n      pop\n        /* \"#utility.yul\":6378:6380   */\n      0x40\n        /* \"#utility.yul\":6367:6376   */\n      dup6\n        /* \"#utility.yul\":6363:6381   */\n      add\n        /* \"#utility.yul\":6350:6382   */\n      calldataload\n        /* \"#utility.yul\":6409:6427   */\n      0xffffffffffffffff\n        /* \"#utility.yul\":6401:6407   */\n      dup2\n        /* \"#utility.yul\":6398:6428   */\n      gt\n        /* \"#utility.yul\":6395:6512   */\n      iszero\n      tag_260\n      jumpi\n        /* \"#utility.yul\":6431:6510   */\n      tag_261\n      tag_150\n      jump\t// in\n    tag_261:\n        /* \"#utility.yul\":6395:6512   */\n    tag_260:\n        /* \"#utility.yul\":6536:6599   */\n      tag_262\n        /* \"#utility.yul\":6591:6598   */\n      dup8\n        /* \"#utility.yul\":6582:6588   */\n      dup3\n        /* \"#utility.yul\":6571:6580   */\n      dup9\n        /* \"#utility.yul\":6567:6589   */\n      add\n        /* \"#utility.yul\":6536:6599   */\n      tag_168\n      jump\t// in\n    tag_262:\n        /* \"#utility.yul\":6526:6599   */\n      swap3\n      pop\n        /* \"#utility.yul\":6321:6609   */\n      pop\n        /* \"#utility.yul\":6676:6678   */\n      0x60\n        /* \"#utility.yul\":6665:6674   */\n      dup6\n        /* \"#utility.yul\":6661:6679   */\n      add\n        /* \"#utility.yul\":6648:6680   */\n      calldataload\n        /* \"#utility.yul\":6707:6725   */\n      0xffffffffffffffff\n        /* \"#utility.yul\":6699:6705   */\n      dup2\n        /* \"#utility.yul\":6696:6726   */\n      gt\n        /* \"#utility.yul\":6693:6810   */\n      iszero\n      tag_263\n      jumpi\n        /* \"#utility.yul\":6729:6808   */\n      tag_264\n      tag_150\n      jump\t// in\n    tag_264:\n        /* \"#utility.yul\":6693:6810   */\n    tag_263:\n        /* \"#utility.yul\":6834:6897   */\n      tag_265\n        /* \"#utility.yul\":6889:6896   */\n      dup8\n        /* \"#utility.yul\":6880:6886   */\n      dup3\n        /* \"#utility.yul\":6869:6878   */\n      dup9\n        /* \"#utility.yul\":6865:6887   */\n      add\n        /* \"#utility.yul\":6834:6897   */\n      tag_168\n      jump\t// in\n    tag_265:\n        /* \"#utility.yul\":6824:6897   */\n      swap2\n      pop\n        /* \"#utility.yul\":6619:6907   */\n      pop\n        /* \"#utility.yul\":5609:6914   */\n      swap3\n      swap6\n      swap2\n      swap5\n      pop\n      swap3\n      pop\n      jump\t// out\n        /* \"#utility.yul\":6920:7019   */\n    tag_169:\n        /* \"#utility.yul\":6972:6978   */\n      0x00\n        /* \"#utility.yul\":7006:7011   */\n      dup2\n        /* \"#utility.yul\":7000:7012   */\n      mload\n        /* \"#utility.yul\":6990:7012   */\n      swap1\n      pop\n        /* \"#utility.yul\":6920:7019   */\n      swap2\n      swap1\n      pop\n      jump\t// out\n        /* \"#utility.yul\":7025:7194   */\n    tag_170:\n        /* \"#utility.yul\":7109:7120   */\n      0x00\n        /* \"#utility.yul\":7143:7149   */\n      dup3\n        /* \"#utility.yul\":7138:7141   */\n      dup3\n        /* \"#utility.yul\":7131:7150   */\n      mstore\n        /* \"#utility.yul\":7183:7187   */\n      0x20\n        /* \"#utility.yul\":7178:7181   */\n      dup3\n        /* \"#utility.yul\":7174:7188   */\n      add\n        /* \"#utility.yul\":7159:7188   */\n      swap1\n      pop\n        /* \"#utility.yul\":7025:7194   */\n      swap3\n      swap2\n      pop\n      pop\n      jump\t// out\n        /* \"#utility.yul\":7200:7446   */\n    tag_171:\n        /* \"#utility.yul\":7281:7282   */\n      0x00\n        /* \"#utility.yul\":7291:7404   */\n    tag_269:\n        /* \"#utility.yul\":7305:7311   */\n      dup4\n        /* \"#utility.yul\":7302:7303   */\n      dup2\n        /* \"#utility.yul\":7299:7312   */\n      lt\n        /* \"#utility.yul\":7291:7404   */\n      iszero\n      tag_271\n      jumpi\n        /* \"#utility.yul\":7390:7391   */\n      dup1\n        /* \"#utility.yul\":7385:7388   */\n      dup3\n        /* \"#utility.yul\":7381:7392   */\n      add\n        /* \"#utility.yul\":7375:7393   */\n      mload\n        /* \"#utility.yul\":7371:7372   */\n      dup2\n        /* \"#utility.yul\":7366:7369   */\n      dup5\n        /* \"#utility.yul\":7362:7373   */\n      add\n        /* \"#utility.yul\":7355:7394   */\n      mstore\n        /* \"#utility.yul\":7327:7329   */\n      0x20\n        /* \"#utility.yul\":7324:7325   */\n      dup2\n        /* \"#utility.yul\":7320:7330   */\n      add\n        /* \"#utility.yul\":7315:7330   */\n      swap1\n      pop\n        /* \"#utility.yul\":7291:7404   */\n      jump(tag_269)\n    tag_271:\n        /* \"#utility.yul\":7438:7439   */\n      0x00\n        /* \"#utility.yul\":7429:7435   */\n      dup5\n        /* \"#utility.yul\":7424:7427   */\n      dup5\n        /* \"#utility.yul\":7420:7436   */\n      add\n        /* \"#utility.yul\":7413:7440   */\n      mstore\n        /* \"#utility.yul\":7262:7446   */\n      pop\n        /* \"#utility.yul\":7200:7446   */\n      pop\n      pop\n      pop\n      jump\t// out\n        /* \"#utility.yul\":7452:7829   */\n    tag_172:\n        /* \"#utility.yul\":7540:7543   */\n      0x00\n        /* \"#utility.yul\":7568:7607   */\n      tag_273\n        /* \"#utility.yul\":7601:7606   */\n      dup3\n        /* \"#utility.yul\":7568:7607   */\n      tag_169\n      jump\t// in\n    tag_273:\n        /* \"#utility.yul\":7623:7694   */\n      tag_274\n        /* \"#utility.yul\":7687:7693   */\n      dup2\n        /* \"#utility.yul\":7682:7685   */\n      dup6\n        /* \"#utility.yul\":7623:7694   */\n      tag_170\n      jump\t// in\n    tag_274:\n        /* \"#utility.yul\":7616:7694   */\n      swap4\n      pop\n        /* \"#utility.yul\":7703:7768   */\n      tag_275\n        /* \"#utility.yul\":7761:7767   */\n      dup2\n        /* \"#utility.yul\":7756:7759   */\n      dup6\n        /* \"#utility.yul\":7749:7753   */\n      0x20\n        /* \"#utility.yul\":7742:7747   */\n      dup7\n        /* \"#utility.yul\":7738:7754   */\n      add\n        /* \"#utility.yul\":7703:7768   */\n      tag_171\n      jump\t// in\n    tag_275:\n        /* \"#utility.yul\":7793:7822   */\n      tag_276\n        /* \"#utility.yul\":7815:7821   */\n      dup2\n        /* \"#utility.yul\":7793:7822   */\n      tag_162\n      jump\t// in\n    tag_276:\n        /* \"#utility.yul\":7788:7791   */\n      dup5\n        /* \"#utility.yul\":7784:7823   */\n      add\n        /* \"#utility.yul\":7777:7823   */\n      swap2\n      pop\n        /* \"#utility.yul\":7544:7829   */\n      pop\n        /* \"#utility.yul\":7452:7829   */\n      swap3\n      swap2\n      pop\n      pop\n      jump\t// out\n        /* \"#utility.yul\":7835:8954   */\n    tag_30:\n        /* \"#utility.yul\":8140:8144   */\n      0x00\n        /* \"#utility.yul\":8178:8181   */\n      0xa0\n        /* \"#utility.yul\":8167:8176   */\n      dup3\n        /* \"#utility.yul\":8163:8182   */\n      add\n        /* \"#utility.yul\":8155:8182   */\n      swap1\n      pop\n        /* \"#utility.yul\":8228:8237   */\n      dup2\n        /* \"#utility.yul\":8222:8226   */\n      dup2\n        /* \"#utility.yul\":8218:8238   */\n      sub\n        /* \"#utility.yul\":8214:8215   */\n      0x00\n        /* \"#utility.yul\":8203:8212   */\n      dup4\n        /* \"#utility.yul\":8199:8216   */\n      add\n        /* \"#utility.yul\":8192:8239   */\n      mstore\n        /* \"#utility.yul\":8256:8334   */\n      tag_278\n        /* \"#utility.yul\":8329:8333   */\n      dup2\n        /* \"#utility.yul\":8320:8326   */\n      dup9\n        /* \"#utility.yul\":8256:8334   */\n      tag_172\n      jump\t// in\n    tag_278:\n        /* \"#utility.yul\":8248:8334   */\n      swap1\n      pop\n        /* \"#utility.yul\":8381:8390   */\n      dup2\n        /* \"#utility.yul\":8375:8379   */\n      dup2\n        /* \"#utility.yul\":8371:8391   */\n      sub\n        /* \"#utility.yul\":8366:8368   */\n      0x20\n        /* \"#utility.yul\":8355:8364   */\n      dup4\n        /* \"#utility.yul\":8351:8369   */\n      add\n        /* \"#utility.yul\":8344:8392   */\n      mstore\n        /* \"#utility.yul\":8409:8487   */\n      tag_279\n        /* \"#utility.yul\":8482:8486   */\n      dup2\n        /* \"#utility.yul\":8473:8479   */\n      dup8\n        /* \"#utility.yul\":8409:8487   */\n      tag_172\n      jump\t// in\n    tag_279:\n        /* \"#utility.yul\":8401:8487   */\n      swap1\n      pop\n        /* \"#utility.yul\":8534:8543   */\n      dup2\n        /* \"#utility.yul\":8528:8532   */\n      dup2\n        /* \"#utility.yul\":8524:8544   */\n      sub\n        /* \"#utility.yul\":8519:8521   */\n      0x40\n        /* \"#utility.yul\":8508:8517   */\n      dup4\n        /* \"#utility.yul\":8504:8522   */\n      add\n        /* \"#utility.yul\":8497:8545   */\n      mstore\n        /* \"#utility.yul\":8562:8640   */\n      tag_280\n        /* \"#utility.yul\":8635:8639   */\n      dup2\n        /* \"#utility.yul\":8626:8632   */\n      dup7\n        /* \"#utility.yul\":8562:8640   */\n      tag_172\n      jump\t// in\n    tag_280:\n        /* \"#utility.yul\":8554:8640   */\n      swap1\n      pop\n        /* \"#utility.yul\":8687:8696   */\n      dup2\n        /* \"#utility.yul\":8681:8685   */\n      dup2\n        /* \"#utility.yul\":8677:8697   */\n      sub\n        /* \"#utility.yul\":8672:8674   */\n      0x60\n        /* \"#utility.yul\":8661:8670   */\n      dup4\n        /* \"#utility.yul\":8657:8675   */\n      add\n        /* \"#utility.yul\":8650:8698   */\n      mstore\n        /* \"#utility.yul\":8715:8793   */\n      tag_281\n        /* \"#utility.yul\":8788:8792   */\n      dup2\n        /* \"#utility.yul\":8779:8785   */\n      dup6\n        /* \"#utility.yul\":8715:8793   */\n      tag_172\n      jump\t// in\n    tag_281:\n        /* \"#utility.yul\":8707:8793   */\n      swap1\n      pop\n        /* \"#utility.yul\":8841:8850   */\n      dup2\n        /* \"#utility.yul\":8835:8839   */\n      dup2\n        /* \"#utility.yul\":8831:8851   */\n      sub\n        /* \"#utility.yul\":8825:8828   */\n      0x80\n        /* \"#utility.yul\":8814:8823   */\n      dup4\n        /* \"#utility.yul\":8810:8829   */\n      add\n        /* \"#utility.yul\":8803:8852   */\n      mstore\n        /* \"#utility.yul\":8869:8947   */\n      tag_282\n        /* \"#utility.yul\":8942:8946   */\n      dup2\n        /* \"#utility.yul\":8933:8939   */\n      dup5\n        /* \"#utility.yul\":8869:8947   */\n      tag_172\n      jump\t// in\n    tag_282:\n        /* \"#utility.yul\":8861:8947   */\n      swap1\n      pop\n        /* \"#utility.yul\":7835:8954   */\n      swap7\n      swap6\n      pop\n      pop\n      pop\n      pop\n      pop\n      pop\n      jump\t// out\n        /* \"#utility.yul\":8960:10771   */\n    tag_33:\n        /* \"#utility.yul\":9105:9111   */\n      0x00\n        /* \"#utility.yul\":9113:9119   */\n      dup1\n        /* \"#utility.yul\":9121:9127   */\n      0x00\n        /* \"#utility.yul\":9129:9135   */\n      dup1\n        /* \"#utility.yul\":9137:9143   */\n      0x00\n        /* \"#utility.yul\":9186:9189   */\n      0xa0\n        /* \"#utility.yul\":9174:9183   */\n      dup7\n        /* \"#utility.yul\":9165:9172   */\n      dup9\n        /* \"#utility.yul\":9161:9184   */\n      sub\n        /* \"#utility.yul\":9157:9190   */\n      slt\n        /* \"#utility.yul\":9154:9274   */\n      iszero\n      tag_284\n      jumpi\n        /* \"#utility.yul\":9193:9272   */\n      tag_285\n      tag_149\n      jump\t// in\n    tag_285:\n        /* \"#utility.yul\":9154:9274   */\n    tag_284:\n        /* \"#utility.yul\":9341:9342   */\n      0x00\n        /* \"#utility.yul\":9330:9339   */\n      dup7\n        /* \"#utility.yul\":9326:9343   */\n      add\n        /* \"#utility.yul\":9313:9344   */\n      calldataload\n        /* \"#utility.yul\":9371:9389   */\n      0xffffffffffffffff\n        /* \"#utility.yul\":9363:9369   */\n      dup2\n        /* \"#utility.yul\":9360:9390   */\n      gt\n        /* \"#utility.yul\":9357:9474   */\n      iszero\n      tag_286\n      jumpi\n        /* \"#utility.yul\":9393:9472   */\n      tag_287\n      tag_150\n      jump\t// in\n    tag_287:\n        /* \"#utility.yul\":9357:9474   */\n    tag_286:\n        /* \"#utility.yul\":9498:9561   */\n      tag_288\n        /* \"#utility.yul\":9553:9560   */\n      dup9\n        /* \"#utility.yul\":9544:9550   */\n      dup3\n        /* \"#utility.yul\":9533:9542   */\n      dup10\n        /* \"#utility.yul\":9529:9551   */\n      add\n        /* \"#utility.yul\":9498:9561   */\n      tag_168\n      jump\t// in\n    tag_288:\n        /* \"#utility.yul\":9488:9561   */\n      swap6\n      pop\n        /* \"#utility.yul\":9284:9571   */\n      pop\n        /* \"#utility.yul\":9638:9640   */\n      0x20\n        /* \"#utility.yul\":9627:9636   */\n      dup7\n        /* \"#utility.yul\":9623:9641   */\n      add\n        /* \"#utility.yul\":9610:9642   */\n      calldataload\n        /* \"#utility.yul\":9669:9687   */\n      0xffffffffffffffff\n        /* \"#utility.yul\":9661:9667   */\n      dup2\n        /* \"#utility.yul\":9658:9688   */\n      gt\n        /* \"#utility.yul\":9655:9772   */\n      iszero\n      tag_289\n      jumpi\n        /* \"#utility.yul\":9691:9770   */\n      tag_290\n      tag_150\n      jump\t// in\n    tag_290:\n        /* \"#utility.yul\":9655:9772   */\n    tag_289:\n        /* \"#utility.yul\":9796:9859   */\n      tag_291\n        /* \"#utility.yul\":9851:9858   */\n      dup9\n        /* \"#utility.yul\":9842:9848   */\n      dup3\n        /* \"#utility.yul\":9831:9840   */\n      dup10\n        /* \"#utility.yul\":9827:9849   */\n      add\n        /* \"#utility.yul\":9796:9859   */\n      tag_168\n      jump\t// in\n    tag_291:\n        /* \"#utility.yul\":9786:9859   */\n      swap5\n      pop\n        /* \"#utility.yul\":9581:9869   */\n      pop\n        /* \"#utility.yul\":9936:9938   */\n      0x40\n        /* \"#utility.yul\":9925:9934   */\n      dup7\n        /* \"#utility.yul\":9921:9939   */\n      add\n        /* \"#utility.yul\":9908:9940   */\n      calldataload\n        /* \"#utility.yul\":9967:9985   */\n      0xffffffffffffffff\n        /* \"#utility.yul\":9959:9965   */\n      dup2\n        /* \"#utility.yul\":9956:9986   */\n      gt\n        /* \"#utility.yul\":9953:10070   */\n      iszero\n      tag_292\n      jumpi\n        /* \"#utility.yul\":9989:10068   */\n      tag_293\n      tag_150\n      jump\t// in\n    tag_293:\n        /* \"#utility.yul\":9953:10070   */\n    tag_292:\n        /* \"#utility.yul\":10094:10157   */\n      tag_294\n        /* \"#utility.yul\":10149:10156   */\n      dup9\n        /* \"#utility.yul\":10140:10146   */\n      dup3\n        /* \"#utility.yul\":10129:10138   */\n      dup10\n        /* \"#utility.yul\":10125:10147   */\n      add\n        /* \"#utility.yul\":10094:10157   */\n      tag_168\n      jump\t// in\n    tag_294:\n        /* \"#utility.yul\":10084:10157   */\n      swap4\n      pop\n        /* \"#utility.yul\":9879:10167   */\n      pop\n        /* \"#utility.yul\":10234:10236   */\n      0x60\n        /* \"#utility.yul\":10223:10232   */\n      dup7\n        /* \"#utility.yul\":10219:10237   */\n      add\n        /* \"#utility.yul\":10206:10238   */\n      calldataload\n        /* \"#utility.yul\":10265:10283   */\n      0xffffffffffffffff\n        /* \"#utility.yul\":10257:10263   */\n      dup2\n        /* \"#utility.yul\":10254:10284   */\n      gt\n        /* \"#utility.yul\":10251:10368   */\n      iszero\n      tag_295\n      jumpi\n        /* \"#utility.yul\":10287:10366   */\n      tag_296\n      tag_150\n      jump\t// in\n    tag_296:\n        /* \"#utility.yul\":10251:10368   */\n    tag_295:\n        /* \"#utility.yul\":10392:10455   */\n      tag_297\n        /* \"#utility.yul\":10447:10454   */\n      dup9\n        /* \"#utility.yul\":10438:10444   */\n      dup3\n        /* \"#utility.yul\":10427:10436   */\n      dup10\n        /* \"#utility.yul\":10423:10445   */\n      add\n        /* \"#utility.yul\":10392:10455   */\n      tag_168\n      jump\t// in\n    tag_297:\n        /* \"#utility.yul\":10382:10455   */\n      swap3\n      pop\n        /* \"#utility.yul\":10177:10465   */\n      pop\n        /* \"#utility.yul\":10532:10535   */\n      0x80\n        /* \"#utility.yul\":10521:10530   */\n      dup7\n        /* \"#utility.yul\":10517:10536   */\n      add\n        /* \"#utility.yul\":10504:10537   */\n      calldataload\n        /* \"#utility.yul\":10564:10582   */\n      0xffffffffffffffff\n        /* \"#utility.yul\":10556:10562   */\n      dup2\n        /* \"#utility.yul\":10553:10583   */\n      gt\n        /* \"#utility.yul\":10550:10667   */\n      iszero\n      tag_298\n      jumpi\n        /* \"#utility.yul\":10586:10665   */\n      tag_299\n      tag_150\n      jump\t// in\n    tag_299:\n        /* \"#utility.yul\":10550:10667   */\n    tag_298:\n        /* \"#utility.yul\":10691:10754   */\n      tag_300\n        /* \"#utility.yul\":10746:10753   */\n      dup9\n        /* \"#utility.yul\":10737:10743   */\n      dup3\n        /* \"#utility.yul\":10726:10735   */\n      dup10\n        /* \"#utility.yul\":10722:10744   */\n      add\n        /* \"#utility.yul\":10691:10754   */\n      tag_168\n      jump\t// in\n    tag_300:\n        /* \"#utility.yul\":10681:10754   */\n      swap2\n      pop\n        /* \"#utility.yul\":10475:10764   */\n      pop\n        /* \"#utility.yul\":8960:10771   */\n      swap3\n      swap6\n      pop\n      swap3\n      swap6\n      swap1\n      swap4\n      pop\n      jump\t// out\n        /* \"#utility.yul\":10777:11714   */\n    tag_39:\n        /* \"#utility.yul\":11042:11046   */\n      0x00\n        /* \"#utility.yul\":11080:11083   */\n      0xa0\n        /* \"#utility.yul\":11069:11078   */\n      dup3\n        /* \"#utility.yul\":11065:11084   */\n      add\n        /* \"#utility.yul\":11057:11084   */\n      swap1\n      pop\n        /* \"#utility.yul\":11094:11165   */\n      tag_302\n        /* \"#utility.yul\":11162:11163   */\n      0x00\n        /* \"#utility.yul\":11151:11160   */\n      dup4\n        /* \"#utility.yul\":11147:11164   */\n      add\n        /* \"#utility.yul\":11138:11144   */\n      dup9\n        /* \"#utility.yul\":11094:11165   */\n      tag_147\n      jump\t// in\n    tag_302:\n        /* \"#utility.yul\":11212:11221   */\n      dup2\n        /* \"#utility.yul\":11206:11210   */\n      dup2\n        /* \"#utility.yul\":11202:11222   */\n      sub\n        /* \"#utility.yul\":11197:11199   */\n      0x20\n        /* \"#utility.yul\":11186:11195   */\n      dup4\n        /* \"#utility.yul\":11182:11200   */\n      add\n        /* \"#utility.yul\":11175:11223   */\n      mstore\n        /* \"#utility.yul\":11240:11318   */\n      tag_303\n        /* \"#utility.yul\":11313:11317   */\n      dup2\n        /* \"#utility.yul\":11304:11310   */\n      dup8\n        /* \"#utility.yul\":11240:11318   */\n      tag_172\n      jump\t// in\n    tag_303:\n        /* \"#utility.yul\":11232:11318   */\n      swap1\n      pop\n        /* \"#utility.yul\":11328:11400   */\n      tag_304\n        /* \"#utility.yul\":11396:11398   */\n      0x40\n        /* \"#utility.yul\":11385:11394   */\n      dup4\n        /* \"#utility.yul\":11381:11399   */\n      add\n        /* \"#utility.yul\":11372:11378   */\n      dup7\n        /* \"#utility.yul\":11328:11400   */\n      tag_147\n      jump\t// in\n    tag_304:\n        /* \"#utility.yul\":11447:11456   */\n      dup2\n        /* \"#utility.yul\":11441:11445   */\n      dup2\n        /* \"#utility.yul\":11437:11457   */\n      sub\n        /* \"#utility.yul\":11432:11434   */\n      0x60\n        /* \"#utility.yul\":11421:11430   */\n      dup4\n        /* \"#utility.yul\":11417:11435   */\n      add\n        /* \"#utility.yul\":11410:11458   */\n      mstore\n        /* \"#utility.yul\":11475:11553   */\n      tag_305\n        /* \"#utility.yul\":11548:11552   */\n      dup2\n        /* \"#utility.yul\":11539:11545   */\n      dup6\n        /* \"#utility.yul\":11475:11553   */\n      tag_172\n      jump\t// in\n    tag_305:\n        /* \"#utility.yul\":11467:11553   */\n      swap1\n      pop\n        /* \"#utility.yul\":11601:11610   */\n      dup2\n        /* \"#utility.yul\":11595:11599   */\n      dup2\n        /* \"#utility.yul\":11591:11611   */\n      sub\n        /* \"#utility.yul\":11585:11588   */\n      0x80\n        /* \"#utility.yul\":11574:11583   */\n      dup4\n        /* \"#utility.yul\":11570:11589   */\n      add\n        /* \"#utility.yul\":11563:11612   */\n      mstore\n        /* \"#utility.yul\":11629:11707   */\n      tag_306\n        /* \"#utility.yul\":11702:11706   */\n      dup2\n        /* \"#utility.yul\":11693:11699   */\n      dup5\n        /* \"#utility.yul\":11629:11707   */\n      tag_172\n      jump\t// in\n    tag_306:\n        /* \"#utility.yul\":11621:11707   */\n      swap1\n      pop\n        /* \"#utility.yul\":10777:11714   */\n      swap7\n      swap6\n      pop\n      pop\n      pop\n      pop\n      pop\n      pop\n      jump\t// out\n        /* \"#utility.yul\":11720:12950   */\n    tag_47:\n        /* \"#utility.yul\":12053:12057   */\n      0x00\n        /* \"#utility.yul\":12091:12094   */\n      0xc0\n        /* \"#utility.yul\":12080:12089   */\n      dup3\n        /* \"#utility.yul\":12076:12095   */\n      add\n        /* \"#utility.yul\":12068:12095   */\n      swap1\n      pop\n        /* \"#utility.yul\":12105:12176   */\n      tag_308\n        /* \"#utility.yul\":12173:12174   */\n      0x00\n        /* \"#utility.yul\":12162:12171   */\n      dup4\n        /* \"#utility.yul\":12158:12175   */\n      add\n        /* \"#utility.yul\":12149:12155   */\n      dup10\n        /* \"#utility.yul\":12105:12176   */\n      tag_147\n      jump\t// in\n    tag_308:\n        /* \"#utility.yul\":12223:12232   */\n      dup2\n        /* \"#utility.yul\":12217:12221   */\n      dup2\n        /* \"#utility.yul\":12213:12233   */\n      sub\n        /* \"#utility.yul\":12208:12210   */\n      0x20\n        /* \"#utility.yul\":12197:12206   */\n      dup4\n        /* \"#utility.yul\":12193:12211   */\n      add\n        /* \"#utility.yul\":12186:12234   */\n      mstore\n        /* \"#utility.yul\":12251:12329   */\n      tag_309\n        /* \"#utility.yul\":12324:12328   */\n      dup2\n        /* \"#utility.yul\":12315:12321   */\n      dup9\n        /* \"#utility.yul\":12251:12329   */\n      tag_172\n      jump\t// in\n    tag_309:\n        /* \"#utility.yul\":12243:12329   */\n      swap1\n      pop\n        /* \"#utility.yul\":12376:12385   */\n      dup2\n        /* \"#utility.yul\":12370:12374   */\n      dup2\n        /* \"#utility.yul\":12366:12386   */\n      sub\n        /* \"#utility.yul\":12361:12363   */\n      0x40\n        /* \"#utility.yul\":12350:12359   */\n      dup4\n        /* \"#utility.yul\":12346:12364   */\n      add\n        /* \"#utility.yul\":12339:12387   */\n      mstore\n        /* \"#utility.yul\":12404:12482   */\n      tag_310\n        /* \"#utility.yul\":12477:12481   */\n      dup2\n        /* \"#utility.yul\":12468:12474   */\n      dup8\n        /* \"#utility.yul\":12404:12482   */\n      tag_172\n      jump\t// in\n    tag_310:\n        /* \"#utility.yul\":12396:12482   */\n      swap1\n      pop\n        /* \"#utility.yul\":12529:12538   */\n      dup2\n        /* \"#utility.yul\":12523:12527   */\n      dup2\n        /* \"#utility.yul\":12519:12539   */\n      sub\n        /* \"#utility.yul\":12514:12516   */\n      0x60\n        /* \"#utility.yul\":12503:12512   */\n      dup4\n        /* \"#utility.yul\":12499:12517   */\n      add\n        /* \"#utility.yul\":12492:12540   */\n      mstore\n        /* \"#utility.yul\":12557:12635   */\n      tag_311\n        /* \"#utility.yul\":12630:12634   */\n      dup2\n        /* \"#utility.yul\":12621:12627   */\n      dup7\n        /* \"#utility.yul\":12557:12635   */\n      tag_172\n      jump\t// in\n    tag_311:\n        /* \"#utility.yul\":12549:12635   */\n      swap1\n      pop\n        /* \"#utility.yul\":12683:12692   */\n      dup2\n        /* \"#utility.yul\":12677:12681   */\n      dup2\n        /* \"#utility.yul\":12673:12693   */\n      sub\n        /* \"#utility.yul\":12667:12670   */\n      0x80\n        /* \"#utility.yul\":12656:12665   */\n      dup4\n        /* \"#utility.yul\":12652:12671   */\n      add\n        /* \"#utility.yul\":12645:12694   */\n      mstore\n        /* \"#utility.yul\":12711:12789   */\n      tag_312\n        /* \"#utility.yul\":12784:12788   */\n      dup2\n        /* \"#utility.yul\":12775:12781   */\n      dup6\n        /* \"#utility.yul\":12711:12789   */\n      tag_172\n      jump\t// in\n    tag_312:\n        /* \"#utility.yul\":12703:12789   */\n      swap1\n      pop\n        /* \"#utility.yul\":12837:12846   */\n      dup2\n        /* \"#utility.yul\":12831:12835   */\n      dup2\n        /* \"#utility.yul\":12827:12847   */\n      sub\n        /* \"#utility.yul\":12821:12824   */\n      0xa0\n        /* \"#utility.yul\":12810:12819   */\n      dup4\n        /* \"#utility.yul\":12806:12825   */\n      add\n        /* \"#utility.yul\":12799:12848   */\n      mstore\n        /* \"#utility.yul\":12865:12943   */\n      tag_313\n        /* \"#utility.yul\":12938:12942   */\n      dup2\n        /* \"#utility.yul\":12929:12935   */\n      dup5\n        /* \"#utility.yul\":12865:12943   */\n      tag_172\n      jump\t// in\n    tag_313:\n        /* \"#utility.yul\":12857:12943   */\n      swap1\n      pop\n        /* \"#utility.yul\":11720:12950   */\n      swap8\n      swap7\n      pop\n      pop\n      pop\n      pop\n      pop\n      pop\n      pop\n      jump\t// out\n        /* \"#utility.yul\":12956:13136   */\n    tag_173:\n        /* \"#utility.yul\":13004:13081   */\n      0x4e487b7100000000000000000000000000000000000000000000000000000000\n        /* \"#utility.yul\":13001:13002   */\n      0x00\n        /* \"#utility.yul\":12994:13082   */\n      mstore\n        /* \"#utility.yul\":13101:13105   */\n      0x11\n        /* \"#utility.yul\":13098:13099   */\n      0x04\n        /* \"#utility.yul\":13091:13106   */\n      mstore\n        /* \"#utility.yul\":13125:13129   */\n      0x24\n        /* \"#utility.yul\":13122:13123   */\n      0x00\n        /* \"#utility.yul\":13115:13130   */\n      revert\n        /* \"#utility.yul\":13142:13375   */\n    tag_53:\n        /* \"#utility.yul\":13181:13184   */\n      0x00\n        /* \"#utility.yul\":13204:13228   */\n      tag_316\n        /* \"#utility.yul\":13222:13227   */\n      dup3\n        /* \"#utility.yul\":13204:13228   */\n      tag_146\n      jump\t// in\n    tag_316:\n        /* \"#utility.yul\":13195:13228   */\n      swap2\n      pop\n        /* \"#utility.yul\":13250:13316   */\n      0xffffffffffffffffffffffffffffffffffffffffffffffffffffffffffffffff\n        /* \"#utility.yul\":13243:13248   */\n      dup3\n        /* \"#utility.yul\":13240:13317   */\n      sub\n        /* \"#utility.yul\":13237:13340   */\n      tag_317\n      jumpi\n        /* \"#utility.yul\":13320:13338   */\n      tag_318\n      tag_173\n      jump\t// in\n    tag_318:\n        /* \"#utility.yul\":13237:13340   */\n    tag_317:\n        /* \"#utility.yul\":13367:13368   */\n      0x01\n        /* \"#utility.yul\":13360:13365   */\n      dup3\n        /* \"#utility.yul\":13356:13369   */\n      add\n        /* \"#utility.yul\":13349:13369   */\n      swap1\n      pop\n        /* \"#utility.yul\":13142:13375   */\n      swap2\n      swap1\n      pop\n      jump\t// out\n        /* \"#utility.yul\":13381:13561   */\n    tag_174:\n        /* \"#utility.yul\":13429:13506   */\n      0x4e487b7100000000000000000000000000000000000000000000000000000000\n        /* \"#utility.yul\":13426:13427   */\n      0x00\n        /* \"#utility.yul\":13419:13507   */\n      mstore\n        /* \"#utility.yul\":13526:13530   */\n      0x22\n        /* \"#utility.yul\":13523:13524   */\n      0x04\n        /* \"#utility.yul\":13516:13531   */\n      mstore\n        /* \"#utility.yul\":13550:13554   */\n      0x24\n        /* \"#utility.yul\":13547:13548   */\n      0x00\n        /* \"#utility.yul\":13540:13555   */\n      revert\n        /* \"#utility.yul\":13567:13887   */\n    tag_66:\n        /* \"#utility.yul\":13611:13617   */\n      0x00\n        /* \"#utility.yul\":13648:13649   */\n      0x02\n        /* \"#utility.yul\":13642:13646   */\n      dup3\n        /* \"#utility.yul\":13638:13650   */\n      div\n        /* \"#utility.yul\":13628:13650   */\n      swap1\n      pop\n        /* \"#utility.yul\":13695:13696   */\n      0x01\n        /* \"#utility.yul\":13689:13693   */\n      dup3\n        /* \"#utility.yul\":13685:13697   */\n      and\n        /* \"#utility.yul\":13716:13734   */\n      dup1\n        /* \"#utility.yul\":13706:13787   */\n      tag_321\n      jumpi\n        /* \"#utility.yul\":13772:13776   */\n      0x7f\n        /* \"#utility.yul\":13764:13770   */\n      dup3\n        /* \"#utility.yul\":13760:13777   */\n      and\n        /* \"#utility.yul\":13750:13777   */\n      swap2\n      pop\n        /* \"#utility.yul\":13706:13787   */\n    tag_321:\n        /* \"#utility.yul\":13834:13836   */\n      0x20\n        /* \"#utility.yul\":13826:13832   */\n      dup3\n        /* \"#utility.yul\":13823:13837   */\n      lt\n        /* \"#utility.yul\":13803:13821   */\n      dup2\n        /* \"#utility.yul\":13800:13838   */\n      sub\n        /* \"#utility.yul\":13797:13881   */\n      tag_322\n      jumpi\n        /* \"#utility.yul\":13853:13871   */\n      tag_323\n      tag_174\n      jump\t// in\n    tag_323:\n        /* \"#utility.yul\":13797:13881   */\n    tag_322:\n        /* \"#utility.yul\":13618:13887   */\n      pop\n        /* \"#utility.yul\":13567:13887   */\n      swap2\n      swap1\n      pop\n      jump\t// out\n        /* \"#utility.yul\":13893:14034   */\n    tag_175:\n        /* \"#utility.yul\":13942:13946   */\n      0x00\n        /* \"#utility.yul\":13965:13968   */\n      dup2\n        /* \"#utility.yul\":13957:13968   */\n      swap1\n      pop\n        /* \"#utility.yul\":13988:13991   */\n      dup2\n        /* \"#utility.yul\":13985:13986   */\n      0x00\n        /* \"#utility.yul\":13978:13992   */\n      mstore\n        /* \"#utility.yul\":14022:14026   */\n      0x20\n        /* \"#utility.yul\":14019:14020   */\n      0x00\n        /* \"#utility.yul\":14009:14027   */\n      keccak256\n        /* \"#utility.yul\":14001:14027   */\n      swap1\n      pop\n        /* \"#utility.yul\":13893:14034   */\n      swap2\n      swap1\n      pop\n      jump\t// out\n        /* \"#utility.yul\":14040:14133   */\n    tag_176:\n        /* \"#utility.yul\":14077:14083   */\n      0x00\n        /* \"#utility.yul\":14124:14126   */\n      0x20\n        /* \"#utility.yul\":14119:14121   */\n      0x1f\n        /* \"#utility.yul\":14112:14117   */\n      dup4\n        /* \"#utility.yul\":14108:14122   */\n      add\n        /* \"#utility.yul\":14104:14127   */\n      div\n        /* \"#utility.yul\":14094:14127   */\n      swap1\n      pop\n        /* \"#utility.yul\":14040:14133   */\n      swap2\n      swap1\n      pop\n      jump\t// out\n        /* \"#utility.yul\":14139:14246   */\n    tag_177:\n        /* \"#utility.yul\":14183:14191   */\n      0x00\n        /* \"#utility.yul\":14233:14238   */\n      dup3\n        /* \"#utility.yul\":14227:14231   */\n      dup3\n        /* \"#utility.yul\":14223:14239   */\n      shl\n        /* \"#utility.yul\":14202:14239   */\n      swap1\n      pop\n        /* \"#utility.yul\":14139:14246   */\n      swap3\n      swap2\n      pop\n      pop\n      jump\t// out\n        /* \"#utility.yul\":14252:14645   */\n    tag_178:\n        /* \"#utility.yul\":14321:14327   */\n      0x00\n        /* \"#utility.yul\":14371:14372   */\n      0x08\n        /* \"#utility.yul\":14359:14369   */\n      dup4\n        /* \"#utility.yul\":14355:14373   */\n      mul\n        /* \"#utility.yul\":14394:14491   */\n      tag_328\n        /* \"#utility.yul\":14424:14490   */\n      0xffffffffffffffffffffffffffffffffffffffffffffffffffffffffffffffff\n        /* \"#utility.yul\":14413:14422   */\n      dup3\n        /* \"#utility.yul\":14394:14491   */\n      tag_177\n      jump\t// in\n    tag_328:\n        /* \"#utility.yul\":14512:14551   */\n      tag_329\n        /* \"#utility.yul\":14542:14550   */\n      dup7\n        /* \"#utility.yul\":14531:14540   */\n      dup4\n        /* \"#utility.yul\":14512:14551   */\n      tag_177\n      jump\t// in\n    tag_329:\n        /* \"#utility.yul\":14500:14551   */\n      swap6\n      pop\n        /* \"#utility.yul\":14584:14588   */\n      dup1\n        /* \"#utility.yul\":14580:14589   */\n      not\n        /* \"#utility.yul\":14573:14578   */\n      dup5\n        /* \"#utility.yul\":14569:14590   */\n      and\n        /* \"#utility.yul\":14560:14590   */\n      swap4\n      pop\n        /* \"#utility.yul\":14633:14637   */\n      dup1\n        /* \"#utility.yul\":14623:14631   */\n      dup7\n        /* \"#utility.yul\":14619:14638   */\n      and\n        /* \"#utility.yul\":14612:14617   */\n      dup5\n        /* \"#utility.yul\":14609:14639   */\n      or\n        /* \"#utility.yul\":14599:14639   */\n      swap3\n      pop\n        /* \"#utility.yul\":14328:14645   */\n      pop\n      pop\n        /* \"#utility.yul\":14252:14645   */\n      swap4\n      swap3\n      pop\n      pop\n      pop\n      jump\t// out\n        /* \"#utility.yul\":14651:14711   */\n    tag_179:\n        /* \"#utility.yul\":14679:14682   */\n      0x00\n        /* \"#utility.yul\":14700:14705   */\n      dup2\n        /* \"#utility.yul\":14693:14705   */\n      swap1\n      pop\n        /* \"#utility.yul\":14651:14711   */\n      swap2\n      swap1\n      pop\n      jump\t// out\n        /* \"#utility.yul\":14717:14859   */\n    tag_180:\n        /* \"#utility.yul\":14767:14776   */\n      0x00\n        /* \"#utility.yul\":14800:14853   */\n      tag_332\n        /* \"#utility.yul\":14818:14852   */\n      tag_333\n        /* \"#utility.yul\":14827:14851   */\n      tag_334\n        /* \"#utility.yul\":14845:14850   */\n      dup5\n        /* \"#utility.yul\":14827:14851   */\n      tag_146\n      jump\t// in\n    tag_334:\n        /* \"#utility.yul\":14818:14852   */\n      tag_179\n      jump\t// in\n    tag_333:\n        /* \"#utility.yul\":14800:14853   */\n      tag_146\n      jump\t// in\n    tag_332:\n        /* \"#utility.yul\":14787:14853   */\n      swap1\n      pop\n        /* \"#utility.yul\":14717:14859   */\n      swap2\n      swap1\n      pop\n      jump\t// out\n        /* \"#utility.yul\":14865:14940   */\n    tag_181:\n        /* \"#utility.yul\":14908:14911   */\n      0x00\n        /* \"#utility.yul\":14929:14934   */\n      dup2\n        /* \"#utility.yul\":14922:14934   */\n      swap1\n      pop\n        /* \"#utility.yul\":14865:14940   */\n      swap2\n      swap1\n      pop\n      jump\t// out\n        /* \"#utility.yul\":14946:15215   */\n    tag_182:\n        /* \"#utility.yul\":15056:15095   */\n      tag_337\n        /* \"#utility.yul\":15087:15094   */\n      dup4\n        /* \"#utility.yul\":15056:15095   */\n      tag_180\n      jump\t// in\n    tag_337:\n        /* \"#utility.yul\":15117:15208   */\n      tag_338\n        /* \"#utility.yul\":15166:15207   */\n      tag_339\n        /* \"#utility.yul\":15190:15206   */\n      dup3\n        /* \"#utility.yul\":15166:15207   */\n      tag_181\n      jump\t// in\n    tag_339:\n        /* \"#utility.yul\":15158:15164   */\n      dup5\n        /* \"#utility.yul\":15151:15155   */\n      dup5\n        /* \"#utility.yul\":15145:15156   */\n      sload\n        /* \"#utility.yul\":15117:15208   */\n      tag_178\n      jump\t// in\n    tag_338:\n        /* \"#utility.yul\":15111:15115   */\n      dup3\n        /* \"#utility.yul\":15104:15209   */\n      sstore\n        /* \"#utility.yul\":15022:15215   */\n      pop\n        /* \"#utility.yul\":14946:15215   */\n      pop\n      pop\n      pop\n      jump\t// out\n        /* \"#utility.yul\":15221:15294   */\n    tag_183:\n        /* \"#utility.yul\":15266:15269   */\n      0x00\n        /* \"#utility.yul\":15221:15294   */\n      swap1\n      jump\t// out\n        /* \"#utility.yul\":15300:15489   */\n    tag_184:\n        /* \"#utility.yul\":15377:15409   */\n      tag_342\n      tag_183\n      jump\t// in\n    tag_342:\n        /* \"#utility.yul\":15418:15483   */\n      tag_343\n        /* \"#utility.yul\":15476:15482   */\n      dup2\n        /* \"#utility.yul\":15468:15474   */\n      dup5\n        /* \"#utility.yul\":15462:15466   */\n      dup5\n        /* \"#utility.yul\":15418:15483   */\n      tag_182\n      jump\t// in\n    tag_343:\n        /* \"#utility.yul\":15353:15489   */\n      pop\n        /* \"#utility.yul\":15300:15489   */\n      pop\n      pop\n      jump\t// out\n        /* \"#utility.yul\":15495:15681   */\n    tag_185:\n        /* \"#utility.yul\":15555:15675   */\n    tag_345:\n        /* \"#utility.yul\":15572:15575   */\n      dup2\n        /* \"#utility.yul\":15565:15570   */\n      dup2\n        /* \"#utility.yul\":15562:15576   */\n      lt\n        /* \"#utility.yul\":15555:15675   */\n      iszero\n      tag_347\n      jumpi\n        /* \"#utility.yul\":15626:15665   */\n      tag_348\n        /* \"#utility.yul\":15663:15664   */\n      0x00\n        /* \"#utility.yul\":15656:15661   */\n      dup3\n        /* \"#utility.yul\":15626:15665   */\n      tag_184\n      jump\t// in\n    tag_348:\n        /* \"#utility.yul\":15599:15600   */\n      0x01\n        /* \"#utility.yul\":15592:15597   */\n      dup2\n        /* \"#utility.yul\":15588:15601   */\n      add\n        /* \"#utility.yul\":15579:15601   */\n      swap1\n      pop\n        /* \"#utility.yul\":15555:15675   */\n      jump(tag_345)\n    tag_347:\n        /* \"#utility.yul\":15495:15681   */\n      pop\n      pop\n      jump\t// out\n        /* \"#utility.yul\":15687:16230   */\n    tag_186:\n        /* \"#utility.yul\":15788:15790   */\n      0x1f\n        /* \"#utility.yul\":15783:15786   */\n      dup3\n        /* \"#utility.yul\":15780:15791   */\n      gt\n        /* \"#utility.yul\":15777:16223   */\n      iszero\n      tag_350\n      jumpi\n        /* \"#utility.yul\":15822:15860   */\n      tag_351\n        /* \"#utility.yul\":15854:15859   */\n      dup2\n        /* \"#utility.yul\":15822:15860   */\n      tag_175\n      jump\t// in\n    tag_351:\n        /* \"#utility.yul\":15906:15935   */\n      tag_352\n        /* \"#utility.yul\":15924:15934   */\n      dup5\n        /* \"#utility.yul\":15906:15935   */\n      tag_176\n      jump\t// in\n    tag_352:\n        /* \"#utility.yul\":15896:15904   */\n      dup2\n        /* \"#utility.yul\":15892:15936   */\n      add\n        /* \"#utility.yul\":16089:16091   */\n      0x20\n        /* \"#utility.yul\":16077:16087   */\n      dup6\n        /* \"#utility.yul\":16074:16092   */\n      lt\n        /* \"#utility.yul\":16071:16120   */\n      iszero\n      tag_353\n      jumpi\n        /* \"#utility.yul\":16110:16118   */\n      dup2\n        /* \"#utility.yul\":16095:16118   */\n      swap1\n      pop\n        /* \"#utility.yul\":16071:16120   */\n    tag_353:\n        /* \"#utility.yul\":16133:16213   */\n      tag_354\n        /* \"#utility.yul\":16189:16211   */\n      tag_355\n        /* \"#utility.yul\":16207:16210   */\n      dup6\n        /* \"#utility.yul\":16189:16211   */\n      tag_176\n      jump\t// in\n    tag_355:\n        /* \"#utility.yul\":16179:16187   */\n      dup4\n        /* \"#utility.yul\":16175:16212   */\n      add\n        /* \"#utility.yul\":16162:16173   */\n      dup3\n        /* \"#utility.yul\":16133:16213   */\n      tag_185\n      jump\t// in\n    tag_354:\n        /* \"#utility.yul\":15792:16223   */\n      pop\n      pop\n        /* \"#utility.yul\":15777:16223   */\n    tag_350:\n        /* \"#utility.yul\":15687:16230   */\n      pop\n      pop\n      pop\n      jump\t// out\n        /* \"#utility.yul\":16236:16353   */\n    tag_187:\n        /* \"#utility.yul\":16290:16298   */\n      0x00\n        /* \"#utility.yul\":16340:16345   */\n      dup3\n        /* \"#utility.yul\":16334:16338   */\n      dup3\n        /* \"#utility.yul\":16330:16346   */\n      shr\n        /* \"#utility.yul\":16309:16346   */\n      swap1\n      pop\n        /* \"#utility.yul\":16236:16353   */\n      swap3\n      swap2\n      pop\n      pop\n      jump\t// out\n        /* \"#utility.yul\":16359:16528   */\n    tag_188:\n        /* \"#utility.yul\":16403:16409   */\n      0x00\n        /* \"#utility.yul\":16436:16487   */\n      tag_358\n        /* \"#utility.yul\":16484:16485   */\n      0x00\n        /* \"#utility.yul\":16480:16486   */\n      not\n        /* \"#utility.yul\":16472:16477   */\n      dup5\n        /* \"#utility.yul\":16469:16470   */\n      0x08\n        /* \"#utility.yul\":16465:16478   */\n      mul\n        /* \"#utility.yul\":16436:16487   */\n      tag_187\n      jump\t// in\n    tag_358:\n        /* \"#utility.yul\":16432:16488   */\n      not\n        /* \"#utility.yul\":16517:16521   */\n      dup1\n        /* \"#utility.yul\":16511:16515   */\n      dup4\n        /* \"#utility.yul\":16507:16522   */\n      and\n        /* \"#utility.yul\":16497:16522   */\n      swap2\n      pop\n        /* \"#utility.yul\":16410:16528   */\n      pop\n        /* \"#utility.yul\":16359:16528   */\n      swap3\n      swap2\n      pop\n      pop\n      jump\t// out\n        /* \"#utility.yul\":16533:16828   */\n    tag_189:\n        /* \"#utility.yul\":16609:16613   */\n      0x00\n        /* \"#utility.yul\":16755:16784   */\n      tag_360\n        /* \"#utility.yul\":16780:16783   */\n      dup4\n        /* \"#utility.yul\":16774:16778   */\n      dup4\n        /* \"#utility.yul\":16755:16784   */\n      tag_188\n      jump\t// in\n    tag_360:\n        /* \"#utility.yul\":16747:16784   */\n      swap2\n      pop\n        /* \"#utility.yul\":16817:16820   */\n      dup3\n        /* \"#utility.yul\":16814:16815   */\n      0x02\n        /* \"#utility.yul\":16810:16821   */\n      mul\n        /* \"#utility.yul\":16804:16808   */\n      dup3\n        /* \"#utility.yul\":16801:16822   */\n      or\n        /* \"#utility.yul\":16793:16822   */\n      swap1\n      pop\n        /* \"#utility.yul\":16533:16828   */\n      swap3\n      swap2\n      pop\n      pop\n      jump\t// out\n        /* \"#utility.yul\":16833:18228   */\n    tag_59:\n        /* \"#utility.yul\":16950:16987   */\n      tag_362\n        /* \"#utility.yul\":16983:16986   */\n      dup3\n        /* \"#utility.yul\":16950:16987   */\n      tag_169\n      jump\t// in\n    tag_362:\n        /* \"#utility.yul\":17052:17070   */\n      0xffffffffffffffff\n        /* \"#utility.yul\":17044:17050   */\n      dup2\n        /* \"#utility.yul\":17041:17071   */\n      gt\n        /* \"#utility.yul\":17038:17094   */\n      iszero\n      tag_363\n      jumpi\n        /* \"#utility.yul\":17074:17092   */\n      tag_364\n      tag_56\n      jump\t// in\n    tag_364:\n        /* \"#utility.yul\":17038:17094   */\n    tag_363:\n        /* \"#utility.yul\":17118:17156   */\n      tag_365\n        /* \"#utility.yul\":17150:17154   */\n      dup3\n        /* \"#utility.yul\":17144:17155   */\n      sload\n        /* \"#utility.yul\":17118:17156   */\n      tag_66\n      jump\t// in\n    tag_365:\n        /* \"#utility.yul\":17203:17270   */\n      tag_366\n        /* \"#utility.yul\":17263:17269   */\n      dup3\n        /* \"#utility.yul\":17255:17261   */\n      dup3\n        /* \"#utility.yul\":17249:17253   */\n      dup6\n        /* \"#utility.yul\":17203:17270   */\n      tag_186\n      jump\t// in\n    tag_366:\n        /* \"#utility.yul\":17297:17298   */\n      0x00\n        /* \"#utility.yul\":17321:17325   */\n      0x20\n        /* \"#utility.yul\":17308:17325   */\n      swap1\n      pop\n        /* \"#utility.yul\":17353:17355   */\n      0x1f\n        /* \"#utility.yul\":17345:17351   */\n      dup4\n        /* \"#utility.yul\":17342:17356   */\n      gt\n        /* \"#utility.yul\":17370:17371   */\n      0x01\n        /* \"#utility.yul\":17365:17983   */\n      dup2\n      eq\n      tag_368\n      jumpi\n        /* \"#utility.yul\":18027:18028   */\n      0x00\n        /* \"#utility.yul\":18044:18050   */\n      dup5\n        /* \"#utility.yul\":18041:18118   */\n      iszero\n      tag_369\n      jumpi\n        /* \"#utility.yul\":18093:18102   */\n      dup3\n        /* \"#utility.yul\":18088:18091   */\n      dup8\n        /* \"#utility.yul\":18084:18103   */\n      add\n        /* \"#utility.yul\":18078:18104   */\n      mload\n        /* \"#utility.yul\":18069:18104   */\n      swap1\n      pop\n        /* \"#utility.yul\":18041:18118   */\n    tag_369:\n        /* \"#utility.yul\":18144:18211   */\n      tag_370\n        /* \"#utility.yul\":18204:18210   */\n      dup6\n        /* \"#utility.yul\":18197:18202   */\n      dup3\n        /* \"#utility.yul\":18144:18211   */\n      tag_189\n      jump\t// in\n    tag_370:\n        /* \"#utility.yul\":18138:18142   */\n      dup7\n        /* \"#utility.yul\":18131:18212   */\n      sstore\n        /* \"#utility.yul\":18000:18222   */\n      pop\n        /* \"#utility.yul\":17335:18222   */\n      jump(tag_367)\n        /* \"#utility.yul\":17365:17983   */\n    tag_368:\n        /* \"#utility.yul\":17417:17421   */\n      0x1f\n        /* \"#utility.yul\":17413:17422   */\n      not\n        /* \"#utility.yul\":17405:17411   */\n      dup5\n        /* \"#utility.yul\":17401:17423   */\n      and\n        /* \"#utility.yul\":17451:17488   */\n      tag_371\n        /* \"#utility.yul\":17483:17487   */\n      dup7\n        /* \"#utility.yul\":17451:17488   */\n      tag_175\n      jump\t// in\n    tag_371:\n        /* \"#utility.yul\":17510:17511   */\n      0x00\n        /* \"#utility.yul\":17524:17732   */\n    tag_372:\n        /* \"#utility.yul\":17538:17545   */\n      dup3\n        /* \"#utility.yul\":17535:17536   */\n      dup2\n        /* \"#utility.yul\":17532:17546   */\n      lt\n        /* \"#utility.yul\":17524:17732   */\n      iszero\n      tag_374\n      jumpi\n        /* \"#utility.yul\":17617:17626   */\n      dup5\n        /* \"#utility.yul\":17612:17615   */\n      dup10\n        /* \"#utility.yul\":17608:17627   */\n      add\n        /* \"#utility.yul\":17602:17628   */\n      mload\n        /* \"#utility.yul\":17594:17600   */\n      dup3\n        /* \"#utility.yul\":17587:17629   */\n      sstore\n        /* \"#utility.yul\":17668:17669   */\n      0x01\n        /* \"#utility.yul\":17660:17666   */\n      dup3\n        /* \"#utility.yul\":17656:17670   */\n      add\n        /* \"#utility.yul\":17646:17670   */\n      swap2\n      pop\n        /* \"#utility.yul\":17715:17717   */\n      0x20\n        /* \"#utility.yul\":17704:17713   */\n      dup6\n        /* \"#utility.yul\":17700:17718   */\n      add\n        /* \"#utility.yul\":17687:17718   */\n      swap5\n      pop\n        /* \"#utility.yul\":17561:17565   */\n      0x20\n        /* \"#utility.yul\":17558:17559   */\n      dup2\n        /* \"#utility.yul\":17554:17566   */\n      add\n        /* \"#utility.yul\":17549:17566   */\n      swap1\n      pop\n        /* \"#utility.yul\":17524:17732   */\n      jump(tag_372)\n    tag_374:\n        /* \"#utility.yul\":17760:17766   */\n      dup7\n        /* \"#utility.yul\":17751:17758   */\n      dup4\n        /* \"#utility.yul\":17748:17767   */\n      lt\n        /* \"#utility.yul\":17745:17924   */\n      iszero\n      tag_375\n      jumpi\n        /* \"#utility.yul\":17818:17827   */\n      dup5\n        /* \"#utility.yul\":17813:17816   */\n      dup10\n        /* \"#utility.yul\":17809:17828   */\n      add\n        /* \"#utility.yul\":17803:17829   */\n      mload\n        /* \"#utility.yul\":17861:17909   */\n      tag_376\n        /* \"#utility.yul\":17903:17907   */\n      0x1f\n        /* \"#utility.yul\":17895:17901   */\n      dup10\n        /* \"#utility.yul\":17891:17908   */\n      and\n        /* \"#utility.yul\":17880:17889   */\n      dup3\n        /* \"#utility.yul\":17861:17909   */\n      tag_188\n      jump\t// in\n    tag_376:\n        /* \"#utility.yul\":17853:17859   */\n      dup4\n        /* \"#utility.yul\":17846:17910   */\n      sstore\n        /* \"#utility.yul\":17768:17924   */\n      pop\n        /* \"#utility.yul\":17745:17924   */\n    tag_375:\n        /* \"#utility.yul\":17970:17971   */\n      0x01\n        /* \"#utility.yul\":17966:17967   */\n      0x02\n        /* \"#utility.yul\":17958:17964   */\n      dup9\n        /* \"#utility.yul\":17954:17968   */\n      mul\n        /* \"#utility.yul\":17950:17972   */\n      add\n        /* \"#utility.yul\":17944:17948   */\n      dup9\n        /* \"#utility.yul\":17937:17973   */\n      sstore\n        /* \"#utility.yul\":17372:17983   */\n      pop\n      pop\n      pop\n        /* \"#utility.yul\":17335:18222   */\n    tag_367:\n      pop\n        /* \"#utility.yul\":16925:18228   */\n      pop\n      pop\n      pop\n        /* \"#utility.yul\":16833:18228   */\n      pop\n      pop\n      jump\t// out\n\n    auxdata: 0xa2646970667358221220a39fb7adb6302bfce55325e46f58098c3e28b08185c36a03e033143a70731e1564736f6c63430008120033\n}\n",
				"bytecode": {
					"linkReferences": {},
					"object": "608060405234801561001057600080fd5b506116d1806100206000396000f3fe608060405234801561001057600080fd5b50600436106100885760003560e01c806369081bee1161005b57806369081bee1461012b57806393119a8314610147578063a0303c411461017b578063c942adf71461019957610088565b8063185c6f841461008d5780631ca9da80146100ab57806333f0d5ea146100db57806345a05bfb146100f7575b600080fd5b6100956101ce565b6040516100a29190610cf5565b60405180910390f35b6100c560048036038101906100c09190610d50565b6101d4565b6040516100d29190610e3b565b60405180910390f35b6100f560048036038101906100f09190610fa3565b610241565b005b610111600480360381019061010c9190610d50565b610361565b6040516101229594939291906110dd565b60405180910390f35b61014560048036038101906101409190611153565b61069c565b005b610161600480360381019061015c9190610d50565b6107ba565b60405161017295949392919061125a565b60405180910390f35b610183610988565b6040516101909190610cf5565b60405180910390f35b6101b360048036038101906101ae9190610d50565b61098e565b6040516101c5969594939291906112c2565b60405180910390f35b60035481565b606060008083815260200190815260200160002060050180548060200260200160405190810160405280929190818152602001828054801561023557602002820191906000526020600020905b815481526020019060010190808311610221575b50505050509050919050565b6002600081548092919061025490611375565b91905055506040518060c001604052806002548152602001858152602001848152602001838152602001828152602001600067ffffffffffffffff81111561029f5761029e610e78565b5b6040519080825280602002602001820160405280156102cd5781602001602082028036833780820191505090505b50815250600080600254815260200190815260200160002060008201518160000155602082015181600101908161030491906115c9565b5060408201518160020155606082015181600301908161032491906115c9565b50608082015181600401908161033a91906115c9565b5060a0820151816005019080519060200190610357929190610c72565b5090505050505050565b60608060608060606000600160008881526020019081526020016000206040518060c0016040529081600082015481526020016001820180546103a3906113ec565b80601f01602080910402602001604051908101604052809291908181526020018280546103cf906113ec565b801561041c5780601f106103f15761010080835404028352916020019161041c565b820191906000526020600020905b8154815290600101906020018083116103ff57829003601f168201915b50505050508152602001600282018054610435906113ec565b80601f0160208091040260200160405190810160405280929190818152602001828054610461906113ec565b80156104ae5780601f10610483576101008083540402835291602001916104ae565b820191906000526020600020905b81548152906001019060200180831161049157829003601f168201915b505050505081526020016003820180546104c7906113ec565b80601f01602080910402602001604051908101604052809291908181526020018280546104f3906113ec565b80156105405780601f1061051557610100808354040283529160200191610540565b820191906000526020600020905b81548152906001019060200180831161052357829003601f168201915b50505050508152602001600482018054610559906113ec565b80601f0160208091040260200160405190810160405280929190818152602001828054610585906113ec565b80156105d25780601f106105a7576101008083540402835291602001916105d2565b820191906000526020600020905b8154815290600101906020018083116105b557829003601f168201915b505050505081526020016005820180546105eb906113ec565b80601f0160208091040260200160405190810160405280929190818152602001828054610617906113ec565b80156106645780601f1061063957610100808354040283529160200191610664565b820191906000526020600020905b81548152906001019060200180831161064757829003601f168201915b505050505081525050905080602001518160400151826060015183608001518460a00151955095509550955095505091939590929450565b600360008154809291906106af90611375565b91905055506040518060c0016040528060035481526020018681526020018581526020018481526020018381526020018281525060016000600354815260200190815260200160002060008201518160000155602082015181600101908161071791906115c9565b50604082015181600201908161072d91906115c9565b50606082015181600301908161074391906115c9565b50608082015181600401908161075991906115c9565b5060a082015181600501908161076f91906115c9565b50905050600080600254815260200190815260200160002060050160035490806001815401808255809150506001900390600052602060002001600090919091909150555050505050565b60006020528060005260406000206000915090508060000154908060010180546107e3906113ec565b80601f016020809104026020016040519081016040528092919081815260200182805461080f906113ec565b801561085c5780601f106108315761010080835404028352916020019161085c565b820191906000526020600020905b81548152906001019060200180831161083f57829003601f168201915b505050505090806002015490806003018054610877906113ec565b80601f01602080910402602001604051908101604052809291908181526020018280546108a3906113ec565b80156108f05780601f106108c5576101008083540402835291602001916108f0565b820191906000526020600020905b8154815290600101906020018083116108d357829003601f168201915b505050505090806004018054610905906113ec565b80601f0160208091040260200160405190810160405280929190818152602001828054610931906113ec565b801561097e5780601f106109535761010080835404028352916020019161097e565b820191906000526020600020905b81548152906001019060200180831161096157829003601f168201915b5050505050905085565b60025481565b60016020528060005260406000206000915090508060000154908060010180546109b7906113ec565b80601f01602080910402602001604051908101604052809291908181526020018280546109e3906113ec565b8015610a305780601f10610a0557610100808354040283529160200191610a30565b820191906000526020600020905b815481529060010190602001808311610a1357829003601f168201915b505050505090806002018054610a45906113ec565b80601f0160208091040260200160405190810160405280929190818152602001828054610a71906113ec565b8015610abe5780601f10610a9357610100808354040283529160200191610abe565b820191906000526020600020905b815481529060010190602001808311610aa157829003601f168201915b505050505090806003018054610ad3906113ec565b80601f0160208091040260200160405190810160405280929190818152602001828054610aff906113ec565b8015610b4c5780601f10610b2157610100808354040283529160200191610b4c565b820191906000526020600020905b815481529060010190602001808311610b2f57829003601f168201915b505050505090806004018054610b61906113ec565b80601f0160208091040260200160405190810160405280929190818152602001828054610b8d906113ec565b8015610bda5780601f10610baf57610100808354040283529160200191610bda565b820191906000526020600020905b815481529060010190602001808311610bbd57829003601f168201915b505050505090806005018054610bef906113ec565b80601f0160208091040260200160405190810160405280929190818152602001828054610c1b906113ec565b8015610c685780601f10610c3d57610100808354040283529160200191610c68565b820191906000526020600020905b815481529060010190602001808311610c4b57829003601f168201915b5050505050905086565b828054828255906000526020600020908101928215610cae579160200282015b82811115610cad578251825591602001919060010190610c92565b5b509050610cbb9190610cbf565b5090565b5b80821115610cd8576000816000905550600101610cc0565b5090565b6000819050919050565b610cef81610cdc565b82525050565b6000602082019050610d0a6000830184610ce6565b92915050565b6000604051905090565b600080fd5b600080fd5b610d2d81610cdc565b8114610d3857600080fd5b50565b600081359050610d4a81610d24565b92915050565b600060208284031215610d6657610d65610d1a565b5b6000610d7484828501610d3b565b91505092915050565b600081519050919050565b600082825260208201905092915050565b6000819050602082019050919050565b610db281610cdc565b82525050565b6000610dc48383610da9565b60208301905092915050565b6000602082019050919050565b6000610de882610d7d565b610df28185610d88565b9350610dfd83610d99565b8060005b83811015610e2e578151610e158882610db8565b9750610e2083610dd0565b925050600181019050610e01565b5085935050505092915050565b60006020820190508181036000830152610e558184610ddd565b905092915050565b600080fd5b600080fd5b6000601f19601f8301169050919050565b7f4e487b7100000000000000000000000000000000000000000000000000000000600052604160045260246000fd5b610eb082610e67565b810181811067ffffffffffffffff82111715610ecf57610ece610e78565b5b80604052505050565b6000610ee2610d10565b9050610eee8282610ea7565b919050565b600067ffffffffffffffff821115610f0e57610f0d610e78565b5b610f1782610e67565b9050602081019050919050565b82818337600083830152505050565b6000610f46610f4184610ef3565b610ed8565b905082815260208101848484011115610f6257610f61610e62565b5b610f6d848285610f24565b509392505050565b600082601f830112610f8a57610f89610e5d565b5b8135610f9a848260208601610f33565b91505092915050565b60008060008060808587031215610fbd57610fbc610d1a565b5b600085013567ffffffffffffffff811115610fdb57610fda610d1f565b5b610fe787828801610f75565b9450506020610ff887828801610d3b565b935050604085013567ffffffffffffffff81111561101957611018610d1f565b5b61102587828801610f75565b925050606085013567ffffffffffffffff81111561104657611045610d1f565b5b61105287828801610f75565b91505092959194509250565b600081519050919050565b600082825260208201905092915050565b60005b8381101561109857808201518184015260208101905061107d565b60008484015250505050565b60006110af8261105e565b6110b98185611069565b93506110c981856020860161107a565b6110d281610e67565b840191505092915050565b600060a08201905081810360008301526110f781886110a4565b9050818103602083015261110b81876110a4565b9050818103604083015261111f81866110a4565b9050818103606083015261113381856110a4565b9050818103608083015261114781846110a4565b90509695505050505050565b600080600080600060a0868803121561116f5761116e610d1a565b5b600086013567ffffffffffffffff81111561118d5761118c610d1f565b5b61119988828901610f75565b955050602086013567ffffffffffffffff8111156111ba576111b9610d1f565b5b6111c688828901610f75565b945050604086013567ffffffffffffffff8111156111e7576111e6610d1f565b5b6111f388828901610f75565b935050606086013567ffffffffffffffff81111561121457611213610d1f565b5b61122088828901610f75565b925050608086013567ffffffffffffffff81111561124157611240610d1f565b5b61124d88828901610f75565b9150509295509295909350565b600060a08201905061126f6000830188610ce6565b818103602083015261128181876110a4565b90506112906040830186610ce6565b81810360608301526112a281856110a4565b905081810360808301526112b681846110a4565b90509695505050505050565b600060c0820190506112d76000830189610ce6565b81810360208301526112e981886110a4565b905081810360408301526112fd81876110a4565b9050818103606083015261131181866110a4565b9050818103608083015261132581856110a4565b905081810360a083015261133981846110a4565b9050979650505050505050565b7f4e487b7100000000000000000000000000000000000000000000000000000000600052601160045260246000fd5b600061138082610cdc565b91507fffffffffffffffffffffffffffffffffffffffffffffffffffffffffffffffff82036113b2576113b1611346565b5b600182019050919050565b7f4e487b7100000000000000000000000000000000000000000000000000000000600052602260045260246000fd5b6000600282049050600182168061140457607f821691505b602082108103611417576114166113bd565b5b50919050565b60008190508160005260206000209050919050565b60006020601f8301049050919050565b600082821b905092915050565b60006008830261147f7fffffffffffffffffffffffffffffffffffffffffffffffffffffffffffffffff82611442565b6114898683611442565b95508019841693508086168417925050509392505050565b6000819050919050565b60006114c66114c16114bc84610cdc565b6114a1565b610cdc565b9050919050565b6000819050919050565b6114e0836114ab565b6114f46114ec826114cd565b84845461144f565b825550505050565b600090565b6115096114fc565b6115148184846114d7565b505050565b5b818110156115385761152d600082611501565b60018101905061151a565b5050565b601f82111561157d5761154e8161141d565b61155784611432565b81016020851015611566578190505b61157a61157285611432565b830182611519565b50505b505050565b600082821c905092915050565b60006115a060001984600802611582565b1980831691505092915050565b60006115b9838361158f565b9150826002028217905092915050565b6115d28261105e565b67ffffffffffffffff8111156115eb576115ea610e78565b5b6115f582546113ec565b61160082828561153c565b600060209050601f8311600181146116335760008415611621578287015190505b61162b85826115ad565b865550611693565b601f1984166116418661141d565b60005b8281101561166957848901518255600182019150602085019450602081019050611644565b868310156116865784890151611682601f89168261158f565b8355505b6001600288020188555050505b50505050505056fea2646970667358221220a39fb7adb6302bfce55325e46f58098c3e28b08185c36a03e033143a70731e1564736f6c63430008120033",
					"opcodes": "PUSH1 0x80 PUSH1 0x40 MSTORE CALLVALUE DUP1 ISZERO PUSH2 0x10 JUMPI PUSH1 0x0 DUP1 REVERT JUMPDEST POP PUSH2 0x16D1 DUP1 PUSH2 0x20 PUSH1 0x0 CODECOPY PUSH1 0x0 RETURN INVALID PUSH1 0x80 PUSH1 0x40 MSTORE CALLVALUE DUP1 ISZERO PUSH2 0x10 JUMPI PUSH1 0x0 DUP1 REVERT JUMPDEST POP PUSH1 0x4 CALLDATASIZE LT PUSH2 0x88 JUMPI PUSH1 0x0 CALLDATALOAD PUSH1 0xE0 SHR DUP1 PUSH4 0x69081BEE GT PUSH2 0x5B JUMPI DUP1 PUSH4 0x69081BEE EQ PUSH2 0x12B JUMPI DUP1 PUSH4 0x93119A83 EQ PUSH2 0x147 JUMPI DUP1 PUSH4 0xA0303C41 EQ PUSH2 0x17B JUMPI DUP1 PUSH4 0xC942ADF7 EQ PUSH2 0x199 JUMPI PUSH2 0x88 JUMP JUMPDEST DUP1 PUSH4 0x185C6F84 EQ PUSH2 0x8D JUMPI DUP1 PUSH4 0x1CA9DA80 EQ PUSH2 0xAB JUMPI DUP1 PUSH4 0x33F0D5EA EQ PUSH2 0xDB JUMPI DUP1 PUSH4 0x45A05BFB EQ PUSH2 0xF7 JUMPI JUMPDEST PUSH1 0x0 DUP1 REVERT JUMPDEST PUSH2 0x95 PUSH2 0x1CE JUMP JUMPDEST PUSH1 0x40 MLOAD PUSH2 0xA2 SWAP2 SWAP1 PUSH2 0xCF5 JUMP JUMPDEST PUSH1 0x40 MLOAD DUP1 SWAP2 SUB SWAP1 RETURN JUMPDEST PUSH2 0xC5 PUSH1 0x4 DUP1 CALLDATASIZE SUB DUP2 ADD SWAP1 PUSH2 0xC0 SWAP2 SWAP1 PUSH2 0xD50 JUMP JUMPDEST PUSH2 0x1D4 JUMP JUMPDEST PUSH1 0x40 MLOAD PUSH2 0xD2 SWAP2 SWAP1 PUSH2 0xE3B JUMP JUMPDEST PUSH1 0x40 MLOAD DUP1 SWAP2 SUB SWAP1 RETURN JUMPDEST PUSH2 0xF5 PUSH1 0x4 DUP1 CALLDATASIZE SUB DUP2 ADD SWAP1 PUSH2 0xF0 SWAP2 SWAP1 PUSH2 0xFA3 JUMP JUMPDEST PUSH2 0x241 JUMP JUMPDEST STOP JUMPDEST PUSH2 0x111 PUSH1 0x4 DUP1 CALLDATASIZE SUB DUP2 ADD SWAP1 PUSH2 0x10C SWAP2 SWAP1 PUSH2 0xD50 JUMP JUMPDEST PUSH2 0x361 JUMP JUMPDEST PUSH1 0x40 MLOAD PUSH2 0x122 SWAP6 SWAP5 SWAP4 SWAP3 SWAP2 SWAP1 PUSH2 0x10DD JUMP JUMPDEST PUSH1 0x40 MLOAD DUP1 SWAP2 SUB SWAP1 RETURN JUMPDEST PUSH2 0x145 PUSH1 0x4 DUP1 CALLDATASIZE SUB DUP2 ADD SWAP1 PUSH2 0x140 SWAP2 SWAP1 PUSH2 0x1153 JUMP JUMPDEST PUSH2 0x69C JUMP JUMPDEST STOP JUMPDEST PUSH2 0x161 PUSH1 0x4 DUP1 CALLDATASIZE SUB DUP2 ADD SWAP1 PUSH2 0x15C SWAP2 SWAP1 PUSH2 0xD50 JUMP JUMPDEST PUSH2 0x7BA JUMP JUMPDEST PUSH1 0x40 MLOAD PUSH2 0x172 SWAP6 SWAP5 SWAP4 SWAP3 SWAP2 SWAP1 PUSH2 0x125A JUMP JUMPDEST PUSH1 0x40 MLOAD DUP1 SWAP2 SUB SWAP1 RETURN JUMPDEST PUSH2 0x183 PUSH2 0x988 JUMP JUMPDEST PUSH1 0x40 MLOAD PUSH2 0x190 SWAP2 SWAP1 PUSH2 0xCF5 JUMP JUMPDEST PUSH1 0x40 MLOAD DUP1 SWAP2 SUB SWAP1 RETURN JUMPDEST PUSH2 0x1B3 PUSH1 0x4 DUP1 CALLDATASIZE SUB DUP2 ADD SWAP1 PUSH2 0x1AE SWAP2 SWAP1 PUSH2 0xD50 JUMP JUMPDEST PUSH2 0x98E JUMP JUMPDEST PUSH1 0x40 MLOAD PUSH2 0x1C5 SWAP7 SWAP6 SWAP5 SWAP4 SWAP3 SWAP2 SWAP1 PUSH2 0x12C2 JUMP JUMPDEST PUSH1 0x40 MLOAD DUP1 SWAP2 SUB SWAP1 RETURN JUMPDEST PUSH1 0x3 SLOAD DUP2 JUMP JUMPDEST PUSH1 0x60 PUSH1 0x0 DUP1 DUP4 DUP2 MSTORE PUSH1 0x20 ADD SWAP1 DUP2 MSTORE PUSH1 0x20 ADD PUSH1 0x0 KECCAK256 PUSH1 0x5 ADD DUP1 SLOAD DUP1 PUSH1 0x20 MUL PUSH1 0x20 ADD PUSH1 0x40 MLOAD SWAP1 DUP2 ADD PUSH1 0x40 MSTORE DUP1 SWAP3 SWAP2 SWAP1 DUP2 DUP2 MSTORE PUSH1 0x20 ADD DUP3 DUP1 SLOAD DUP1 ISZERO PUSH2 0x235 JUMPI PUSH1 0x20 MUL DUP3 ADD SWAP2 SWAP1 PUSH1 0x0 MSTORE PUSH1 0x20 PUSH1 0x0 KECCAK256 SWAP1 JUMPDEST DUP2 SLOAD DUP2 MSTORE PUSH1 0x20 ADD SWAP1 PUSH1 0x1 ADD SWAP1 DUP1 DUP4 GT PUSH2 0x221 JUMPI JUMPDEST POP POP POP POP POP SWAP1 POP SWAP2 SWAP1 POP JUMP JUMPDEST PUSH1 0x2 PUSH1 0x0 DUP2 SLOAD DUP1 SWAP3 SWAP2 SWAP1 PUSH2 0x254 SWAP1 PUSH2 0x1375 JUMP JUMPDEST SWAP2 SWAP1 POP SSTORE POP PUSH1 0x40 MLOAD DUP1 PUSH1 0xC0 ADD PUSH1 0x40 MSTORE DUP1 PUSH1 0x2 SLOAD DUP2 MSTORE PUSH1 0x20 ADD DUP6 DUP2 MSTORE PUSH1 0x20 ADD DUP5 DUP2 MSTORE PUSH1 0x20 ADD DUP4 DUP2 MSTORE PUSH1 0x20 ADD DUP3 DUP2 MSTORE PUSH1 0x20 ADD PUSH1 0x0 PUSH8 0xFFFFFFFFFFFFFFFF DUP2 GT ISZERO PUSH2 0x29F JUMPI PUSH2 0x29E PUSH2 0xE78 JUMP JUMPDEST JUMPDEST PUSH1 0x40 MLOAD SWAP1 DUP1 DUP3 MSTORE DUP1 PUSH1 0x20 MUL PUSH1 0x20 ADD DUP3 ADD PUSH1 0x40 MSTORE DUP1 ISZERO PUSH2 0x2CD JUMPI DUP2 PUSH1 0x20 ADD PUSH1 0x20 DUP3 MUL DUP1 CALLDATASIZE DUP4 CALLDATACOPY DUP1 DUP3 ADD SWAP2 POP POP SWAP1 POP JUMPDEST POP DUP2 MSTORE POP PUSH1 0x0 DUP1 PUSH1 0x2 SLOAD DUP2 MSTORE PUSH1 0x20 ADD SWAP1 DUP2 MSTORE PUSH1 0x20 ADD PUSH1 0x0 KECCAK256 PUSH1 0x0 DUP3 ADD MLOAD DUP2 PUSH1 0x0 ADD SSTORE PUSH1 0x20 DUP3 ADD MLOAD DUP2 PUSH1 0x1 ADD SWAP1 DUP2 PUSH2 0x304 SWAP2 SWAP1 PUSH2 0x15C9 JUMP JUMPDEST POP PUSH1 0x40 DUP3 ADD MLOAD DUP2 PUSH1 0x2 ADD SSTORE PUSH1 0x60 DUP3 ADD MLOAD DUP2 PUSH1 0x3 ADD SWAP1 DUP2 PUSH2 0x324 SWAP2 SWAP1 PUSH2 0x15C9 JUMP JUMPDEST POP PUSH1 0x80 DUP3 ADD MLOAD DUP2 PUSH1 0x4 ADD SWAP1 DUP2 PUSH2 0x33A SWAP2 SWAP1 PUSH2 0x15C9 JUMP JUMPDEST POP PUSH1 0xA0 DUP3 ADD MLOAD DUP2 PUSH1 0x5 ADD SWAP1 DUP1 MLOAD SWAP1 PUSH1 0x20 ADD SWAP1 PUSH2 0x357 SWAP3 SWAP2 SWAP1 PUSH2 0xC72 JUMP JUMPDEST POP SWAP1 POP POP POP POP POP POP JUMP JUMPDEST PUSH1 0x60 DUP1 PUSH1 0x60 DUP1 PUSH1 0x60 PUSH1 0x0 PUSH1 0x1 PUSH1 0x0 DUP9 DUP2 MSTORE PUSH1 0x20 ADD SWAP1 DUP2 MSTORE PUSH1 0x20 ADD PUSH1 0x0 KECCAK256 PUSH1 0x40 MLOAD DUP1 PUSH1 0xC0 ADD PUSH1 0x40 MSTORE SWAP1 DUP2 PUSH1 0x0 DUP3 ADD SLOAD DUP2 MSTORE PUSH1 0x20 ADD PUSH1 0x1 DUP3 ADD DUP1 SLOAD PUSH2 0x3A3 SWAP1 PUSH2 0x13EC JUMP JUMPDEST DUP1 PUSH1 0x1F ADD PUSH1 0x20 DUP1 SWAP2 DIV MUL PUSH1 0x20 ADD PUSH1 0x40 MLOAD SWAP1 DUP2 ADD PUSH1 0x40 MSTORE DUP1 SWAP3 SWAP2 SWAP1 DUP2 DUP2 MSTORE PUSH1 0x20 ADD DUP3 DUP1 SLOAD PUSH2 0x3CF SWAP1 PUSH2 0x13EC JUMP JUMPDEST DUP1 ISZERO PUSH2 0x41C JUMPI DUP1 PUSH1 0x1F LT PUSH2 0x3F1 JUMPI PUSH2 0x100 DUP1 DUP4 SLOAD DIV MUL DUP4 MSTORE SWAP2 PUSH1 0x20 ADD SWAP2 PUSH2 0x41C JUMP JUMPDEST DUP3 ADD SWAP2 SWAP1 PUSH1 0x0 MSTORE PUSH1 0x20 PUSH1 0x0 KECCAK256 SWAP1 JUMPDEST DUP2 SLOAD DUP2 MSTORE SWAP1 PUSH1 0x1 ADD SWAP1 PUSH1 0x20 ADD DUP1 DUP4 GT PUSH2 0x3FF JUMPI DUP3 SWAP1 SUB PUSH1 0x1F AND DUP3 ADD SWAP2 JUMPDEST POP POP POP POP POP DUP2 MSTORE PUSH1 0x20 ADD PUSH1 0x2 DUP3 ADD DUP1 SLOAD PUSH2 0x435 SWAP1 PUSH2 0x13EC JUMP JUMPDEST DUP1 PUSH1 0x1F ADD PUSH1 0x20 DUP1 SWAP2 DIV MUL PUSH1 0x20 ADD PUSH1 0x40 MLOAD SWAP1 DUP2 ADD PUSH1 0x40 MSTORE DUP1 SWAP3 SWAP2 SWAP1 DUP2 DUP2 MSTORE PUSH1 0x20 ADD DUP3 DUP1 SLOAD PUSH2 0x461 SWAP1 PUSH2 0x13EC JUMP JUMPDEST DUP1 ISZERO PUSH2 0x4AE JUMPI DUP1 PUSH1 0x1F LT PUSH2 0x483 JUMPI PUSH2 0x100 DUP1 DUP4 SLOAD DIV MUL DUP4 MSTORE SWAP2 PUSH1 0x20 ADD SWAP2 PUSH2 0x4AE JUMP JUMPDEST DUP3 ADD SWAP2 SWAP1 PUSH1 0x0 MSTORE PUSH1 0x20 PUSH1 0x0 KECCAK256 SWAP1 JUMPDEST DUP2 SLOAD DUP2 MSTORE SWAP1 PUSH1 0x1 ADD SWAP1 PUSH1 0x20 ADD DUP1 DUP4 GT PUSH2 0x491 JUMPI DUP3 SWAP1 SUB PUSH1 0x1F AND DUP3 ADD SWAP2 JUMPDEST POP POP POP POP POP DUP2 MSTORE PUSH1 0x20 ADD PUSH1 0x3 DUP3 ADD DUP1 SLOAD PUSH2 0x4C7 SWAP1 PUSH2 0x13EC JUMP JUMPDEST DUP1 PUSH1 0x1F ADD PUSH1 0x20 DUP1 SWAP2 DIV MUL PUSH1 0x20 ADD PUSH1 0x40 MLOAD SWAP1 DUP2 ADD PUSH1 0x40 MSTORE DUP1 SWAP3 SWAP2 SWAP1 DUP2 DUP2 MSTORE PUSH1 0x20 ADD DUP3 DUP1 SLOAD PUSH2 0x4F3 SWAP1 PUSH2 0x13EC JUMP JUMPDEST DUP1 ISZERO PUSH2 0x540 JUMPI DUP1 PUSH1 0x1F LT PUSH2 0x515 JUMPI PUSH2 0x100 DUP1 DUP4 SLOAD DIV MUL DUP4 MSTORE SWAP2 PUSH1 0x20 ADD SWAP2 PUSH2 0x540 JUMP JUMPDEST DUP3 ADD SWAP2 SWAP1 PUSH1 0x0 MSTORE PUSH1 0x20 PUSH1 0x0 KECCAK256 SWAP1 JUMPDEST DUP2 SLOAD DUP2 MSTORE SWAP1 PUSH1 0x1 ADD SWAP1 PUSH1 0x20 ADD DUP1 DUP4 GT PUSH2 0x523 JUMPI DUP3 SWAP1 SUB PUSH1 0x1F AND DUP3 ADD SWAP2 JUMPDEST POP POP POP POP POP DUP2 MSTORE PUSH1 0x20 ADD PUSH1 0x4 DUP3 ADD DUP1 SLOAD PUSH2 0x559 SWAP1 PUSH2 0x13EC JUMP JUMPDEST DUP1 PUSH1 0x1F ADD PUSH1 0x20 DUP1 SWAP2 DIV MUL PUSH1 0x20 ADD PUSH1 0x40 MLOAD SWAP1 DUP2 ADD PUSH1 0x40 MSTORE DUP1 SWAP3 SWAP2 SWAP1 DUP2 DUP2 MSTORE PUSH1 0x20 ADD DUP3 DUP1 SLOAD PUSH2 0x585 SWAP1 PUSH2 0x13EC JUMP JUMPDEST DUP1 ISZERO PUSH2 0x5D2 JUMPI DUP1 PUSH1 0x1F LT PUSH2 0x5A7 JUMPI PUSH2 0x100 DUP1 DUP4 SLOAD DIV MUL DUP4 MSTORE SWAP2 PUSH1 0x20 ADD SWAP2 PUSH2 0x5D2 JUMP JUMPDEST DUP3 ADD SWAP2 SWAP1 PUSH1 0x0 MSTORE PUSH1 0x20 PUSH1 0x0 KECCAK256 SWAP1 JUMPDEST DUP2 SLOAD DUP2 MSTORE SWAP1 PUSH1 0x1 ADD SWAP1 PUSH1 0x20 ADD DUP1 DUP4 GT PUSH2 0x5B5 JUMPI DUP3 SWAP1 SUB PUSH1 0x1F AND DUP3 ADD SWAP2 JUMPDEST POP POP POP POP POP DUP2 MSTORE PUSH1 0x20 ADD PUSH1 0x5 DUP3 ADD DUP1 SLOAD PUSH2 0x5EB SWAP1 PUSH2 0x13EC JUMP JUMPDEST DUP1 PUSH1 0x1F ADD PUSH1 0x20 DUP1 SWAP2 DIV MUL PUSH1 0x20 ADD PUSH1 0x40 MLOAD SWAP1 DUP2 ADD PUSH1 0x40 MSTORE DUP1 SWAP3 SWAP2 SWAP1 DUP2 DUP2 MSTORE PUSH1 0x20 ADD DUP3 DUP1 SLOAD PUSH2 0x617 SWAP1 PUSH2 0x13EC JUMP JUMPDEST DUP1 ISZERO PUSH2 0x664 JUMPI DUP1 PUSH1 0x1F LT PUSH2 0x639 JUMPI PUSH2 0x100 DUP1 DUP4 SLOAD DIV MUL DUP4 MSTORE SWAP2 PUSH1 0x20 ADD SWAP2 PUSH2 0x664 JUMP JUMPDEST DUP3 ADD SWAP2 SWAP1 PUSH1 0x0 MSTORE PUSH1 0x20 PUSH1 0x0 KECCAK256 SWAP1 JUMPDEST DUP2 SLOAD DUP2 MSTORE SWAP1 PUSH1 0x1 ADD SWAP1 PUSH1 0x20 ADD DUP1 DUP4 GT PUSH2 0x647 JUMPI DUP3 SWAP1 SUB PUSH1 0x1F AND DUP3 ADD SWAP2 JUMPDEST POP POP POP POP POP DUP2 MSTORE POP POP SWAP1 POP DUP1 PUSH1 0x20 ADD MLOAD DUP2 PUSH1 0x40 ADD MLOAD DUP3 PUSH1 0x60 ADD MLOAD DUP4 PUSH1 0x80 ADD MLOAD DUP5 PUSH1 0xA0 ADD MLOAD SWAP6 POP SWAP6 POP SWAP6 POP SWAP6 POP SWAP6 POP POP SWAP2 SWAP4 SWAP6 SWAP1 SWAP3 SWAP5 POP JUMP JUMPDEST PUSH1 0x3 PUSH1 0x0 DUP2 SLOAD DUP1 SWAP3 SWAP2 SWAP1 PUSH2 0x6AF SWAP1 PUSH2 0x1375 JUMP JUMPDEST SWAP2 SWAP1 POP SSTORE POP PUSH1 0x40 MLOAD DUP1 PUSH1 0xC0 ADD PUSH1 0x40 MSTORE DUP1 PUSH1 0x3 SLOAD DUP2 MSTORE PUSH1 0x20 ADD DUP7 DUP2 MSTORE PUSH1 0x20 ADD DUP6 DUP2 MSTORE PUSH1 0x20 ADD DUP5 DUP2 MSTORE PUSH1 0x20 ADD DUP4 DUP2 MSTORE PUSH1 0x20 ADD DUP3 DUP2 MSTORE POP PUSH1 0x1 PUSH1 0x0 PUSH1 0x3 SLOAD DUP2 MSTORE PUSH1 0x20 ADD SWAP1 DUP2 MSTORE PUSH1 0x20 ADD PUSH1 0x0 KECCAK256 PUSH1 0x0 DUP3 ADD MLOAD DUP2 PUSH1 0x0 ADD SSTORE PUSH1 0x20 DUP3 ADD MLOAD DUP2 PUSH1 0x1 ADD SWAP1 DUP2 PUSH2 0x717 SWAP2 SWAP1 PUSH2 0x15C9 JUMP JUMPDEST POP PUSH1 0x40 DUP3 ADD MLOAD DUP2 PUSH1 0x2 ADD SWAP1 DUP2 PUSH2 0x72D SWAP2 SWAP1 PUSH2 0x15C9 JUMP JUMPDEST POP PUSH1 0x60 DUP3 ADD MLOAD DUP2 PUSH1 0x3 ADD SWAP1 DUP2 PUSH2 0x743 SWAP2 SWAP1 PUSH2 0x15C9 JUMP JUMPDEST POP PUSH1 0x80 DUP3 ADD MLOAD DUP2 PUSH1 0x4 ADD SWAP1 DUP2 PUSH2 0x759 SWAP2 SWAP1 PUSH2 0x15C9 JUMP JUMPDEST POP PUSH1 0xA0 DUP3 ADD MLOAD DUP2 PUSH1 0x5 ADD SWAP1 DUP2 PUSH2 0x76F SWAP2 SWAP1 PUSH2 0x15C9 JUMP JUMPDEST POP SWAP1 POP POP PUSH1 0x0 DUP1 PUSH1 0x2 SLOAD DUP2 MSTORE PUSH1 0x20 ADD SWAP1 DUP2 MSTORE PUSH1 0x20 ADD PUSH1 0x0 KECCAK256 PUSH1 0x5 ADD PUSH1 0x3 SLOAD SWAP1 DUP1 PUSH1 0x1 DUP2 SLOAD ADD DUP1 DUP3 SSTORE DUP1 SWAP2 POP POP PUSH1 0x1 SWAP1 SUB SWAP1 PUSH1 0x0 MSTORE PUSH1 0x20 PUSH1 0x0 KECCAK256 ADD PUSH1 0x0 SWAP1 SWAP2 SWAP1 SWAP2 SWAP1 SWAP2 POP SSTORE POP POP POP POP POP JUMP JUMPDEST PUSH1 0x0 PUSH1 0x20 MSTORE DUP1 PUSH1 0x0 MSTORE PUSH1 0x40 PUSH1 0x0 KECCAK256 PUSH1 0x0 SWAP2 POP SWAP1 POP DUP1 PUSH1 0x0 ADD SLOAD SWAP1 DUP1 PUSH1 0x1 ADD DUP1 SLOAD PUSH2 0x7E3 SWAP1 PUSH2 0x13EC JUMP JUMPDEST DUP1 PUSH1 0x1F ADD PUSH1 0x20 DUP1 SWAP2 DIV MUL PUSH1 0x20 ADD PUSH1 0x40 MLOAD SWAP1 DUP2 ADD PUSH1 0x40 MSTORE DUP1 SWAP3 SWAP2 SWAP1 DUP2 DUP2 MSTORE PUSH1 0x20 ADD DUP3 DUP1 SLOAD PUSH2 0x80F SWAP1 PUSH2 0x13EC JUMP JUMPDEST DUP1 ISZERO PUSH2 0x85C JUMPI DUP1 PUSH1 0x1F LT PUSH2 0x831 JUMPI PUSH2 0x100 DUP1 DUP4 SLOAD DIV MUL DUP4 MSTORE SWAP2 PUSH1 0x20 ADD SWAP2 PUSH2 0x85C JUMP JUMPDEST DUP3 ADD SWAP2 SWAP1 PUSH1 0x0 MSTORE PUSH1 0x20 PUSH1 0x0 KECCAK256 SWAP1 JUMPDEST DUP2 SLOAD DUP2 MSTORE SWAP1 PUSH1 0x1 ADD SWAP1 PUSH1 0x20 ADD DUP1 DUP4 GT PUSH2 0x83F JUMPI DUP3 SWAP1 SUB PUSH1 0x1F AND DUP3 ADD SWAP2 JUMPDEST POP POP POP POP POP SWAP1 DUP1 PUSH1 0x2 ADD SLOAD SWAP1 DUP1 PUSH1 0x3 ADD DUP1 SLOAD PUSH2 0x877 SWAP1 PUSH2 0x13EC JUMP JUMPDEST DUP1 PUSH1 0x1F ADD PUSH1 0x20 DUP1 SWAP2 DIV MUL PUSH1 0x20 ADD PUSH1 0x40 MLOAD SWAP1 DUP2 ADD PUSH1 0x40 MSTORE DUP1 SWAP3 SWAP2 SWAP1 DUP2 DUP2 MSTORE PUSH1 0x20 ADD DUP3 DUP1 SLOAD PUSH2 0x8A3 SWAP1 PUSH2 0x13EC JUMP JUMPDEST DUP1 ISZERO PUSH2 0x8F0 JUMPI DUP1 PUSH1 0x1F LT PUSH2 0x8C5 JUMPI PUSH2 0x100 DUP1 DUP4 SLOAD DIV MUL DUP4 MSTORE SWAP2 PUSH1 0x20 ADD SWAP2 PUSH2 0x8F0 JUMP JUMPDEST DUP3 ADD SWAP2 SWAP1 PUSH1 0x0 MSTORE PUSH1 0x20 PUSH1 0x0 KECCAK256 SWAP1 JUMPDEST DUP2 SLOAD DUP2 MSTORE SWAP1 PUSH1 0x1 ADD SWAP1 PUSH1 0x20 ADD DUP1 DUP4 GT PUSH2 0x8D3 JUMPI DUP3 SWAP1 SUB PUSH1 0x1F AND DUP3 ADD SWAP2 JUMPDEST POP POP POP POP POP SWAP1 DUP1 PUSH1 0x4 ADD DUP1 SLOAD PUSH2 0x905 SWAP1 PUSH2 0x13EC JUMP JUMPDEST DUP1 PUSH1 0x1F ADD PUSH1 0x20 DUP1 SWAP2 DIV MUL PUSH1 0x20 ADD PUSH1 0x40 MLOAD SWAP1 DUP2 ADD PUSH1 0x40 MSTORE DUP1 SWAP3 SWAP2 SWAP1 DUP2 DUP2 MSTORE PUSH1 0x20 ADD DUP3 DUP1 SLOAD PUSH2 0x931 SWAP1 PUSH2 0x13EC JUMP JUMPDEST DUP1 ISZERO PUSH2 0x97E JUMPI DUP1 PUSH1 0x1F LT PUSH2 0x953 JUMPI PUSH2 0x100 DUP1 DUP4 SLOAD DIV MUL DUP4 MSTORE SWAP2 PUSH1 0x20 ADD SWAP2 PUSH2 0x97E JUMP JUMPDEST DUP3 ADD SWAP2 SWAP1 PUSH1 0x0 MSTORE PUSH1 0x20 PUSH1 0x0 KECCAK256 SWAP1 JUMPDEST DUP2 SLOAD DUP2 MSTORE SWAP1 PUSH1 0x1 ADD SWAP1 PUSH1 0x20 ADD DUP1 DUP4 GT PUSH2 0x961 JUMPI DUP3 SWAP1 SUB PUSH1 0x1F AND DUP3 ADD SWAP2 JUMPDEST POP POP POP POP POP SWAP1 POP DUP6 JUMP JUMPDEST PUSH1 0x2 SLOAD DUP2 JUMP JUMPDEST PUSH1 0x1 PUSH1 0x20 MSTORE DUP1 PUSH1 0x0 MSTORE PUSH1 0x40 PUSH1 0x0 KECCAK256 PUSH1 0x0 SWAP2 POP SWAP1 POP DUP1 PUSH1 0x0 ADD SLOAD SWAP1 DUP1 PUSH1 0x1 ADD DUP1 SLOAD PUSH2 0x9B7 SWAP1 PUSH2 0x13EC JUMP JUMPDEST DUP1 PUSH1 0x1F ADD PUSH1 0x20 DUP1 SWAP2 DIV MUL PUSH1 0x20 ADD PUSH1 0x40 MLOAD SWAP1 DUP2 ADD PUSH1 0x40 MSTORE DUP1 SWAP3 SWAP2 SWAP1 DUP2 DUP2 MSTORE PUSH1 0x20 ADD DUP3 DUP1 SLOAD PUSH2 0x9E3 SWAP1 PUSH2 0x13EC JUMP JUMPDEST DUP1 ISZERO PUSH2 0xA30 JUMPI DUP1 PUSH1 0x1F LT PUSH2 0xA05 JUMPI PUSH2 0x100 DUP1 DUP4 SLOAD DIV MUL DUP4 MSTORE SWAP2 PUSH1 0x20 ADD SWAP2 PUSH2 0xA30 JUMP JUMPDEST DUP3 ADD SWAP2 SWAP1 PUSH1 0x0 MSTORE PUSH1 0x20 PUSH1 0x0 KECCAK256 SWAP1 JUMPDEST DUP2 SLOAD DUP2 MSTORE SWAP1 PUSH1 0x1 ADD SWAP1 PUSH1 0x20 ADD DUP1 DUP4 GT PUSH2 0xA13 JUMPI DUP3 SWAP1 SUB PUSH1 0x1F AND DUP3 ADD SWAP2 JUMPDEST POP POP POP POP POP SWAP1 DUP1 PUSH1 0x2 ADD DUP1 SLOAD PUSH2 0xA45 SWAP1 PUSH2 0x13EC JUMP JUMPDEST DUP1 PUSH1 0x1F ADD PUSH1 0x20 DUP1 SWAP2 DIV MUL PUSH1 0x20 ADD PUSH1 0x40 MLOAD SWAP1 DUP2 ADD PUSH1 0x40 MSTORE DUP1 SWAP3 SWAP2 SWAP1 DUP2 DUP2 MSTORE PUSH1 0x20 ADD DUP3 DUP1 SLOAD PUSH2 0xA71 SWAP1 PUSH2 0x13EC JUMP JUMPDEST DUP1 ISZERO PUSH2 0xABE JUMPI DUP1 PUSH1 0x1F LT PUSH2 0xA93 JUMPI PUSH2 0x100 DUP1 DUP4 SLOAD DIV MUL DUP4 MSTORE SWAP2 PUSH1 0x20 ADD SWAP2 PUSH2 0xABE JUMP JUMPDEST DUP3 ADD SWAP2 SWAP1 PUSH1 0x0 MSTORE PUSH1 0x20 PUSH1 0x0 KECCAK256 SWAP1 JUMPDEST DUP2 SLOAD DUP2 MSTORE SWAP1 PUSH1 0x1 ADD SWAP1 PUSH1 0x20 ADD DUP1 DUP4 GT PUSH2 0xAA1 JUMPI DUP3 SWAP1 SUB PUSH1 0x1F AND DUP3 ADD SWAP2 JUMPDEST POP POP POP POP POP SWAP1 DUP1 PUSH1 0x3 ADD DUP1 SLOAD PUSH2 0xAD3 SWAP1 PUSH2 0x13EC JUMP JUMPDEST DUP1 PUSH1 0x1F ADD PUSH1 0x20 DUP1 SWAP2 DIV MUL PUSH1 0x20 ADD PUSH1 0x40 MLOAD SWAP1 DUP2 ADD PUSH1 0x40 MSTORE DUP1 SWAP3 SWAP2 SWAP1 DUP2 DUP2 MSTORE PUSH1 0x20 ADD DUP3 DUP1 SLOAD PUSH2 0xAFF SWAP1 PUSH2 0x13EC JUMP JUMPDEST DUP1 ISZERO PUSH2 0xB4C JUMPI DUP1 PUSH1 0x1F LT PUSH2 0xB21 JUMPI PUSH2 0x100 DUP1 DUP4 SLOAD DIV MUL DUP4 MSTORE SWAP2 PUSH1 0x20 ADD SWAP2 PUSH2 0xB4C JUMP JUMPDEST DUP3 ADD SWAP2 SWAP1 PUSH1 0x0 MSTORE PUSH1 0x20 PUSH1 0x0 KECCAK256 SWAP1 JUMPDEST DUP2 SLOAD DUP2 MSTORE SWAP1 PUSH1 0x1 ADD SWAP1 PUSH1 0x20 ADD DUP1 DUP4 GT PUSH2 0xB2F JUMPI DUP3 SWAP1 SUB PUSH1 0x1F AND DUP3 ADD SWAP2 JUMPDEST POP POP POP POP POP SWAP1 DUP1 PUSH1 0x4 ADD DUP1 SLOAD PUSH2 0xB61 SWAP1 PUSH2 0x13EC JUMP JUMPDEST DUP1 PUSH1 0x1F ADD PUSH1 0x20 DUP1 SWAP2 DIV MUL PUSH1 0x20 ADD PUSH1 0x40 MLOAD SWAP1 DUP2 ADD PUSH1 0x40 MSTORE DUP1 SWAP3 SWAP2 SWAP1 DUP2 DUP2 MSTORE PUSH1 0x20 ADD DUP3 DUP1 SLOAD PUSH2 0xB8D SWAP1 PUSH2 0x13EC JUMP JUMPDEST DUP1 ISZERO PUSH2 0xBDA JUMPI DUP1 PUSH1 0x1F LT PUSH2 0xBAF JUMPI PUSH2 0x100 DUP1 DUP4 SLOAD DIV MUL DUP4 MSTORE SWAP2 PUSH1 0x20 ADD SWAP2 PUSH2 0xBDA JUMP JUMPDEST DUP3 ADD SWAP2 SWAP1 PUSH1 0x0 MSTORE PUSH1 0x20 PUSH1 0x0 KECCAK256 SWAP1 JUMPDEST DUP2 SLOAD DUP2 MSTORE SWAP1 PUSH1 0x1 ADD SWAP1 PUSH1 0x20 ADD DUP1 DUP4 GT PUSH2 0xBBD JUMPI DUP3 SWAP1 SUB PUSH1 0x1F AND DUP3 ADD SWAP2 JUMPDEST POP POP POP POP POP SWAP1 DUP1 PUSH1 0x5 ADD DUP1 SLOAD PUSH2 0xBEF SWAP1 PUSH2 0x13EC JUMP JUMPDEST DUP1 PUSH1 0x1F ADD PUSH1 0x20 DUP1 SWAP2 DIV MUL PUSH1 0x20 ADD PUSH1 0x40 MLOAD SWAP1 DUP2 ADD PUSH1 0x40 MSTORE DUP1 SWAP3 SWAP2 SWAP1 DUP2 DUP2 MSTORE PUSH1 0x20 ADD DUP3 DUP1 SLOAD PUSH2 0xC1B SWAP1 PUSH2 0x13EC JUMP JUMPDEST DUP1 ISZERO PUSH2 0xC68 JUMPI DUP1 PUSH1 0x1F LT PUSH2 0xC3D JUMPI PUSH2 0x100 DUP1 DUP4 SLOAD DIV MUL DUP4 MSTORE SWAP2 PUSH1 0x20 ADD SWAP2 PUSH2 0xC68 JUMP JUMPDEST DUP3 ADD SWAP2 SWAP1 PUSH1 0x0 MSTORE PUSH1 0x20 PUSH1 0x0 KECCAK256 SWAP1 JUMPDEST DUP2 SLOAD DUP2 MSTORE SWAP1 PUSH1 0x1 ADD SWAP1 PUSH1 0x20 ADD DUP1 DUP4 GT PUSH2 0xC4B JUMPI DUP3 SWAP1 SUB PUSH1 0x1F AND DUP3 ADD SWAP2 JUMPDEST POP POP POP POP POP SWAP1 POP DUP7 JUMP JUMPDEST DUP3 DUP1 SLOAD DUP3 DUP3 SSTORE SWAP1 PUSH1 0x0 MSTORE PUSH1 0x20 PUSH1 0x0 KECCAK256 SWAP1 DUP2 ADD SWAP3 DUP3 ISZERO PUSH2 0xCAE JUMPI SWAP2 PUSH1 0x20 MUL DUP3 ADD JUMPDEST DUP3 DUP2 GT ISZERO PUSH2 0xCAD JUMPI DUP3 MLOAD DUP3 SSTORE SWAP2 PUSH1 0x20 ADD SWAP2 SWAP1 PUSH1 0x1 ADD SWAP1 PUSH2 0xC92 JUMP JUMPDEST JUMPDEST POP SWAP1 POP PUSH2 0xCBB SWAP2 SWAP1 PUSH2 0xCBF JUMP JUMPDEST POP SWAP1 JUMP JUMPDEST JUMPDEST DUP1 DUP3 GT ISZERO PUSH2 0xCD8 JUMPI PUSH1 0x0 DUP2 PUSH1 0x0 SWAP1 SSTORE POP PUSH1 0x1 ADD PUSH2 0xCC0 JUMP JUMPDEST POP SWAP1 JUMP JUMPDEST PUSH1 0x0 DUP2 SWAP1 POP SWAP2 SWAP1 POP JUMP JUMPDEST PUSH2 0xCEF DUP2 PUSH2 0xCDC JUMP JUMPDEST DUP3 MSTORE POP POP JUMP JUMPDEST PUSH1 0x0 PUSH1 0x20 DUP3 ADD SWAP1 POP PUSH2 0xD0A PUSH1 0x0 DUP4 ADD DUP5 PUSH2 0xCE6 JUMP JUMPDEST SWAP3 SWAP2 POP POP JUMP JUMPDEST PUSH1 0x0 PUSH1 0x40 MLOAD SWAP1 POP SWAP1 JUMP JUMPDEST PUSH1 0x0 DUP1 REVERT JUMPDEST PUSH1 0x0 DUP1 REVERT JUMPDEST PUSH2 0xD2D DUP2 PUSH2 0xCDC JUMP JUMPDEST DUP2 EQ PUSH2 0xD38 JUMPI PUSH1 0x0 DUP1 REVERT JUMPDEST POP JUMP JUMPDEST PUSH1 0x0 DUP2 CALLDATALOAD SWAP1 POP PUSH2 0xD4A DUP2 PUSH2 0xD24 JUMP JUMPDEST SWAP3 SWAP2 POP POP JUMP JUMPDEST PUSH1 0x0 PUSH1 0x20 DUP3 DUP5 SUB SLT ISZERO PUSH2 0xD66 JUMPI PUSH2 0xD65 PUSH2 0xD1A JUMP JUMPDEST JUMPDEST PUSH1 0x0 PUSH2 0xD74 DUP5 DUP3 DUP6 ADD PUSH2 0xD3B JUMP JUMPDEST SWAP2 POP POP SWAP3 SWAP2 POP POP JUMP JUMPDEST PUSH1 0x0 DUP2 MLOAD SWAP1 POP SWAP2 SWAP1 POP JUMP JUMPDEST PUSH1 0x0 DUP3 DUP3 MSTORE PUSH1 0x20 DUP3 ADD SWAP1 POP SWAP3 SWAP2 POP POP JUMP JUMPDEST PUSH1 0x0 DUP2 SWAP1 POP PUSH1 0x20 DUP3 ADD SWAP1 POP SWAP2 SWAP1 POP JUMP JUMPDEST PUSH2 0xDB2 DUP2 PUSH2 0xCDC JUMP JUMPDEST DUP3 MSTORE POP POP JUMP JUMPDEST PUSH1 0x0 PUSH2 0xDC4 DUP4 DUP4 PUSH2 0xDA9 JUMP JUMPDEST PUSH1 0x20 DUP4 ADD SWAP1 POP SWAP3 SWAP2 POP POP JUMP JUMPDEST PUSH1 0x0 PUSH1 0x20 DUP3 ADD SWAP1 POP SWAP2 SWAP1 POP JUMP JUMPDEST PUSH1 0x0 PUSH2 0xDE8 DUP3 PUSH2 0xD7D JUMP JUMPDEST PUSH2 0xDF2 DUP2 DUP6 PUSH2 0xD88 JUMP JUMPDEST SWAP4 POP PUSH2 0xDFD DUP4 PUSH2 0xD99 JUMP JUMPDEST DUP1 PUSH1 0x0 JUMPDEST DUP4 DUP2 LT ISZERO PUSH2 0xE2E JUMPI DUP2 MLOAD PUSH2 0xE15 DUP9 DUP3 PUSH2 0xDB8 JUMP JUMPDEST SWAP8 POP PUSH2 0xE20 DUP4 PUSH2 0xDD0 JUMP JUMPDEST SWAP3 POP POP PUSH1 0x1 DUP2 ADD SWAP1 POP PUSH2 0xE01 JUMP JUMPDEST POP DUP6 SWAP4 POP POP POP POP SWAP3 SWAP2 POP POP JUMP JUMPDEST PUSH1 0x0 PUSH1 0x20 DUP3 ADD SWAP1 POP DUP2 DUP2 SUB PUSH1 0x0 DUP4 ADD MSTORE PUSH2 0xE55 DUP2 DUP5 PUSH2 0xDDD JUMP JUMPDEST SWAP1 POP SWAP3 SWAP2 POP POP JUMP JUMPDEST PUSH1 0x0 DUP1 REVERT JUMPDEST PUSH1 0x0 DUP1 REVERT JUMPDEST PUSH1 0x0 PUSH1 0x1F NOT PUSH1 0x1F DUP4 ADD AND SWAP1 POP SWAP2 SWAP1 POP JUMP JUMPDEST PUSH32 0x4E487B7100000000000000000000000000000000000000000000000000000000 PUSH1 0x0 MSTORE PUSH1 0x41 PUSH1 0x4 MSTORE PUSH1 0x24 PUSH1 0x0 REVERT JUMPDEST PUSH2 0xEB0 DUP3 PUSH2 0xE67 JUMP JUMPDEST DUP2 ADD DUP2 DUP2 LT PUSH8 0xFFFFFFFFFFFFFFFF DUP3 GT OR ISZERO PUSH2 0xECF JUMPI PUSH2 0xECE PUSH2 0xE78 JUMP JUMPDEST JUMPDEST DUP1 PUSH1 0x40 MSTORE POP POP POP JUMP JUMPDEST PUSH1 0x0 PUSH2 0xEE2 PUSH2 0xD10 JUMP JUMPDEST SWAP1 POP PUSH2 0xEEE DUP3 DUP3 PUSH2 0xEA7 JUMP JUMPDEST SWAP2 SWAP1 POP JUMP JUMPDEST PUSH1 0x0 PUSH8 0xFFFFFFFFFFFFFFFF DUP3 GT ISZERO PUSH2 0xF0E JUMPI PUSH2 0xF0D PUSH2 0xE78 JUMP JUMPDEST JUMPDEST PUSH2 0xF17 DUP3 PUSH2 0xE67 JUMP JUMPDEST SWAP1 POP PUSH1 0x20 DUP2 ADD SWAP1 POP SWAP2 SWAP1 POP JUMP JUMPDEST DUP3 DUP2 DUP4 CALLDATACOPY PUSH1 0x0 DUP4 DUP4 ADD MSTORE POP POP POP JUMP JUMPDEST PUSH1 0x0 PUSH2 0xF46 PUSH2 0xF41 DUP5 PUSH2 0xEF3 JUMP JUMPDEST PUSH2 0xED8 JUMP JUMPDEST SWAP1 POP DUP3 DUP2 MSTORE PUSH1 0x20 DUP2 ADD DUP5 DUP5 DUP5 ADD GT ISZERO PUSH2 0xF62 JUMPI PUSH2 0xF61 PUSH2 0xE62 JUMP JUMPDEST JUMPDEST PUSH2 0xF6D DUP5 DUP3 DUP6 PUSH2 0xF24 JUMP JUMPDEST POP SWAP4 SWAP3 POP POP POP JUMP JUMPDEST PUSH1 0x0 DUP3 PUSH1 0x1F DUP4 ADD SLT PUSH2 0xF8A JUMPI PUSH2 0xF89 PUSH2 0xE5D JUMP JUMPDEST JUMPDEST DUP2 CALLDATALOAD PUSH2 0xF9A DUP5 DUP3 PUSH1 0x20 DUP7 ADD PUSH2 0xF33 JUMP JUMPDEST SWAP2 POP POP SWAP3 SWAP2 POP POP JUMP JUMPDEST PUSH1 0x0 DUP1 PUSH1 0x0 DUP1 PUSH1 0x80 DUP6 DUP8 SUB SLT ISZERO PUSH2 0xFBD JUMPI PUSH2 0xFBC PUSH2 0xD1A JUMP JUMPDEST JUMPDEST PUSH1 0x0 DUP6 ADD CALLDATALOAD PUSH8 0xFFFFFFFFFFFFFFFF DUP2 GT ISZERO PUSH2 0xFDB JUMPI PUSH2 0xFDA PUSH2 0xD1F JUMP JUMPDEST JUMPDEST PUSH2 0xFE7 DUP8 DUP3 DUP9 ADD PUSH2 0xF75 JUMP JUMPDEST SWAP5 POP POP PUSH1 0x20 PUSH2 0xFF8 DUP8 DUP3 DUP9 ADD PUSH2 0xD3B JUMP JUMPDEST SWAP4 POP POP PUSH1 0x40 DUP6 ADD CALLDATALOAD PUSH8 0xFFFFFFFFFFFFFFFF DUP2 GT ISZERO PUSH2 0x1019 JUMPI PUSH2 0x1018 PUSH2 0xD1F JUMP JUMPDEST JUMPDEST PUSH2 0x1025 DUP8 DUP3 DUP9 ADD PUSH2 0xF75 JUMP JUMPDEST SWAP3 POP POP PUSH1 0x60 DUP6 ADD CALLDATALOAD PUSH8 0xFFFFFFFFFFFFFFFF DUP2 GT ISZERO PUSH2 0x1046 JUMPI PUSH2 0x1045 PUSH2 0xD1F JUMP JUMPDEST JUMPDEST PUSH2 0x1052 DUP8 DUP3 DUP9 ADD PUSH2 0xF75 JUMP JUMPDEST SWAP2 POP POP SWAP3 SWAP6 SWAP2 SWAP5 POP SWAP3 POP JUMP JUMPDEST PUSH1 0x0 DUP2 MLOAD SWAP1 POP SWAP2 SWAP1 POP JUMP JUMPDEST PUSH1 0x0 DUP3 DUP3 MSTORE PUSH1 0x20 DUP3 ADD SWAP1 POP SWAP3 SWAP2 POP POP JUMP JUMPDEST PUSH1 0x0 JUMPDEST DUP4 DUP2 LT ISZERO PUSH2 0x1098 JUMPI DUP1 DUP3 ADD MLOAD DUP2 DUP5 ADD MSTORE PUSH1 0x20 DUP2 ADD SWAP1 POP PUSH2 0x107D JUMP JUMPDEST PUSH1 0x0 DUP5 DUP5 ADD MSTORE POP POP POP POP JUMP JUMPDEST PUSH1 0x0 PUSH2 0x10AF DUP3 PUSH2 0x105E JUMP JUMPDEST PUSH2 0x10B9 DUP2 DUP6 PUSH2 0x1069 JUMP JUMPDEST SWAP4 POP PUSH2 0x10C9 DUP2 DUP6 PUSH1 0x20 DUP7 ADD PUSH2 0x107A JUMP JUMPDEST PUSH2 0x10D2 DUP2 PUSH2 0xE67 JUMP JUMPDEST DUP5 ADD SWAP2 POP POP SWAP3 SWAP2 POP POP JUMP JUMPDEST PUSH1 0x0 PUSH1 0xA0 DUP3 ADD SWAP1 POP DUP2 DUP2 SUB PUSH1 0x0 DUP4 ADD MSTORE PUSH2 0x10F7 DUP2 DUP9 PUSH2 0x10A4 JUMP JUMPDEST SWAP1 POP DUP2 DUP2 SUB PUSH1 0x20 DUP4 ADD MSTORE PUSH2 0x110B DUP2 DUP8 PUSH2 0x10A4 JUMP JUMPDEST SWAP1 POP DUP2 DUP2 SUB PUSH1 0x40 DUP4 ADD MSTORE PUSH2 0x111F DUP2 DUP7 PUSH2 0x10A4 JUMP JUMPDEST SWAP1 POP DUP2 DUP2 SUB PUSH1 0x60 DUP4 ADD MSTORE PUSH2 0x1133 DUP2 DUP6 PUSH2 0x10A4 JUMP JUMPDEST SWAP1 POP DUP2 DUP2 SUB PUSH1 0x80 DUP4 ADD MSTORE PUSH2 0x1147 DUP2 DUP5 PUSH2 0x10A4 JUMP JUMPDEST SWAP1 POP SWAP7 SWAP6 POP POP POP POP POP POP JUMP JUMPDEST PUSH1 0x0 DUP1 PUSH1 0x0 DUP1 PUSH1 0x0 PUSH1 0xA0 DUP7 DUP9 SUB SLT ISZERO PUSH2 0x116F JUMPI PUSH2 0x116E PUSH2 0xD1A JUMP JUMPDEST JUMPDEST PUSH1 0x0 DUP7 ADD CALLDATALOAD PUSH8 0xFFFFFFFFFFFFFFFF DUP2 GT ISZERO PUSH2 0x118D JUMPI PUSH2 0x118C PUSH2 0xD1F JUMP JUMPDEST JUMPDEST PUSH2 0x1199 DUP9 DUP3 DUP10 ADD PUSH2 0xF75 JUMP JUMPDEST SWAP6 POP POP PUSH1 0x20 DUP7 ADD CALLDATALOAD PUSH8 0xFFFFFFFFFFFFFFFF DUP2 GT ISZERO PUSH2 0x11BA JUMPI PUSH2 0x11B9 PUSH2 0xD1F JUMP JUMPDEST JUMPDEST PUSH2 0x11C6 DUP9 DUP3 DUP10 ADD PUSH2 0xF75 JUMP JUMPDEST SWAP5 POP POP PUSH1 0x40 DUP7 ADD CALLDATALOAD PUSH8 0xFFFFFFFFFFFFFFFF DUP2 GT ISZERO PUSH2 0x11E7 JUMPI PUSH2 0x11E6 PUSH2 0xD1F JUMP JUMPDEST JUMPDEST PUSH2 0x11F3 DUP9 DUP3 DUP10 ADD PUSH2 0xF75 JUMP JUMPDEST SWAP4 POP POP PUSH1 0x60 DUP7 ADD CALLDATALOAD PUSH8 0xFFFFFFFFFFFFFFFF DUP2 GT ISZERO PUSH2 0x1214 JUMPI PUSH2 0x1213 PUSH2 0xD1F JUMP JUMPDEST JUMPDEST PUSH2 0x1220 DUP9 DUP3 DUP10 ADD PUSH2 0xF75 JUMP JUMPDEST SWAP3 POP POP PUSH1 0x80 DUP7 ADD CALLDATALOAD PUSH8 0xFFFFFFFFFFFFFFFF DUP2 GT ISZERO PUSH2 0x1241 JUMPI PUSH2 0x1240 PUSH2 0xD1F JUMP JUMPDEST JUMPDEST PUSH2 0x124D DUP9 DUP3 DUP10 ADD PUSH2 0xF75 JUMP JUMPDEST SWAP2 POP POP SWAP3 SWAP6 POP SWAP3 SWAP6 SWAP1 SWAP4 POP JUMP JUMPDEST PUSH1 0x0 PUSH1 0xA0 DUP3 ADD SWAP1 POP PUSH2 0x126F PUSH1 0x0 DUP4 ADD DUP9 PUSH2 0xCE6 JUMP JUMPDEST DUP2 DUP2 SUB PUSH1 0x20 DUP4 ADD MSTORE PUSH2 0x1281 DUP2 DUP8 PUSH2 0x10A4 JUMP JUMPDEST SWAP1 POP PUSH2 0x1290 PUSH1 0x40 DUP4 ADD DUP7 PUSH2 0xCE6 JUMP JUMPDEST DUP2 DUP2 SUB PUSH1 0x60 DUP4 ADD MSTORE PUSH2 0x12A2 DUP2 DUP6 PUSH2 0x10A4 JUMP JUMPDEST SWAP1 POP DUP2 DUP2 SUB PUSH1 0x80 DUP4 ADD MSTORE PUSH2 0x12B6 DUP2 DUP5 PUSH2 0x10A4 JUMP JUMPDEST SWAP1 POP SWAP7 SWAP6 POP POP POP POP POP POP JUMP JUMPDEST PUSH1 0x0 PUSH1 0xC0 DUP3 ADD SWAP1 POP PUSH2 0x12D7 PUSH1 0x0 DUP4 ADD DUP10 PUSH2 0xCE6 JUMP JUMPDEST DUP2 DUP2 SUB PUSH1 0x20 DUP4 ADD MSTORE PUSH2 0x12E9 DUP2 DUP9 PUSH2 0x10A4 JUMP JUMPDEST SWAP1 POP DUP2 DUP2 SUB PUSH1 0x40 DUP4 ADD MSTORE PUSH2 0x12FD DUP2 DUP8 PUSH2 0x10A4 JUMP JUMPDEST SWAP1 POP DUP2 DUP2 SUB PUSH1 0x60 DUP4 ADD MSTORE PUSH2 0x1311 DUP2 DUP7 PUSH2 0x10A4 JUMP JUMPDEST SWAP1 POP DUP2 DUP2 SUB PUSH1 0x80 DUP4 ADD MSTORE PUSH2 0x1325 DUP2 DUP6 PUSH2 0x10A4 JUMP JUMPDEST SWAP1 POP DUP2 DUP2 SUB PUSH1 0xA0 DUP4 ADD MSTORE PUSH2 0x1339 DUP2 DUP5 PUSH2 0x10A4 JUMP JUMPDEST SWAP1 POP SWAP8 SWAP7 POP POP POP POP POP POP POP JUMP JUMPDEST PUSH32 0x4E487B7100000000000000000000000000000000000000000000000000000000 PUSH1 0x0 MSTORE PUSH1 0x11 PUSH1 0x4 MSTORE PUSH1 0x24 PUSH1 0x0 REVERT JUMPDEST PUSH1 0x0 PUSH2 0x1380 DUP3 PUSH2 0xCDC JUMP JUMPDEST SWAP2 POP PUSH32 0xFFFFFFFFFFFFFFFFFFFFFFFFFFFFFFFFFFFFFFFFFFFFFFFFFFFFFFFFFFFFFFFF DUP3 SUB PUSH2 0x13B2 JUMPI PUSH2 0x13B1 PUSH2 0x1346 JUMP JUMPDEST JUMPDEST PUSH1 0x1 DUP3 ADD SWAP1 POP SWAP2 SWAP1 POP JUMP JUMPDEST PUSH32 0x4E487B7100000000000000000000000000000000000000000000000000000000 PUSH1 0x0 MSTORE PUSH1 0x22 PUSH1 0x4 MSTORE PUSH1 0x24 PUSH1 0x0 REVERT JUMPDEST PUSH1 0x0 PUSH1 0x2 DUP3 DIV SWAP1 POP PUSH1 0x1 DUP3 AND DUP1 PUSH2 0x1404 JUMPI PUSH1 0x7F DUP3 AND SWAP2 POP JUMPDEST PUSH1 0x20 DUP3 LT DUP2 SUB PUSH2 0x1417 JUMPI PUSH2 0x1416 PUSH2 0x13BD JUMP JUMPDEST JUMPDEST POP SWAP2 SWAP1 POP JUMP JUMPDEST PUSH1 0x0 DUP2 SWAP1 POP DUP2 PUSH1 0x0 MSTORE PUSH1 0x20 PUSH1 0x0 KECCAK256 SWAP1 POP SWAP2 SWAP1 POP JUMP JUMPDEST PUSH1 0x0 PUSH1 0x20 PUSH1 0x1F DUP4 ADD DIV SWAP1 POP SWAP2 SWAP1 POP JUMP JUMPDEST PUSH1 0x0 DUP3 DUP3 SHL SWAP1 POP SWAP3 SWAP2 POP POP JUMP JUMPDEST PUSH1 0x0 PUSH1 0x8 DUP4 MUL PUSH2 0x147F PUSH32 0xFFFFFFFFFFFFFFFFFFFFFFFFFFFFFFFFFFFFFFFFFFFFFFFFFFFFFFFFFFFFFFFF DUP3 PUSH2 0x1442 JUMP JUMPDEST PUSH2 0x1489 DUP7 DUP4 PUSH2 0x1442 JUMP JUMPDEST SWAP6 POP DUP1 NOT DUP5 AND SWAP4 POP DUP1 DUP7 AND DUP5 OR SWAP3 POP POP POP SWAP4 SWAP3 POP POP POP JUMP JUMPDEST PUSH1 0x0 DUP2 SWAP1 POP SWAP2 SWAP1 POP JUMP JUMPDEST PUSH1 0x0 PUSH2 0x14C6 PUSH2 0x14C1 PUSH2 0x14BC DUP5 PUSH2 0xCDC JUMP JUMPDEST PUSH2 0x14A1 JUMP JUMPDEST PUSH2 0xCDC JUMP JUMPDEST SWAP1 POP SWAP2 SWAP1 POP JUMP JUMPDEST PUSH1 0x0 DUP2 SWAP1 POP SWAP2 SWAP1 POP JUMP JUMPDEST PUSH2 0x14E0 DUP4 PUSH2 0x14AB JUMP JUMPDEST PUSH2 0x14F4 PUSH2 0x14EC DUP3 PUSH2 0x14CD JUMP JUMPDEST DUP5 DUP5 SLOAD PUSH2 0x144F JUMP JUMPDEST DUP3 SSTORE POP POP POP POP JUMP JUMPDEST PUSH1 0x0 SWAP1 JUMP JUMPDEST PUSH2 0x1509 PUSH2 0x14FC JUMP JUMPDEST PUSH2 0x1514 DUP2 DUP5 DUP5 PUSH2 0x14D7 JUMP JUMPDEST POP POP POP JUMP JUMPDEST JUMPDEST DUP2 DUP2 LT ISZERO PUSH2 0x1538 JUMPI PUSH2 0x152D PUSH1 0x0 DUP3 PUSH2 0x1501 JUMP JUMPDEST PUSH1 0x1 DUP2 ADD SWAP1 POP PUSH2 0x151A JUMP JUMPDEST POP POP JUMP JUMPDEST PUSH1 0x1F DUP3 GT ISZERO PUSH2 0x157D JUMPI PUSH2 0x154E DUP2 PUSH2 0x141D JUMP JUMPDEST PUSH2 0x1557 DUP5 PUSH2 0x1432 JUMP JUMPDEST DUP2 ADD PUSH1 0x20 DUP6 LT ISZERO PUSH2 0x1566 JUMPI DUP2 SWAP1 POP JUMPDEST PUSH2 0x157A PUSH2 0x1572 DUP6 PUSH2 0x1432 JUMP JUMPDEST DUP4 ADD DUP3 PUSH2 0x1519 JUMP JUMPDEST POP POP JUMPDEST POP POP POP JUMP JUMPDEST PUSH1 0x0 DUP3 DUP3 SHR SWAP1 POP SWAP3 SWAP2 POP POP JUMP JUMPDEST PUSH1 0x0 PUSH2 0x15A0 PUSH1 0x0 NOT DUP5 PUSH1 0x8 MUL PUSH2 0x1582 JUMP JUMPDEST NOT DUP1 DUP4 AND SWAP2 POP POP SWAP3 SWAP2 POP POP JUMP JUMPDEST PUSH1 0x0 PUSH2 0x15B9 DUP4 DUP4 PUSH2 0x158F JUMP JUMPDEST SWAP2 POP DUP3 PUSH1 0x2 MUL DUP3 OR SWAP1 POP SWAP3 SWAP2 POP POP JUMP JUMPDEST PUSH2 0x15D2 DUP3 PUSH2 0x105E JUMP JUMPDEST PUSH8 0xFFFFFFFFFFFFFFFF DUP2 GT ISZERO PUSH2 0x15EB JUMPI PUSH2 0x15EA PUSH2 0xE78 JUMP JUMPDEST JUMPDEST PUSH2 0x15F5 DUP3 SLOAD PUSH2 0x13EC JUMP JUMPDEST PUSH2 0x1600 DUP3 DUP3 DUP6 PUSH2 0x153C JUMP JUMPDEST PUSH1 0x0 PUSH1 0x20 SWAP1 POP PUSH1 0x1F DUP4 GT PUSH1 0x1 DUP2 EQ PUSH2 0x1633 JUMPI PUSH1 0x0 DUP5 ISZERO PUSH2 0x1621 JUMPI DUP3 DUP8 ADD MLOAD SWAP1 POP JUMPDEST PUSH2 0x162B DUP6 DUP3 PUSH2 0x15AD JUMP JUMPDEST DUP7 SSTORE POP PUSH2 0x1693 JUMP JUMPDEST PUSH1 0x1F NOT DUP5 AND PUSH2 0x1641 DUP7 PUSH2 0x141D JUMP JUMPDEST PUSH1 0x0 JUMPDEST DUP3 DUP2 LT ISZERO PUSH2 0x1669 JUMPI DUP5 DUP10 ADD MLOAD DUP3 SSTORE PUSH1 0x1 DUP3 ADD SWAP2 POP PUSH1 0x20 DUP6 ADD SWAP5 POP PUSH1 0x20 DUP2 ADD SWAP1 POP PUSH2 0x1644 JUMP JUMPDEST DUP7 DUP4 LT ISZERO PUSH2 0x1686 JUMPI DUP5 DUP10 ADD MLOAD PUSH2 0x1682 PUSH1 0x1F DUP10 AND DUP3 PUSH2 0x158F JUMP JUMPDEST DUP4 SSTORE POP JUMPDEST PUSH1 0x1 PUSH1 0x2 DUP9 MUL ADD DUP9 SSTORE POP POP POP JUMPDEST POP POP POP POP POP POP JUMP INVALID LOG2 PUSH5 0x6970667358 0x22 SLT KECCAK256 LOG3 SWAP16 0xB7 0xAD 0xB6 ADDRESS 0x2B 0xFC 0xE5 MSTORE8 0x25 0xE4 PUSH16 0x58098C3E28B08185C36A03E033143A70 PUSH20 0x1E1564736F6C6343000812003300000000000000 "
				},
				"gasEstimates": {
					"creation": {
						"codeDepositCost": "1168200",
						"executionCost": "1214",
						"totalCost": "1169414"
					},
					"external": {
						"addPatient(string,uint256,string,string)": "infinite",
						"addReport(string,string,string,string,string)": "infinite",
						"getPatientReportIds(uint256)": "infinite",
						"getReportById(uint256)": "infinite",
						"patientCount()": "2473",
						"patients(uint256)": "infinite",
						"reportCount()": "2430",
						"reports(uint256)": "infinite"
					}
				},
				"methodIdentifiers": {
					"addPatient(string,uint256,string,string)": "33f0d5ea",
					"addReport(string,string,string,string,string)": "69081bee",
					"getPatientReportIds(uint256)": "1ca9da80",
					"getReportById(uint256)": "45a05bfb",
					"patientCount()": "a0303c41",
					"patients(uint256)": "93119a83",
					"reportCount()": "185c6f84",
					"reports(uint256)": "c942adf7"
				}
			},
			"storageLayout": {
				"storage": [
					{
						"astId": 33,
						"contract": "EHR/contracts/EHR.sol:EHR",
						"label": "patients",
						"offset": 0,
						"slot": "0",
						"type": "t_mapping(t_uint256,t_struct(Patient)15_storage)"
					},
					{
						"astId": 38,
						"contract": "EHR/contracts/EHR.sol:EHR",
						"label": "reports",
						"offset": 0,
						"slot": "1",
						"type": "t_mapping(t_uint256,t_struct(Report)28_storage)"
					},
					{
						"astId": 40,
						"contract": "EHR/contracts/EHR.sol:EHR",
						"label": "patientCount",
						"offset": 0,
						"slot": "2",
						"type": "t_uint256"
					},
					{
						"astId": 42,
						"contract": "EHR/contracts/EHR.sol:EHR",
						"label": "reportCount",
						"offset": 0,
						"slot": "3",
						"type": "t_uint256"
					}
				],
				"types": {
					"t_array(t_uint256)dyn_storage": {
						"base": "t_uint256",
						"encoding": "dynamic_array",
						"label": "uint256[]",
						"numberOfBytes": "32"
					},
					"t_mapping(t_uint256,t_struct(Patient)15_storage)": {
						"encoding": "mapping",
						"key": "t_uint256",
						"label": "mapping(uint256 => struct EHR.Patient)",
						"numberOfBytes": "32",
						"value": "t_struct(Patient)15_storage"
					},
					"t_mapping(t_uint256,t_struct(Report)28_storage)": {
						"encoding": "mapping",
						"key": "t_uint256",
						"label": "mapping(uint256 => struct EHR.Report)",
						"numberOfBytes": "32",
						"value": "t_struct(Report)28_storage"
					},
					"t_string_storage": {
						"encoding": "bytes",
						"label": "string",
						"numberOfBytes": "32"
					},
					"t_struct(Patient)15_storage": {
						"encoding": "inplace",
						"label": "struct EHR.Patient",
						"members": [
							{
								"astId": 3,
								"contract": "EHR/contracts/EHR.sol:EHR",
								"label": "id",
								"offset": 0,
								"slot": "0",
								"type": "t_uint256"
							},
							{
								"astId": 5,
								"contract": "EHR/contracts/EHR.sol:EHR",
								"label": "name",
								"offset": 0,
								"slot": "1",
								"type": "t_string_storage"
							},
							{
								"astId": 7,
								"contract": "EHR/contracts/EHR.sol:EHR",
								"label": "age",
								"offset": 0,
								"slot": "2",
								"type": "t_uint256"
							},
							{
								"astId": 9,
								"contract": "EHR/contracts/EHR.sol:EHR",
								"label": "gender",
								"offset": 0,
								"slot": "3",
								"type": "t_string_storage"
							},
							{
								"astId": 11,
								"contract": "EHR/contracts/EHR.sol:EHR",
								"label": "bloodType",
								"offset": 0,
								"slot": "4",
								"type": "t_string_storage"
							},
							{
								"astId": 14,
								"contract": "EHR/contracts/EHR.sol:EHR",
								"label": "reportIds",
								"offset": 0,
								"slot": "5",
								"type": "t_array(t_uint256)dyn_storage"
							}
						],
						"numberOfBytes": "192"
					},
					"t_struct(Report)28_storage": {
						"encoding": "inplace",
						"label": "struct EHR.Report",
						"members": [
							{
								"astId": 17,
								"contract": "EHR/contracts/EHR.sol:EHR",
								"label": "id",
								"offset": 0,
								"slot": "0",
								"type": "t_uint256"
							},
							{
								"astId": 19,
								"contract": "EHR/contracts/EHR.sol:EHR",
								"label": "patientName",
								"offset": 0,
								"slot": "1",
								"type": "t_string_storage"
							},
							{
								"astId": 21,
								"contract": "EHR/contracts/EHR.sol:EHR",
								"label": "doctorName",
								"offset": 0,
								"slot": "2",
								"type": "t_string_storage"
							},
							{
								"astId": 23,
								"contract": "EHR/contracts/EHR.sol:EHR",
								"label": "reportType",
								"offset": 0,
								"slot": "3",
								"type": "t_string_storage"
							},
							{
								"astId": 25,
								"contract": "EHR/contracts/EHR.sol:EHR",
								"label": "description",
								"offset": 0,
								"slot": "4",
								"type": "t_string_storage"
							},
							{
								"astId": 27,
								"contract": "EHR/contracts/EHR.sol:EHR",
								"label": "date",
								"offset": 0,
								"slot": "5",
								"type": "t_string_storage"
							}
						],
						"numberOfBytes": "192"
					},
					"t_uint256": {
						"encoding": "inplace",
						"label": "uint256",
						"numberOfBytes": "32"
					}
				}
			},
			"userdoc": {
				"kind": "user",
				"methods": {},
				"version": 1
			}
		}
	}
}